:020000040800F2
:10000000D804002045010008990100089B01000860
:100010009D0100089F010008A101000800000000E8
:10002000000000000000000000000000A301000824
:10003000A501000800000000A7010008A9010008B0
:100040005F0100085F0100085F0100085F01000810
:100050005F0100085F0100085F0100085F01000800
:100060005F0100085F0100085F0100085F010008F0
:100070005F0100085F010008AB010008AD01000846
:10008000AF010008B10100085F0100085F0100082E
:100090005F0100085F0100085F0100085F010008C0
:1000A0005F0100085F0100085F0100085F010008B0
:1000B000CD010008610200085F0100085F0100082F
:1000C0005F0100085F0100085F0100085F01000890
:1000D0005F010008B90100085F010008C3010008C2
:1000E0005F0100085F0100085F0100085F01000870
:1000F0005F0100085F0100085F0100085F01000860
:100100005F0100085F0100085F0100085F0100084F
:100110005F0100085F0100085F0100085F0100083F
:100120005F0100085F010008B5010008B701000881
:10013000DFF80CD002F01CFD004800478F010008DA
:10014000D80400200648804706480047FEE7FEE73F
:10015000FEE7FEE7FEE7FEE7FEE7FEE7FEE7FEE777
:10016000792A00083101000810B500F04BFB00F0BF
:10017000EBFA00F08AF800F091FB00F06DFA00F065
:100180006CFA0121BDE81040880701F0F6BFFFF7C7
:10019000EBFF00F052FCFCE77047FEE7FEE7FEE7EE
:1001A000FEE7704770477047704770477047704769
:1001B000704770477047704740F22551294802F058
:1001C000D5BB40F22551284802F0D0BB38B50020FD
:1001D000009002214C07204602F01CFA80B1204614
:1001E00002F001FA0090BDF80000643081B22046B0
:1001F00002F0E8F92046BDE83840022102F016BAC4
:100200000421204602F006FA90B1204602F0EDF9F2
:100210000090BDF8000042F21071084481B22046FF
:1002200002F0D2F92046BDE83840042102F0FEB9C0
:100230000821204602F0EEF9002810D0204602F0F6
:10024000D6F90090BDF80000283081B2204602F0B7
:10025000BDF92046BDE83840082102F0E7B938BDB5
:1002600070470000003801400048004010B50446C7
:10027000A1808021204602F06EFB0028F9D0BDE865
:1002800010404021ED4802F06DBB30B587B04FF40F
:10029000E06000F081FC25208DF8040000248DF83A
:1002A000054001208DF806008DF8070001A800F038
:1002B00078FC4FF40070ADF8080003208DF80A00B8
:1002C00018208DF80B00DE4D02A9284601F03FF9F9
:1002D0002915ADF8081004218DF80B1002A9284645
:1002E00001F035F94FF4E1300390ADF81040ADF86E
:1002F0001240ADF81440ADF818400C20ADF81600CF
:10030000CE4C03A9204602F0DDF9012240F225512E
:10031000204602F05EFA0121204602F04EFA40210A
:10032000204602F01FFB07B030BD30B585B0042475
:10033000ADF8004003208DF8020018208DF803006E
:10034000BF4D6946284601F002F90821ADF80010BA
:100350008DF803406946284601F0F9F84FF416502D
:1003600001900020ADF80800ADF80A00ADF80C00CF
:10037000ADF810000C20ADF80E00B24C01A92046DB
:1003800002F0A0F9002240F22551204602F021FAA5
:100390000121204602F011FA4021204602F0E2FA43
:1003A00005B030BD30B587B04FF4E06000F0F4FB2D
:1003B00027208DF8040000248DF8054001208DF8D9
:1003C00006008DF8070001A800F0EBFB4FF48060F9
:1003D000ADF8080003208DF80A0018208DF80B00F6
:1003E000994D02A9284601F0B2F8E914ADF80810B9
:1003F00004218DF80B1002A9284601F0A8F84FF44B
:10040000E1300390ADF81040ADF81240ADF8144063
:10041000ADF818400C20ADF816008C4C03A920460E
:1004200002F050F9012240F22551204602F0D1F9A4
:100430000121204602F0C1F94021204602F092FA43
:1004400071E730B587B04FF4E06000F0A5FB3420D1
:100450008DF8040000248DF8054002208DF8060078
:1004600001208DF8070001A800F09BFB4FF480608D
:10047000ADF8080003208DF80A0018208DF80B0055
:10048000734D02A9284601F062F8E914ADF808108E
:1004900004218DF80B1002A9284601F058F84FF4FA
:1004A00016500390ADF81040ADF81240ADF814406E
:1004B000ADF818400C20ADF81600664C03A9204694
:1004C00002F000F9012240F22551204602F081F9A4
:1004D0000121204602F071F94021204602F042FA43
:1004E00021E770B50446554DE1B2284602F0C6F941
:1004F0004021284602F02FFA0128F9D1204670BD8C
:100500002DE9F04107460D461646002405E0295D19
:100510003846FFF7ABFE641CA4B2B442F7D3BDE883
:10052000F0812DE9F04180460C46A4F57A7042F244
:10053000283164270A2588423AD24FF47A76B4FBF0
:10054000F6F03030C1B24046FFF790FEB4FBF6F053
:1005500006FB1040B0FBF7F03030C1B24046FFF769
:1005600085FEB4FBF6F006FB1040B0FBF7F107FB8D
:100570001100B0FBF5F130314046FFF777FEB4FBD8
:10058000F6F006FB1040B0FBF7F107FB1100B0FBE3
:10059000F5F105FB110130314046FFF767FE0D21F3
:1005A0004046FFF763FE4046BDE8F0410A215DE6A4
:1005B000A4F16400B0F5617FB1D2B4FBF7F0303044
:1005C000C1B24046FFF752FEB4FBF7F007FB104004
:1005D000B0FBF5F130314046FFF748FEB4FBF7F0D1
:1005E00007FB1040B0FBF5F105FB1101303140462F
:1005F000FFF73CFE0D214046FFF738FE4046BDE8C0
:10060000F0410A2132E68AE7F0B5059E0025002474
:100610000BE0A71804EB030CC75D11F80CC067458D
:1006200001D16D1CADB2641CA4B2B442F1D3B54289
:1006300001D30120F0BD0020F0BD000000380140D2
:100640000008014000440040000C01400048004008
:1006500000100140004C0040704730B587B00024C6
:1006600002948DF80C408DF80D404FF460200490FA
:10067000059401208DF818002F4D02A9284600F09E
:1006800013FB4FF4404001F0EBF80221ADF80410E9
:100690008DF8074001A9294800F059FF01220623DF
:1006A0001146284600F08AFB0121284600F024FB71
:1006B000284600F044FB284600F046FB0028FAD10B
:1006C000284600F048FB284600F04AFB0028FAD1F3
:1006D0000121284600F04BFB07B030BD2DE9F04763
:1006E0000D460026144F012206231146384600F01D
:1006F00065FB0121384600F03AFB0024DFF840900A
:10070000DFF8408012E00221384600F03DFC00286E
:10071000F9D0384600F098FB014698F8000029F817
:100720001010401C88F80000641CE4B2AC42EAD30C
:10073000B0B2BDE8F0870000002801400008014089
:100740003400002004000020F8B51024ADF800406B
:100750008DF8034003258DF80250274E6946304638
:1007600000F0F5FE0121ADF8001028218DF80310EE
:100770006946304600F0EBFE40F2E110ADF80000B3
:100780008DF803408DF802501C4F6946384600F042
:10079000DEFE4FF47041ADF800108DF803408DF887
:1007A00002506946384600F0D2FE260231463846ED
:1007B00000F03CFF40F24B10ADF800008DF8034014
:1007C0008DF802500E4C6946204600F0C0FE802293
:1007D000ADF8002048228DF803206946204600F03D
:1007E000B6FEADF8006004218DF80310694620467E
:1007F00000F0ADFEF8BD000000080140000C014013
:100800000010014010B500F085FF4FF48034204601
:1008100000F099FF00F0C5FF012823D1002000F06F
:10082000FAFF4FF4A06001F004F8A01100F0FAFF05
:10083000022000F0D1FB102000F0DEFB4FF4A011ED
:10084000204600F0D1FF012000F0D6FF392000F053
:1008500093FF0028FAD0022000F0D1FF00F0D6FF6D
:100860000828FBD10121032001F06CF8012144F29A
:100870003D6001F072F8BDE810400121064801F02A
:1008800077B864214843401EFDD170474FF4FA51B8
:100890004843401EFDD1704703001E3870B588B034
:1008A0004FF4E06000F078F91C208DF8000000247F
:1008B0008DF8014003208DF8020001258DF80350CA
:1008C000684600F06EF94FF6FF70ADF81800ADF80D
:1008D0001440ADF81A40ADF81640AE0705A93046F1
:1008E00001F07AF9012241F2DF51304601F0D6FCE5
:1008F000ADF80440ADF80650ADF80C406421ADF8F9
:100900000A1001A9304601F0A0F942F21071ADF8C9
:100910000A1001A9304601F0D1F92820ADF80A00EB
:1009200001A9304601F00AFA0021304601F028FD05
:100930000021304601F02AFD0021304601F030FD53
:100940000121304601F063FE01220E21304601F004
:100950002EFC08B070BD00002DE9F0416E4C2078EF
:10096000132868D300216D4D4E1CF0B20BE035F812
:10097000112035F810309A4203D925F8113025F8A6
:100980001020401CC0B21428F1D3F1B21429EBD3CB
:1009900000210A46052035F810301A4492B2401C56
:1009A000C0B20F28F7D30A20B2FBF0F600220520D0
:1009B00035F810309F1B7F1C022F03D81A4492B2C7
:1009C000491CC9B2401CC0B20F28F1D311B1B2FB0F
:1009D000F1F000E0688930444508294650A002F053
:1009E000D9F8A5F2736040F25141884221D8002025
:1009F000514E36F81010A94217D8421C134636F84B
:100A00001220AA4211D3521A691A6427794391FB22
:100A1000F2F249491C3931F8133031F810105B1AE1
:100A20005A4392FBF7F211446180401CC0B20C287B
:100A3000DFD300202070BDE8F0812DE9F041364C75
:100A40002078132806D2BDE8F04102220121084691
:100A5000FFF744BE3148818A38A002F09BF8FFF7C7
:100A60007BFF61883CA002F095F861882B4DA1F6D0
:100A70001A1040F22C6200263C3590422BD8002000
:100A80002D4A1C3A32F810308B4220D8431C32F8E1
:100A900013308B421BD3431C32F8137032F81020F2
:100AA000BF1A891A6422514391FBF7F222491C3183
:100AB00031F8133031F81000191A4A43642192FBBF
:100AC000F1F1401A617825F81100668003E0401CBE
:100AD000C0B20C28D6D3607835F8101023A002F0ED
:100AE00059F80021002035F810201144401CC0B2F4
:100AF0003228F8D34FF4FA70B1FBF0F121480160CD
:100B000021A002F047F86078401CC0B26070312824
:100B100091D966708FE700000400002034000020A7
:100B20000D0A20C6BDBEF9B5E7D1B9D6B53D2564DD
:100B3000200D0A2000000000442D0008B2E2CAD4B3
:100B4000B5BDB5C4B5E7D1B93D256420202020202E
:100B50002020202020000000B5E7D7E8D6B53D25AD
:100B6000642020202020202020202000CEC2B6C8D3
:100B7000D6B5313D256420202020202020202020B3
:100B80000000000000000020CEC2B6C8D6B5323D3D
:100B90002564200D0A2000002A4908432A490860DC
:100BA000704770B50F23C27801260178002A1ED045
:100BB000254A126802F4E062C2F5E062120AC2F14C
:100BC0000404D3404578A54082781A402A43120194
:100BD00001F1E02181F80024007800F01F018E402F
:100BE0004009800000F1E020C0F8006170BD01F014
:100BF0001F0086404809800000F1E020C0F88061B5
:100C000070BD124A114001430F48001F0160704738
:100C10000D4A121D002903D011680143116070476D
:100C200011688143116070474FF0E021042804D01F
:100C3000086920F0040008617047086940F004006A
:100C4000086170470000FA050CED00E080FFFF1F0F
:100C500010B5DB4988420AD144150121204600F035
:100C600092FE2046BDE81040002100F08CBED54920
:100C700088420AD104150121204600F084FE204656
:100C8000BDE81040002100F07EBECF4988420AD165
:100C90000121CC03204600F076FE2046BDE810403E
:100CA000002100F070BE10BD10B54268C74B1A405D
:100CB0000C790B6842EA0422134343608268C44BF8
:100CC0001A40D1E9024323434C7942EA44021343D8
:100CD0008360C26A22F47002097C491EC9B242EAEA
:100CE0000151C16210BD002101600171417181603B
:100CF000C160012101747047002904D0816841F06E
:100D0000010181607047816821F0010181607047B5
:100D1000002904D0816841F4807181607047816846
:100D200021F4807181607047C9B2002A03D0426803
:100D30000A434260704742688A4342607047816854
:100D400041F0080181607047014600208968090769
:100D500000D501207047816841F00401816070472F
:100D6000014600208968490700D501207047002905
:100D700004D0816841F4A00181607047816821F44A
:100D8000A00181607047014600208968490200D5B2
:100D900001207047426822F46042491E42EA413114
:100DA00041607047002904D0416841F4006141600E
:100DB0007047416821F400614160704770B50726B3
:100DC00009290AD9C568A1F10A0404EB4404A64024
:100DD000B543A3401D43C56007E0056901EB41042D
:100DE000A640B543A3401D4305611F23072A09D22E
:100DF000446B521E02EB820293409C4391400C4391
:100E0000446370BD0D2A09D2046BD21F02EB82022B
:100E100093409C4391400C43046370BDC46A0D3AF7
:100E200002EB820293409C4391400C43C46270BD2C
:100E3000002904D0816841F4801181607047816885
:100E400021F4801181607047C06C80B270475C48AB
:100E50004C3000687047002904D0416841F480613B
:100E600041607047416821F480614160704700290A
:100E700004D0416841F4805141607047416821F4D9
:100E8000805141607047826822F4E0420A438260E8
:100E90007047002904D0816841F4004181607047A7
:100EA000816821F4004181607047002904D0816885
:100EB00041F4021181607047816821F40211816060
:100EC0007047014600208968890200D501207047DB
:100ED00070B5072609290AD9C568A1F10A0404EBEF
:100EE0004404A640B543A3401D43C56007E005691F
:100EF00001EB4104A640B543A3401D430561836B4C
:100F0000C3F30154121B921C02EB82021F24944073
:100F1000A34391400B43836370BD826B22F4401264
:100F2000491E42EA01518163704708B5009000985C
:100F3000084400900098026008BD08B50090009831
:100F40000844283000900098006880B208BD4268CC
:100F5000204B1A400A4342607047416282627047E8
:100F6000426822F01F020A43426070471449083168
:100F7000002804D0086840F4000008607047086842
:100F800020F40000086070470246002012680A4200
:100F900000D001207047C9430160704710B5024678
:100FA00000200B0A5468C9B20C401168194202D0E3
:100FB000002C00D0012010BD090AC9430160704710
:100FC0000024014000280140003C0140FFFEF0FFEA
:100FD000FDF7F1FFFFFD3FFFFE4A116801F0380108
:100FE000014311607047FB490A6822F008020A6059
:100FF0000A6802430A607047F6490A6822F0100244
:101000000A600A6802430A607047F248F249416088
:10101000F24941607047EF48EF494160EF49416054
:101020007047EC48016941F0800101617047E9486F
:10103000016941F08001016170470420E549CA68F7
:10104000D20701D001207047CA68520701D502209B
:101050007047C968C906FBD50320704700B5034631
:10106000FFF7EBFF02E0FFF7E8FF5B1E012801D16D
:10107000002BF8D1002B00D1052000BD70B505462E
:101080004FF430263046FFF7E9FF042811D1D14C48
:10109000206940F0020020616561206940F0400055
:1010A00020613046FFF7DAFF216941F6FD721140F9
:1010B000216170BD30B54FF430252846FFF7CEFFD3
:1010C000042810D1C34C206940F00400206120693D
:1010D00040F0400020612846FFF7C0FF216941F63B
:1010E000FB721140216130BD00B50346FFF7A5FF3B
:1010F00002E0FFF7A2FF5B1E012801D1002BF8D10F
:10110000002B00D1052000BD30B54FF43025284616
:10111000FFF7EAFF042810D1AE4C206940F004002C
:101120002061206940F0400020612846FFF7DCFF85
:10113000216941F6FB721140216130BD0020A549B3
:10114000C969890700D50120704770B5A525FFF74B
:10115000F5FF00B100254FF430263046FFF77EFF43
:10116000042818D19B4C9C48A0609C48A060206932
:1011700040F020002061206940F0400020613046AE
:10118000FFF76CFF41F6EF76042805D0052802D062
:1011900021693140216170BD206941F6DF7108404D
:1011A0002061206940F0100020618D4805804FF4D7
:1011B0000050FFF753FF0528EDD021693140216130
:1011C00070BD2DE9F84105460E46002000904FF411
:1011D00000573846FFF742FF04280FD17D4C2069A5
:1011E00040F0010020612E80B8464046FFF736FFF0
:1011F000BF1E042804D0216939402161BDE8F8816F
:10120000AD1C00950099300C08804046FFF726FF82
:10121000216939402161F1E7F0B506460D464FF4EA
:1012200000573846FFF71AFF04280CD1694C206993
:1012300040F00100206135803846FFF70FFF21693B
:10124000BA1E11402161F0BDF0B505460E464FF4BF
:1012500000573846FFF702FF042813D15D4C5E4863
:10126000A0605E48A060206940F0100020612E80E0
:101270003846FFF7F3FE052804D0216941F6EF72E6
:1012800011402161F0BD2DE9F043C043C4B2C0F369
:101290000725C0F30746070E4FF400594846FFF7ED
:1012A000DDFE04283CD1DFF82C814B49C8F808103A
:1012B0004A49C8F80810D8F8101041F01001C8F8D1
:1012C0001010FF2C05D04648083004804846FFF730
:1012D000C5FE042807D1FF2D05D041480A300580FE
:1012E0004846FFF7BBFE042807D1FF2E05D03C4837
:1012F0000C3006804846FFF7B1FE042807D1FF2FC7
:1013000005D037480E3007804846FFF7A7FE05286E
:1013100006D0D8F8101041F6EF721140C8F810103E
:10132000BDE8F08370B505464FF430263046FFF730
:1013300095FE042818D1274C2748A0602748A060B4
:10134000206940F020002061206940F040002061C9
:101350003046FFF783FE41F6DF71042805D00528EB
:1013600002D022690A40226170BD206908402061D4
:10137000206940F010002061194815B1002101805A
:1013800001E0A52101803046FFF768FE0528EBD07B
:10139000216941F6EF721140216170BD2DE9F041E4
:1013A00006460D4617460B4C0B48A0600B48A06044
:1013B0004FF400584046FFF751FE04281DD1206924
:1013C00040F0100020613D433543054945F0F800E9
:1013D000891C07E00020024023016745AB89EFCD5F
:1013E00000F8FF1F08804046FFF738FE052804D0AC
:1013F000216941F6EF7211402161BDE8F0811E487C
:10140000C069800870471C48006A704700201A496C
:101410000968890600D501207047174A002903D0C2
:10142000116901431161704711698143116170476E
:1014300001460020104A012904D0D2680A4200D097
:1014400001207047D169C907FBD0012070470A49C4
:10145000C860704704200849CA68D20701D001203B
:101460007047CA68520701D502207047C968C9068B
:10147000FBD50320704700000020024010B59C49B6
:10148000884209D10121042000F07DFA0021BDE845
:101490001040042000F077BA9649884209D1012112
:1014A000082000F070FA0021BDE81040082000F08C
:1014B0006ABA9149884209D10121102000F063FAEB
:1014C0000021BDE81040102000F05DBA8B49884231
:1014D00009D10121202000F056FA0021BDE810407A
:1014E000202000F050BA8649884209D101214020CD
:1014F00000F049FA0021BDE81040402000F043BA56
:101500008049884209D10121802000F03CFA002165
:10151000BDE81040802000F036BA7B4988420AD1ED
:1015200084150121204600F02EFA2046BDE8104027
:10153000002100F028BA10BD10B50121084600F0C6
:1015400022FA0021BDE81040012000F01CBA2DE96C
:10155000F0410022CC7804F00F03E40601D58C782A
:1015600023430C784FF00F0714F0FF0F4FF0010CDE
:101570001CD005680CFA02F40E882640A64211D150
:10158000960007FA06F825EA080503FA06F848EA7D
:101590000505CE78282E02D0482E02D002E0446104
:1015A00000E00461521C082AE4D305600A88FF2A7F
:1015B0001ED94568002202F108060CFA06F40E88CE
:1015C0002640A64210D1960007FA06F825EA08053B
:1015D00003FA06F848EA0505CE78282E00D14461C2
:1015E000CE78482E00D10461521C082AE3D345600E
:1015F000BDE8F0814FF6FF71018002218170042166
:10160000C17070470246002092680A4200D0012053
:101610007047806880B2704702460020D2680A4254
:1016200000D001207047C06880B2704701617047E8
:1016300041617047002A01D00161704741617047E4
:10164000C160704741F48032826181618261816949
:101650008069704710B52D4B1A684FF68074224090
:1016600042EA00100843186010BD2949C86170475C
:10167000F0B5264C002801DAE36900E06368C0F3A6
:101680000346420D120185B2C0F301579540032F66
:1016900007D0C2020CD50322B240934343F07062DC
:1016A00009E023F07062636823F07063636002E016
:1016B000AB4343F0706201B12A43002801DAE261D2
:1016C000F0BD6260F0BD10B58A07120F0F23934082
:1016D00021F003040D4921448C689C438C608B6885
:1016E000904003438B6010BD0949DC3108607047AE
:1016F00000080140000C01400010014000140140AE
:1017000000180140001C0140002001400000014081
:1017100000002042B448016841F0010101604168C5
:10172000B24A114041600168B14A1140016001684C
:1017300021F480210160416821F4FE0141604FF4F1
:101740001F0181607047A8490A6822F480320A604C
:101750000A6822F480220A60B0F5803F07D0B0F515
:10176000802F03D1086840F4A02008607047086803
:1017700040F48030086070470346002059099A4AB7
:1017800001290AD002290AD0516A03F01F0201235D
:1017900093400B4200D0012070471168F5E7116AB1
:1017A000F3E718B5002000904FF4A0643120FFF754
:1017B000E3FF0099491C00910099A14201D0002843
:1017C000F4D03120FFF7D8FF08B1012018BD002068
:1017D00018BD854A116821F0F80141EAC000106087
:1017E00070478449086070477F4B5A6822F47C1226
:1017F00008431043586070477E49086670477A4A2C
:10180000516821F0030101435160704776484068F8
:1018100000F00C007047744A516821F0F001014358
:1018200051607047704A516821F4E0610143516092
:1018300070476D4A516821F4605141EAC000506020
:101840007047694A002903D0517A014351727047A9
:10185000517A8143517270476649D83108607047A8
:10186000614A516821F440410143516070475E492B
:10187000002220310A7001F82029012805D004280F
:1018800002D1052081F820007047012081F8200056
:10189000704759490860704753490A6A02430A620F
:1018A0007047554944390860704710B54E4A516831
:1018B00001F00C01514B002927D0042927D0082919
:1018C00027D00360516801F0F00109094C4B5C5CC2
:1018D0000168E1404160546804F4E064240A1C5D3E
:1018E00021FA04F48460546804F46054E40A1B5D33
:1018F000D940C160526802F44042920B404B1B1F1A
:101900009A5CB1FBF2F1016110BD0360DAE703609C
:10191000D8E7516801F47011536803F4803302244E
:1019200004EB914133B153689B0307D5354B5943C1
:101930000160C7E7334B59430160C3E72F4B59435D
:101940000160BFE7284A002903D051690143516172
:1019500070475169814351617047234A002903D080
:101960009169014391617047916981439161704729
:101970001D4A002903D0D1690143D1617047D16963
:101980008143D1617047184A002903D0D1680143CF
:10199000D1607047D1688143D1607047124A0029F5
:1019A00003D01169014311617047116981431161CD
:1019B000704711494039086070470E49C864704744
:1019C0000949C87170470848416A41F08071416215
:1019D000704701460020044A92680A4200D0012064
:1019E0007047014988727047001002400000FFF8FC
:1019F000FFFFF6FE000042428004424200127A00DD
:101A00000C00002000093D0010B5FE4988420AD1B3
:101A1000C41401212046FFF7B6FF2046BDE8104060
:101A20000021FFF7B0BFB0F1804F0CD0F6498842DB
:101A300013D101210220FFF7B1FF0021BDE81040C2
:101A40000220FFF7ABBF01210846FFF7A7FF0021E7
:101A5000BDE810400120FFF7A1BFEC49884209D141
:101A600001210420FFF79AFF0021BDE81040042067
:101A7000FFF794BFE649884209D101210820FFF70A
:101A80008DFF0021BDE810400820FFF787BFE14926
:101A9000884209D101211020FFF780FF0021BDE815
:101AA00010401020FFF77ABFDB49884209D101219D
:101AB0002020FFF773FF0021BDE810402020FFF732
:101AC0006DBFD64988420AD1441401212046FFF750
:101AD0005AFF2046BDE810400021FFF754BFD0490F
:101AE00088420AD10121CC042046FFF74CFF204652
:101AF000BDE810400021FFF746BFCA4988420AD11D
:101B000001210C052046FFF73EFF2046BDE81040AE
:101B10000021FFF738BFC44988420AD101214C0592
:101B20002046FFF730FF2046BDE810400021FFF7B8
:101B30002ABFBE49884209D101214020FFF72EFF6C
:101B40000021BDE810404020FFF728BFB849884277
:101B500009D101218020FFF721FF0021BDE81040BD
:101B60008020FFF71BBFB34988420AD184150121A9
:101B70002046FFF713FF2046BDE810400021FFF785
:101B80000DBFAD4988420AD101210C042046FFF760
:101B9000FAFE2046BDE810400021FFF7F4BEA74939
:101BA00088420AD101214C042046FFF7ECFE204672
:101BB000BDE810400021FFF7E6BEA14988420AD1E6
:101BC00001218C042046FFF7DEFE2046BDE81040D0
:101BD0000021FFF7D8BE10BD30B50288894C8F4D6B
:101BE000A0420DD0A8420BD0B0F1804F08D0864B58
:101BF000984205D0854B984202D0854B984203D13C
:101C000022F070034A881A43824B984206D0824BD6
:101C1000984203D022F44073CA881A4302808A880B
:101C200082850A880285A0420AD0A84208D0824A4A
:101C3000904205D0814A904202D0814A904201D11F
:101C4000097A01860121818230BD30B5028C22F0F3
:101C500001020284028C8388048B24F0700424F037
:101C600003050C882C4322F002020D8915434A8893
:101C70002A43644DA8420BD0684DA84208D06E4D4F
:101C8000A84205D06D4DA84202D06D4DA8420FD19B
:101C900022F008054A892A4322F004058A882A434B
:101CA00023F4807323F400738D891D43CB892B4368
:101CB00083800483C9888186028430BD70B5028C1C
:101CC00022F010020284028C8388048B24F4E04406
:101CD00024F440760D884FF6FF7404EA0525354359
:101CE00022F020020E8904EA061616434A8804EA06
:101CF00002123243434EB04202D0484EB04217D196
:101D000022F080024E8904EA0616164326F04006A9
:101D10008A8804EA0212324323F4806323F40063C6
:101D20008E8904EA86061E43CB8904EA8303334383
:101D300083800583C9880187028470BD70B5028CD9
:101D400022F480720284028C8388848B24F07004D5
:101D500024F003040D88254322F400720E894FF607
:101D6000FF7404EA062616434A8804EA0222324334
:101D7000244EB04202D0294EB04217D122F4006660
:101D80004A8904EA0222324322F480668A8804EAFD
:101D90000222324323F4805323F400538E8904EA51
:101DA00006161E43CB8904EA0313334383808583DD
:101DB000C9888187028470BD70B5028C22F480527C
:101DC0000284058C8288838B23F4E04323F44076DD
:101DD0000C884FF6FF7303EA0424344325F40055BE
:101DE0000E8903EA06362E434D8803EA053535434E
:101DF000044EB04202D0094EB04226D122F48046B1
:101E00008A891FE0002C01400004004000080040C7
:101E1000000C00400010004000140040003401405D
:101E2000004C0140005001400054014000180040A7
:101E3000001C0040002000400040014000440140E0
:101E40000048014003EA8212324382808483C988B9
:101E5000A0F84010058470BD828B22F4406282831A
:101E6000828B4FF6FF7303EA01210A438283704796
:101E7000F0B5048C24F480540484868B048C4FF6D3
:101E8000FF7505EA013726F4734605EA022232435C
:101E900005EA03331343F74A90420ED0F64A9042C4
:101EA0000BD0B0F1804F08D0F44A904205D0F44AEC
:101EB000904202D0F34A904205D124F400513943B4
:101EC00041F4805104E024F402420A4342F4805178
:101ED00083830184F0BD828B22F00C028283828B8B
:101EE0000A4382837047F0B5048C24F48074048420
:101EF000858B048C4FF6FF7707EA012625F0F30562
:101F000007EA031313432B43DA4A90420ED0DA4A0E
:101F100090420BD0B0F1804F08D0D84A904205D003
:101F2000D74A904202D0D74A904205D124F400719A
:101F3000314341F4807104E024F420620A4342F406
:101F4000807183830184F0BD028B22F4406202839E
:101F5000028B4FF6FF7303EA01210A4302837047A5
:101F6000F0B5048C24F010040484068B048C4FF626
:101F7000FF7505EA011726F4734605EA0333334378
:101F800005EA02221A43BB4B98420ED0BA4B984244
:101F90000BD0B0F1804F08D0B84B984205D0B84B69
:101FA000984202D0B74B984205D124F02001394322
:101FB00041F0100104E024F0A0030B4343F01001B2
:101FC00002830184F0BD028B22F00C020283028B9B
:101FD0000A430283704770B5048C24F00104048422
:101FE000058B048C25F0F3054FF6FF7606EA031304
:101FF00013432B439F4A90420ED09F4A90420BD0EE
:10200000B0F1804F08D09D4A904205D09C4A904242
:1020100002D09C4A904205D124F002020A4342F0C9
:10202000010104E024F00A020A4342F001010383A3
:10203000018470BD70B505460C468E48854209D0B6
:102040008D48854206D0B5F1804F03D08B4885423C
:1020500000D08B4820886188A288238958B1042841
:1020600011D0082817D02846FFF702FFE18828463C
:10207000BDE87040F0E62846FFF7ADFFE18828464E
:10208000BDE870409FE72846FFF76AFFE1882846D1
:10209000BDE8704058E72846FFF725FFE18828464D
:1020A000BDE8704017E72DE9F04107460C460025D2
:1020B00001266188002900D10225A288012A00D1C9
:1020C00002262088238988B13846FFF749FFE18836
:1020D0003846FFF739FF2389324629463846FFF74D
:1020E0007AFFE1883846BDE8F0416CE73846FFF7F3
:1020F00072FFE1883846FFF766FF2389324629469A
:102100003846FFF72DFFE1883846BDE8F0411BE770
:1021100010B50A884B88CC881A438B8823431A430E
:102120000B891A434B8989891A430A43A0F8442032
:1021300010BD4FF6FF71818000210180C180418078
:10214000017270470021018041808180C18001813E
:1021500041818181C181704700210180418001223C
:102160008280C1800181704700210180418081808F
:10217000C1800181418181817047002904D001889B
:1021800041F0010101807047018821F001010180C7
:102190007047002905D030F8441F41F40041018008
:1021A000704730F8441FC1F30E0101807047002AC8
:1021B00003D082890A438281704782898A4382815F
:1021C0007047818270471143A0F848107047002A79
:1021D00003D082890A438281704782898A4382813F
:1021E0007047018921F0070101817047028922F0BF
:1021F00070020A430281704700B503461846FFF794
:10220000F5FF188940F00700188100BD70B50D4634
:1022100004461146602D0CD001222046FFF7DBFE5C
:1022200029462046FFF7E2FF208940F00700208181
:1022300070BD01222046FFF793FEF1E730B5048917
:10224000E4B24FF6FF7505EA032313430B43234320
:10225000038130BD10B504462046FFF7EFFF20890B
:1022600020F0070040F0070020F0700040F0700000
:10227000208110BD002C01400034014000040040CA
:1022800000080040000C004010B504462046FFF74F
:10229000D5FF208940F480402081EAE701858282D1
:1022A0007047028822F070020A430280704770B5BE
:1022B0000589048B068C25F007050D434FF6FC417C
:1022C0000C4040F201110C4326F022064FF6FF713C
:1022D00001EA03111143314305810483018470BD78
:1022E000028B22F070020A4302837047028B22F4B1
:1022F000E0424FF6FF7303EA012111430183704767
:10230000828B22F070020A4382837047828B22F410
:10231000E0424FF6FF7303EA0121114381837047C6
:10232000002904D0018841F08001018070470188B4
:1023300021F0800101807047002904D0818841F09C
:10234000040181807047818821F0040181807047F9
:10235000002904D0818841F008018180704781887C
:1023600021F0080181807047002904D0818841F064
:10237000010181807047818821F0010181807047CF
:10238000028B22F008020A4302837047028B22F478
:1023900000624FF6FF7303EA012111430183704786
:1023A000828B22F008020A4382837047828B22F4D8
:1023B00000624FF6FF7303EA0121114381837047E6
:1023C000028B22F004020A4302837047028B22F43C
:1023D00080624FF6FF7303EA0121114301837047C6
:1023E000828B22F004020A4382837047828B22F49C
:1023F00080624FF6FF7303EA012111438183704726
:10240000028B22F080020A4302837047028BC2F3E0
:102410000E024FF6FF7303EA012111430183704757
:10242000828B22F080020A4382837047828BC2F340
:102430000E024FF6FF7303EA0121114381837047B7
:10244000028C22F002020A4302847047028C22F0BE
:1024500008020A4302847047028C22F020024FF6E1
:10246000FF7303EA0111114301847047028C22F0CB
:1024700080024FF6FF7303EA011111430184704794
:10248000028C22F400724FF6FF7303EA012111431C
:1024900001847047028C22F400624FF6FF7303EA56
:1024A0000121114301847047028C22F400524FF63F
:1024B000FF7303EA013111430184704710B5012312
:1024C0008B40048C9C430484038C8A401343038414
:1024D000CFE610B504238B40048C9C430484038C0A
:1024E0008A4013430384C4E630B500F11803012485
:1024F0008C40058CA5430584002911D008290FD0F4
:10250000091FC1F34E001844016821F4E041016045
:1025100001684FF6FF7303EA02221143016030BDE8
:1025200003EB5100016821F0700101600168114363
:10253000016030BD002904D0018841F00201018012
:102540007047018821F0020101807047002904D002
:10255000018841F0040101807047018821F00401E5
:1025600001807047002904D0818841F0800181807A
:102570007047818821F0800181807047028822F0B5
:102580000802028002880A4302807047828822F093
:102590007002828082880A4382807047028922F01A
:1025A0000702028102890A4302817047028922F0F0
:1025B0008002028102890A43028170478184704748
:1025C0008185704781867047018770478187704792
:1025D000A0F840107047028822F4407202800288FE
:1025E0000A4302807047808E7047008F7047808F4B
:1025F0007047B0F840007047808C7047008D70477E
:1026000002460020128A0A4200D001207047C943C6
:102610000182704702460020138A0B4092890A40CB
:10262000002B02D0002A00D001207047C94301824C
:102630007047000010B5E14988420AD101218C039E
:102640002046FFF7A0F92046BDE810400021FFF723
:102650009AB9DB4988420AD101214C042046FFF790
:102660009DF92046BDE810400021FFF797B9D549F4
:1026700088420AD101218C042046FFF78FF92046B9
:10268000BDE810400021FFF789B9CF4988420AD13F
:102690000121CC042046FFF781F92046BDE8104017
:1026A0000021FFF77BB9C94988420AD101210C05F5
:1026B0002046FFF773F92046BDE810400021FFF7E0
:1026C0006DB910BD30B585B004460D46208A4CF674
:1026D000FF710840E98801432182A0894EF6F31179
:1026E0000840A9882A8911436A8902431143A181BC
:1026F000A08A4FF6FF410840A9890143A18268469C
:10270000FFF7D3F8AD48844201D1039800E0029866
:10271000A189090408D500EBC00101EB001029686C
:102720004900B0FBF1F007E000EBC00101EB001045
:1027300029688900B0FBF1F06422B0FBF2F10901D5
:102740000B096FF018056B4300EB8300A3891D0490
:102750004FF0320307D503EBC000B0FBF2F000F0FE
:102760000700084306E003EB0010B0FBF2F000F0B6
:102770000F000843208105B030BD4FF416510160B1
:1027800000218180C18001810C22428181817047BA
:1027900010B5038A4FF2FF0213400A884C88224387
:1027A0008C88C9880C4322431A43028210BD002141
:1027B000018041808180C1807047002904D08189D7
:1027C00041F4005181817047818921F40051818158
:1027D000704710B540F66A13C1F3421301F01F04AD
:1027E0000121A140012B07D0022B07D014303AB1B0
:1027F00002680A43026010BD0C30F8E71030F6E7BB
:1028000002688A43026010BD002A03D0828A0A430C
:1028100082827047828A8A4382827047028A22F0CB
:102820000F020282028A0A4302827047828922F4DE
:102830000062828182890A4382817047002904D024
:10284000818941F0020181817047818921F0020173
:1028500081817047028A22F020020282028A0A43A2
:1028600002827047002904D0018A41F4804101822C
:102870007047018A21F4804101827047C1F3080149
:10288000818070478088C0F308007047818941F0DB
:10289000010181817047028BD2B20283028B42EA2E
:1028A000012101837047028B02F47F420283028B75
:1028B0000A4302837047002904D0818A41F0200135
:1028C00081827047818A21F020018182704700292E
:1028D00004D0818A41F0100181827047818A21F001
:1028E000100181827047002904D0818A41F00801DB
:1028F00081827047818A21F0080181827047002916
:1029000004D0818941F40041818170478189C1F3FC
:102910000E0181817047002904D0818A41F4006151
:1029200081827047818A21F4006181827047828AA6
:1029300022F004028282828A0A438282704700293E
:1029400004D0818A41F0020181827047818A21F09E
:102950000201818270470246002012880A4200D09C
:10296000012070478A05C9430180704770B5002473
:1029700040F66A12C1F3421301F01F05012606FA60
:1029800005F2012B0CD0022B0DD0838A1340090ACB
:102990008E40008830400BB100B10124204670BD4C
:1029A00083891340F3E7038A1340F0E740F66A1285
:1029B0000A0A01219140C943018070470038014053
:1029C0000044004000480040004C004000500040DF
:1029D0000CB50022019200925248016841F4803106
:1029E00001604FF4A063016801F400310091019986
:1029F000491C0191009911B901999942F3D10168DB
:102A0000890302D50121009100E00092009901297B
:102A100030D145490A6842F010020A600A6822F083
:102A200003020A600A6842F002020A6041684160DB
:102A300041684160416841F480614160416821F42E
:102A40007C114160416841F4E8114160016841F046
:102A50008071016001688901FCD5416821F00301A2
:102A60004160416841F0020141604168C1F3810168
:102A70000229FAD10CBDABE710B52A48016841F034
:102A8000010101604168294A114041600168284AFA
:102A900011400160016821F480210160416821F446
:102AA000FE0141604FF41F018160FFF7E4FF2149FF
:102AB0004FF00060086010BD10B51A4A506800F071
:102AC0000C011D4B1D4800290ED004290ED00829E9
:102AD0000ED003605168194AC1F30311121D515CF5
:102AE0000268CA40026010BD0360F3E70360F1E7CB
:102AF000516801F47011536803F48033022404EB2D
:102B0000914133B153689B0307D50D4B5943016085
:102B1000E0E70B4B59430160DCE7074B5943016089
:102B2000D8E7000000100240002002400000FFF83B
:102B3000FFFFF6FE08ED00E000127A001C00002006
:102B400000093D0030B50B4601460020202201243B
:102B500009E021FA02F59D4205D303FA02F5491B6B
:102B600004FA02F52844151EA2F10102F1DC30BD81
:102B7000064C074D06E0E06840F0010394E80700CA
:102B800098471034AC42F6D3FDF7D6FA7C2D0008F6
:102B90009C2D00080FB4054B10B503A9044A0298F8
:102BA00000F018F810BC5DF814FB0000E304000806
:102BB0003000002002E008C8121F08C1002AFAD124
:102BC00070477047002001E001C1121F002AFBD1AD
:102BD000704700002DE9FF4F89B09B460446002551
:102BE00006E025280BD05A460B999047641C6D1CB3
:102BF00020780028F5D10DB02846BDE8F08F0027D9
:102C0000B8460122474900E0074314F8013F203B42
:102C100002FA03F00842F7D120782E2819D114F8CF
:102C2000010F47F004072A280ED06FF02F022078FA
:102C3000A0F1300109290CD808EB880102EB410111
:102C400000EB0108641CF2E70A98641C50F8048B3E
:102C50000A9020780028CED0642808D0692806D0B1
:102C600075281ED05A460B9990476D1C58E00A995A
:102C70004FF00A0901C90A91002802DA40422D21C9
:102C800002E0390504D52B218DF82010012103E045
:102C9000F90704D02021F7E78A4608AE0DE00021AD
:102CA000FAE70A994FF00A0901C90A91F7E749467C
:102CB000FFF748FF303106F8011D0028F7D1ADEBD2
:102CC000060000F12009780701D44FF00108C8453B
:102CD00002DDA8EB090000E000208046002706E0A6
:102CE00008A85A46C05D0B9990476D1C7F1C57453C
:102CF000F6DB04E030205A460B9990476D1CB8F182
:102D00000001A8F10108F5DC05E016F8010B5A46B0
:102D10000B9990476D1CB9F10001A9F10109F4DC90
:102D2000641C65E7092801001A09A6093C0AD20AB1
:102D3000680B900B260CBC0CEE0C840D1A0EB00E1A
:102D4000460F00007306CA0639079D070C082508C0
:102D50009508F80811098109F109540AC40A00000C
:102D6000EA105410C80F3C0FBA0E920E1A0EAC0D9A
:102D7000840D160DB20C580CF40B00009C2D0008AD
:102D80000000002034000000B42B0008D02D000803
:102D900034000020A4040000C42B00080000000040
:102DA0000000000002040608000000000102030405
:102DB000010203040607080900A24A0400000000FB
:102DC00000000000010203040607080900000000DB
:0400000508000131BD
:00000001FF
