:020000040800F2
:1000000060080020D90F0008250600082706000810
:100010002B0600082F060008330600080000000029
:10002000000000000000000000000000370600088B
:1000300039060008000000003B0600083D060008E5
:10004000F30F0008F30F0008F30F0008F30F000888
:10005000F30F0008F30F0008F30F0008F30F000878
:10006000F30F0008F30F0008F30F0008F30F000868
:10007000F30F0008F30F0008F30F0008F30F000858
:10008000F30F0008F30F0008F30F0008F30F000848
:10009000F30F0008F30F0008F30F0008F30F000838
:1000A000F30F0008F30F0008F30F0008F30F000828
:1000B000DB0C00082B0A0008F30F0008F30F000800
:1000C000F30F0008F30F0008F30F0008F30F000808
:1000D000F30F00084D0F0008F30F0008F30F00089E
:1000E000F30F0008F30F0008F30F0008F30F0008E8
:1000F000F30F0008F30F0008F30F0008F30F0008D8
:10010000F30F0008F30F0008F30F0008F30F0008C7
:10011000F30F0008F30F0008F30F0008F30F0008B7
:10012000F30F0008F30F0008F30F0008F30F0008A7
:1001300000F002F800F04AF80AA090E8000C8244AF
:100140008344AAF10107DA4501D100F03FF8AFF28C
:10015000090EBAE80F0013F0010F18BFFB1A43F0A5
:1001600001031847D4470000F4470000103A24BFA9
:1001700078C878C1FAD8520724BF30C830C144BF0C
:1001800004680C607047000000230024002500264E
:10019000103A28BF78C1FBD8520728BF30C148BFEA
:1001A0000B607047662904F05183642903F048818D
:1001B000002070471FB503F085FC040000200021DB
:1001C00004F0DCF9E0601FBD10B510BD03F092FD36
:1001D0001146FFF7EFFF00F0C3F903F0B0FD03B4E1
:1001E000FFF7F2FF03BC00F053FE000070B50446B9
:1001F0000D46F949204603F0E6F92946F7A003F039
:1002000013F970BD2DE9F04105460C46F249284628
:1002100003F0D9F9204604F0CDF9064632460B46E4
:10022000F0A003F001F9BDE8F0812DE9F0470023CB
:1002300000250026002798460022DFF8B0C39CF86E
:1002400000C0BCF1130F7CDB002025E000F1010CA5
:100250000CF0FF011AE0DFF898C33CF810C0DFF89B
:10026000909339F81190CC450CDDDFF884C33CF84D
:1002700010403CF811C0DFF8789329F810C0CC4644
:100280002CF8114001F1010C0CF0FF011429E2DB04
:1002900000F1010C0CF0FF001428D7DB4FF0000C2C
:1002A0006346654605200AE0DFF844C33CF810C009
:1002B000AC441FFA8CF500F1010C0CF0FF000F2884
:1002C000F2DB4FF00A0C95FBFCFC1FFA8CF70026C2
:1002D00005201EE0DFF8189339F81090A9EB070C01
:1002E000BCF1000F01DBE14601E0CCF10009B9F1FE
:1002F000020F0ADADFF8F8C23CF810C0B4441FFA63
:100300008CF603F1010C0CF0FF0300F1010C0CF072
:10031000FF000F28DEDB002B04DD96FBF3FC1FFA49
:100320008CF803E0DFF8C8C2BCF80A8007EB080CC1
:100330000CEBDC79C9F34F0240F2736C624548DB89
:1003400000E04CE040F6C42C624542DC00203EE078
:10035000DFF8A0C23CF810C0944534DCDFF894927A
:1003600000F1010C39F81CC094452CDB00F1010CA4
:1003700039F81CC039F81090ACEB0909DFF874C2E9
:100380003CF810C0A2EB0C0C4FF0640A0CFB0AFC0A
:100390009CFBF9FCDFF860A200F101093AF8199022
:1003A0003AF810A0A9EB0A090CFB09FC4FF064090C
:1003B0009CFBF9FCDFF8409239F81090CC44DFF850
:1003C0003C92A9F800C000F1010C0CF0FF000C28D1
:1003D000BEDB00229446DFF8149289F800C0BDE825
:1003E000F08770B581480078132805DA02220121D0
:1003F000084600F0A9FA70BDFFF717FF7F48008894
:1004000040F61A11884244DB7C48008840F6467169
:1004100088423EDC002439E0774830F81400774900
:100420000988884230DC7449601C31F81000734937
:100430000988884228DB7049601C31F8100031F8C7
:100440001410411A6C4830F814006C4A1288101AC3
:100450006422504390FBF1F0694A611C32F811109C
:1004600032F81420891A4843642190FBF1F0644962
:1004700031F81410081A6349634A127821F81200FF
:1004800000205E49088003E0601CC4B20C2CC3DB72
:1004900000BF5C495C4A127831F8120004F078F928
:1004A0005A4908600025002405E0564830F8140039
:1004B0000544601CC4B2322CF7DB4FF4FA70B5FB74
:1004C000F0F05349086050480078401C4E490870CD
:1004D00008460078312801DD0020087000BF8AE757
:1004E00010B501F0DDF94FF4803001F0F9F901F0B9
:1004F00036FA0446012C25D1002001F076FA4FF49B
:10050000A06001F084FAA00201F078FA022002F063
:10051000ABFC102002F0BCFC4FF4A011200401F051
:1005200047FA012001F050FA00BF392001F0FBF931
:100530000028FAD0022001F04AFA00BF01F050FA78
:100540000828FBD10121032001F00BFB012144F21B
:100550003D6001F013FB01212E4801F01CFB10BD92
:1005600000F026FC00F08EFCFFF7BAFF00F058F90F
:1005700000F0A2F94FF4E13000F099FC372140F28D
:10058000CF7000F019FA00F044FB0121022001F0C5
:1005900002FB0121880702F089F91BE01E48007860
:1005A000012812D11D48008801B24220FFF71EFE2B
:1005B0001B491648006804F029F8044621465420D7
:1005C000FFF720FE0020144908705A2000F02DFC8F
:1005D000FFF707FFE2E700005400002025640D0A42
:1005E00000000000252E32660D0A000004000020E5
:1005F000700000206C4800085048000806000020E9
:1006000088480008AC000020080000200C000020F2
:100610000000002003001E383100002024000020CC
:100620000000C842704700BFFEE700BFFEE700BF02
:10063000FEE700BFFEE77047704770477047000055
:100640000CB50020019000906C48006840F48030A8
:100650006A49086000BF6948006800F400300090F3
:100660000198401C0190009818B90198B0F5A06F4E
:10067000F1D16248006800F4003010B10120009010
:1006800001E0002000900098012843D15C480068F8
:1006900040F010005A4908600846006820F0030046
:1006A00008600846006840F002000860534840684F
:1006B000524948600846406848600846406840F42F
:1006C000806048600846406820F47C104860084616
:1006D000406840F4E81048600846006840F08070C8
:1006E000086000BF4548006800F000700028F9D09D
:1006F0004248406820F0030040494860084640688E
:1007000040F00200486000BF3C48406800F00C0028
:100710000828F9D10CBD10B5FFF792FF10BD10B538
:100720003648006840F001003449086008464068D7
:100730003449084031494860084600683249084059
:100740002E4908600846006820F4802008600846AA
:10075000406820F4FE0048604FF41F008860FFF7F7
:10076000DAFF4FF000602949086010BD10B5002184
:1007700000200022214B5B6803F00C0121B1042909
:1007800006D0082928D107E0214B224C236027E01E
:100790001F4B204C236023E0184B5B6803F4701060
:1007A000164B5B6803F48032022303EB904022B9BE
:1007B000194B4343174C23600DE0104B5B6803F467
:1007C000003323B1144B4343124C236003E0104B1E
:1007D0004343104C236003E00D4B0E4C236000BFDD
:1007E00000BF064B5B68C3F303130C4CE15C094B81
:1007F0001B68CB40074C236010BD00000010024076
:10080000002002400000FFF8FFFFF6FE08ED00E0C8
:1008100000127A001000002000093D0014000020A2
:1008200000B587B001214FF4017001F0A7F94FF432
:10083000004001F007F90120ADF8040000208DF818
:10084000070001A9574800F0DDFE574800F052FCB0
:10085000002002908DF80C008DF80D004FF4002060
:1008600004900020059001208DF8180002A94E4840
:1008700000F067FC01214C4800F057FD07230122DE
:100880000021494800F0F5FC0121474800F085FCB3
:10089000454800F0A4FC00BF434800F0A5FC002838
:1008A000FAD1414800F0AAFC00BF3F4800F0ABFC81
:1008B0000028FAD107B000BD00B587B00020029033
:1008C0008DF80C008DF80D004FF46020049000208E
:1008D000059001208DF8180002A9344800F031FC81
:1008E0004FF4404001F0AEF80121880201F046F9D2
:1008F0000220ADF8040000208DF8070001A9294866
:1009000000F080FE062301221146284800F0B1FCC9
:100910000121264800F041FC244800F060FC00BFA3
:10092000224800F061FC0028FAD1204800F066FC63
:1009300000BF1E4800F067FC0028FAD101211B48C7
:1009400000F06BFC07B000BD2DE9F04107460C46F6
:1009500090460026062301221146144800F089FC27
:100960000121124800F059FC002515E000BF0221CA
:100970000E4800F0C3FD0028F9D00C4800F0E0FC60
:100980000B490C4A127821F812000A480078401CE2
:1009900008490870681CC5B2A542E7DBB0B2BDE8E3
:1009A000F0810000000801400024014000280140BF
:1009B00070000020040000207FB505460C46012190
:1009C000022001F0E8F8ADF80850ADF8044000202E
:1009D000ADF80A00ADF8060001A9E44801F00AFCF0
:1009E0002021E24802F0DBF90121E04802F024FA7C
:1009F00001221146DD4801F074FF0121DB4801F0BE
:100A000055FF1D208DF8000000208DF80100032007
:100A10008DF8020001208DF80300684600F001FB0C
:100A20000021022001F0B7F87FBD2DE9F04100263A
:100A30000121CE4802F003FA00287DD0CC4800F016
:100A40007FFC0746C01707EB90708010C94908600B
:100A5000C9480068801CC849086008460088C74922
:100A60000988401A85B2C3480068C54909688842A8
:100A700012DAC4480068052190FBF1F000EB400059
:100A8000A84209DABB480068BF490968884203DA0E
:100A9000B8480068BC490860B6480068B8490968A9
:100AA000884209DDB3480068B8490968884203DD17
:100AB000B0480068B5490860FA2D67DDAD480068A8
:100AC000AF490968884261DDB148007800285DD1EE
:100AD000AC480068052190FBF1F000EB4000A84213
:100AE00054DA0120AA4908700020AA490860A248E7
:100AF0000068A2490968401AA24908609E48006837
:100B00009E490860A448007868B10020A249087096
:100B1000002406E09B480068A04941F82400601CBE
:100B2000C4B2092CF6DD9E48007848B100209C49EB
:100B300008700120984900E065E00870BDE8F08188
:100B400000240CE09549601C51F8200041F8240075
:100B5000084630F82400304486B2601CC4B2082C29
:100B6000F0DD884800688D4948620846808C304432
:100B700086B20A2096FBF0F086B24EF6602090FB1B
:100B8000F6F08849086001208749087079480068B4
:100B90007B490968884220DA7D48007801281CD109
:100BA0007C49086000207A490870784800687649D6
:100BB0000968401A7D490860086800EBD071724AE4
:100BC000126802EB61016E4A1160104600686F49BD
:100BD0000860104600686C49086040F6C410854201
:100BE00011DD4FF400706649086068490860664985
:100BF0000860614800686149086001206849087020
:100C00000020654908700121584802F029F900BF09
:100C100094E700B589B04FF4E06000F0FDF91C20C6
:100C20008DF8040000208DF8050003208DF80600E3
:100C300001208DF8070001A800F0F3F94FF6FF70CE
:100C4000ADF81C000020ADF81800ADF81E00ADF89E
:100C50001A0006A94FF0804001F0CCFA012241F2BF
:100C6000DF51900701F0C9FE0020ADF80800012017
:100C7000ADF80A000020ADF810006420ADF80E00B9
:100C800002A9000701F0F3FA42F21070ADF80E006D
:100C900002A9800601F02DFB2820ADF80E0002A964
:100CA000C00601F073FB00214FF0804001F02EFFE1
:100CB00000214FF0804001F032FF00214FF08040D2
:100CC00001F03AFF0121880702F0B6F801220E2157
:100CD000900701F006FE09B000BD08B500200090A5
:100CE0000221480702F0ABF888B14FF0804002F0D3
:100CF00087F80090BDF80000643081B24FF080406A
:100D000002F06CF80221480702F0AAF82DE0042155
:100D1000080702F094F890B14FF0804002F073F8A9
:100D20000090BDF8000042F21072104481B29006AB
:100D300002F056F80421080702F092F815E00821A5
:100D4000C80602F07CF880B14FF0804002F05EF8F7
:100D50000090BDF80000283081B24FF0804002F0D2
:100D600041F80821C80602F07BF808BD00040040E5
:100D7000002401402800002034000020380000201A
:100D8000440000202C000020400000203C000020F7
:100D900030000020948121424D00002010010020ED
:100DA0004C000020240000203100002048000020DA
:100DB00010B56FF0040000F07EF92E4800682E494F
:100DC000B0FBF1F02D4908700846007800EB4001B7
:100DD000C1EBC0104FF6FF7101EAC000284908803E
:100DE00010BD0146254A12784A434FF0E0235A616C
:100DF00000229A611A46126942F001021A6100BF8C
:100E00004FF0E022106900F001021AB100F48032C4
:100E1000002AF5D04FF0E022126922F001024FF0D3
:100E2000E0231A6100229A6170470146144A128831
:100E30004A434FF0E0235A6100229A611A46126930
:100E400042F001021A6100BF4FF0E022106900F089
:100E500001021AB100F48032002AF5D04FF0E022EE
:100E6000126922F001024FF0E0231A6100229A6118
:100E7000704700001000002000127A004E00002091
:100E80005000002010B54FF4A06000F0C5F810BD70
:100E9000014600BF704700BF4B4A128802F0400273
:100EA000002AF9D0C2B2484B1B1D1A80704710B5FA
:100EB00086B00446012144F2040000F05FFE42487F
:100EC00000F0C0FE4FF40070ADF8140003208DF860
:100ED000160018208DF8170005A93C4800F092FB79
:100EE0004FF48060ADF8140004208DF8170005A9B8
:100EF000364800F087FB25208DF8000003208DF890
:100F000001008DF8020001208DF80300684600F012
:100F100088F801940020ADF80800ADF80A00ADF89B
:100F20000C00ADF810000C20ADF80E0001A9264809
:100F300000F0CBFE012240F22551234800F05DFF76
:100F40000121214800F04DFF06B010BD10B540F260
:100F500025511D4801F036F810B31B4800F0B2FFD0
:100F6000C4B21B48008800F40040C8B91848008883
:100F700000F4804060B10A2C03D00020144908809E
:100F800020E01348008840F400401149088019E02F
:100F90000D2C06D10E48008840F480400C49088092
:100FA00010E00B480088C0F30D000A490C540848B3
:100FB0000088401C0649088008460088C72801DDD3
:100FC0000020088010BD00000038014000080140EA
:100FD0005800002038010020094880470948004790
:100FE000FEE7FEE7FEE7FEE7FEE7FEE7FEE7FEE7D9
:100FF000FEE7FEE704480549054A064B7047000036
:101000001F0700083101000860020020600800206E
:10101000600400206004002031490143314A11601E
:10102000704770B5002100230F22C47804B32D4C03
:10103000246804F4E064C4F5E064210AC1F1040307
:10104000CA40447804FA03F184781440214309012A
:10105000254C0678A155047804F01F050124AC4006
:1010600005786D11AD0005F1E025C5F8004109E0F6
:10107000047804F01F050124AC401C4D067876115D
:1010800045F8264070BD1A4A0A400243154B1B1F03
:101090001A60704739B1134A121D12680243114B8E
:1010A0001B1D1A6006E00F4A121D126882430D4B89
:1010B0001B1D1A607047042808D14FF0E021096910
:1010C00041F004014FF0E022116107E04FF0E02110
:1010D000096921F004014FF0E0221161704700001E
:1010E0000000FA050CED00E000E400E080E100E023
:1010F00080FFFF1F10B50446FA48844208D1012141
:10110000401500F055FD0021601500F051FD17E07D
:10111000F548844208D10121001500F049FD002165
:10112000201500F045FD0BE0F048844208D1012174
:10113000C80300F03DFD00214FF4004000F038FDF1
:1011400010BD30B50246002000235068E84C204016
:101150000D790C6844EA0524204350609068E54C02
:101160002040D1E902542C434D7944EA4504204300
:101170009060D06A20F470000C7C641EE4B22343BB
:1011800040EA0350D06230BD00210160017141711D
:101190008160C16001210174704721B1826842F011
:1011A0000102826003E0826822F0010282607047DF
:1011B00021B1826842F48072826003E0826822F486
:1011C00080728260704710B50023CBB21AB14468B8
:1011D0001C43446002E044689C43446010BD816845
:1011E00041F0080181607047014600208A6802F0E2
:1011F00008020AB1012000E000207047816841F038
:10120000040181607047014600208A6802F00402F0
:101210000AB1012000E00020704721B1826842F449
:10122000A002826003E0826822F4A002826070471C
:10123000014600208A6802F480020AB1012000E021
:101240000020704710B50A4600210023416821F4B0
:101250006041531E41EA4331416010BD21B14268F3
:1012600042F40062426003E0426822F4006242609D
:101270007047F0B504460D4600200021092D11DD10
:10128000E068A5F10A0606EB4607072606FA07F10D
:101290008843A5F10A0606EB460603FA06F1084361
:1012A000E0600CE0206905EB4507072606FA07F128
:1012B000884305EB450603FA06F108432061072A37
:1012C0000FDA606B561E06EB86071F2606FA07F13B
:1012D0008843561E06EB860605FA06F1084360634E
:1012E00022E00D2A0FDA206BD61F06EB86071F2699
:1012F00006FA07F18843D61F06EB860605FA06F1C3
:101300000843206310E0E06AA2F10D0606EB8607B1
:101310001F2606FA07F18843A2F10D0606EB8606A2
:1013200005FA06F10843E062F0BD21B1826842F49B
:101330008012826003E0826822F48012826070472B
:101340000146C86C80B2704766484C3000687047F0
:1013500021B1426842F48062426003E0426822F4B4
:1013600080624260704721B1426842F4805242601C
:1013700003E0426822F48052426070470A4600212E
:10138000816821F4E04111438160704721B1826896
:1013900042F40042826003E0826822F400428260EC
:1013A000704721B1826842F40212826003E08268D1
:1013B00022F4021282607047014600208A6802F41B
:1013C00000120AB1012000E000207047F0B5044689
:1013D0001546002000220026092911DDE068A1F150
:1013E0000A0707EB470C072707FA0CF29043A1F115
:1013F0000A0707EB470703FA07F21043E0600CE027
:10140000206901EB410C072707FA0CF2904301EB2E
:10141000410703FA07F210432061A06BC0F30156A5
:10142000EF1C06F1010CA7EB0C0707EB870C1F273D
:1014300007FA0CF29043EF1C06F1010CA7EB0C0726
:1014400007EB870701FA07F21043A063F0BD10B560
:101450000A4600210023816B21F44011531E41EA0A
:101460000351816310BD08B5002300930090009BD9
:101470000B440093009B1A6008BD08B5024600208B
:101480000090009201F12800009B18440090009801
:10149000006880B208BD0A4600214168164B194019
:1014A0001143416070474162826270470A460021E1
:1014B000416821F01F0111434160704740B1094963
:1014C0000831096841F40001064A0832116007E05A
:1014D00004490831096821F40001024A0832116008
:1014E000704700000024014000280140003C0140FA
:1014F000FFFEF0FFFDF7F1FFFFFD3FFF024600207A
:1015000013680B400BB1012000E000207047CA4374
:101510000260704770B502460020002300240B12C1
:101520005568CEB205EA060415681D4015B10CB128
:10153000012000E0002070BD00220A12D3430360A6
:101540007047000010B50446CC48844208D1012100
:10155000042000F02DFB0021042000F029FB46E0D0
:10156000C748844208D10121082000F021FB002156
:10157000082000F01DFB3AE0C248844208D1012156
:10158000102000F015FB0021102000F011FB2EE0D0
:10159000BD48844208D10121202000F009FB002130
:1015A000202000F005FB22E0B848844208D1012148
:1015B000402000F0FDFA0021402000F0F9FA16E08A
:1015C000B348844208D10121802000F0F1FA0021C3
:1015D000802000F0EDFA0AE0AE48844207D10121F4
:1015E000801500F0E5FA0021A01500F0E1FA10BD29
:1015F00010B50121084600F0DBFA0021012000F0BF
:10160000D7FA10BD2DE9F041024600250026002042
:1016100000230024002791F803C00CF00F0591F877
:1016200003C00CF0100CBCF1000F03D091F802C005
:101630004CEA050591F800C0BCF1000F31D01468E8
:1016400000202BE04FF0010C0CFA00F3B1F800C0C1
:101650000CEA03069E4220D183004FF00F0C0CFAD7
:1016600003F7BC4305FA03FC4CEA040491F803C0F9
:10167000BCF1280F06D14FF0010C0CFA00FCC2F8A7
:1016800014C00AE091F803C0BCF1480F05D14FF037
:10169000010C0CFA00FCC2F810C0401C0828D1D381
:1016A0001460B1F800C0BCF1FF0F34DD54680020B5
:1016B0002EE000F1080C4FF0010808FA0CF3B1F825
:1016C00000C00CEA03069E4221D183004FF00F0CAC
:1016D0000CFA03F7BC4305FA03FC4CEA040491F846
:1016E00003C0BCF1280F05D100F1080C08FA0CF872
:1016F000C2F8148091F803C0BCF1480F07D100F183
:10170000080C4FF0010808FA0CF8C2F81080401CD1
:101710000828CED35460BDE8F0814FF6FF710180F8
:10172000022181700421C170704702460020936835
:101730000B400BB1012000E0002070470146886893
:1017400080B2704702460020D3680B400BB10120E5
:1017500000E0002070470146C86880B27047016110
:101760007047416170470AB1016100E04161704713
:10177000C16070474FF480320A43826181618261A7
:1017800082698269704702460020434B18684FF611
:101790008073184040EA021008433F4B18607047BE
:1017A0003E49C8617047F0B50A4600230024002175
:1017B000002500F00046B6F1004F02D1364EF16927
:1017C00001E0354E7168C0F3034583B200F4401662
:1017D000B6F5401F08D121F070612F4E766826F0D3
:1017E00070662D4F7E6012E000F48016B6F5801F03
:1017F00006D1032606FA05F4A14341F0706106E024
:10180000460D360103FA06F6B14341F0706122B18C
:10181000460D360103FA06F6314300F00046B6F1F4
:10182000004F02D11C4EF16101E01B4E7160F0BD12
:1018300030B500228B071C0F0F2303FA04F2164B5E
:1018400008338C1053F824309343134C08348D1014
:1018500044F8253023468C1053F824308C07240F8D
:1018600000FA04F423430C4C08348D1044F825305E
:1018700030BD0A49DC3108607047000000080140B3
:10188000000C01400010014000140140001801400C
:10189000001C0140002001400000014000002042E7
:1018A000DF48006840F00100DD49086008464068F4
:1018B000DC490840DA49486008460068DA490840CF
:1018C000D74908600846006820F480200860084670
:1018D000406820F4FE0048604FF41F0088607047A5
:1018E000CF49096821F48031CD4A11601146096859
:1018F00021F480211160B0F5803F03D0B0F5802F36
:101900000ED106E0C649096841F48031C44A11602D
:1019100007E0C349096841F4A021C14A116000E011
:1019200000BF00BF704710B5014600220023002011
:101930004A11012A02D1BA4C236806E0022A02D1D8
:10194000B74C236A01E0B64C636A01F01F02012420
:1019500094401C400CB1012000E0002010BD38B5BF
:10196000002000900024002500BF3120FFF7DBFF9E
:1019700005460098401C00900098B0F5A06F01D07B
:10198000002DF2D03120FFF7CEFF08B1012400E096
:101990000024204638BD01460020A14A106820F0EE
:1019A000F80040EAC10010607047A0490860704725
:1019B000024600209A4B586820F47C1042EA01034A
:1019C0001843974B5860704798490866704701461E
:1019D0000020934A506820F003000843506070478D
:1019E0008F48406800F00C007047014600208C4A88
:1019F000506820F0F0000843506070470146002016
:101A0000874A506820F4E060084350607047014600
:101A10000020834A506820F4605040EAC1005060C2
:101A2000704729B17E4A527A02437D4B5A7204E0D4
:101A30007B4A527A82437A4B5A7270477B49D8313B
:101A40000860704701460020754A506820F4404005
:101A50000843506070470021714A20321170704A6B
:101A600082F82010012802D004280AD104E00121C4
:101A70006B4A2032117005E00521694A203211704D
:101A800000E000BF00BF70476949086070476449C3
:101A9000096A0143624A1162704765494439086026
:101AA000704730B500210022002400235C4D6D6892
:101AB00005F00C0121B1042905D0082923D105E046
:101AC0005C4D056022E05B4D05601FE0544D6D6884
:101AD00005F47012524D6D6805F48034022505EB53
:101AE00092421CB9544D554305600BE04C4D6D6856
:101AF00005F400351DB1504D5543056002E04D4DD4
:101B00005543056002E04B4D056000BF00BF444DEA
:101B10006D6805F0F0010909484D6B5C0568DD4012
:101B200045603F4D6D6805F4E061090A434D6B5C0B
:101B30004568DD4085603A4D6D6805F46051C90A1D
:101B40003E4D6B5C4568DD40C560354D6D6805F404
:101B50004041890B3A4D6B5CC568B5FBF3F50561F7
:101B600030BD29B12E4A526902432D4B5A6104E01F
:101B70002B4A526982432A4B5A61704729B1284A3D
:101B800092690243264B9A6104E0254A9269824396
:101B9000234B9A61704729B1214AD2690243204BF5
:101BA000DA6104E01E4AD26982431D4BDA61704754
:101BB00029B11B4AD2680243194BDA6004E0184A83
:101BC000D2688243164BDA60704729B1144A126911
:101BD0000243134B1A6104E0114A12698243104B0D
:101BE0001A61704712494039086070470F49C8644C
:101BF00070470B49C87170470948406A40F08070CF
:101C000007494862704701460020054A92680A4029
:101C10000AB1012000E00020704701498872704736
:101C2000001002400000FFF8FFFFF6FE00004242F5
:101C30008004424200127A0000093D005A00002050
:101C40006A00002010B50446FB48844209D10121F6
:101C50008803FFF7ADFF00214FF48040FFF7A8FF96
:101C600032E0F648844209D101214804FFF7ADFF74
:101C700000214FF40030FFF7A8FF25E0F048844230
:101C800009D101218804FFF7A0FF00214FF4802033
:101C9000FFF79BFF18E0EB48844209D10121C804FB
:101CA000FFF793FF00214FF40020FFF78EFF0BE0BA
:101CB000E548844208D101210805FFF786FF00218D
:101CC0004FF48010FFF781FF10BD2DE9F04786B07B
:101CD00005460E460024A24600BFA1460027B08953
:101CE00000B100BF2F462C8A4CF6FF700440F088EC
:101CF00004432C82AC894EF6F3100440B08831893D
:101D00000843718908430443AC81AC8A4FF6FF4015
:101D10000440B0890443AC8201A8FFF7C2FEC64864
:101D2000874202D1DDF810A001E0DDF80CA0A889FF
:101D300000F4004040B10AEBCA0000EB0A10316821
:101D40004900B0FBF1F807E00AEBCA0000EB0A100B
:101D500031688900B0FBF1F86420B8FBF0F00401B1
:101D60002009642101FB1089A88900F4004040B1DA
:101D7000322000EBC900B0FBF1F000F00700044393
:101D800008E0322000EB09106421B0FBF1F000F014
:101D90000F0004432C8106B0BDE8F0874FF41651C4
:101DA000016000218180C18001810C2141810021DD
:101DB0008181704710B502460020108A4FF2FF0360
:101DC00018400B884C8823438C882343CC882343BA
:101DD0001843108210BD0021018041808180C180A4
:101DE000704721B1828942F40052828104E08289E5
:101DF0004DF6FF731A4082817047F0B50346002408
:101E000000260025002040F66A17B94200D100BF25
:101E10001846C1F3421401F01F06012707FA06F520
:101E2000012C01D10C3004E0022C01D1103000E073
:101E300014301AB107682F43076002E00768AF4308
:101E40000760F0BD1AB1838A0B43838202E0838A64
:101E50008B4383827047028A4FF6F0731A400282E6
:101E6000028A0A430282704782894FF2FF731A4046
:101E7000828182890A438281704721B1828942F03E
:101E80000202828104E082894FF6FD731A4082814A
:101E90007047028A4FF6DF731A400282028A0A43B1
:101EA0000282704721B1028A42F48042028204E039
:101EB000028A4BF6FF731A4002827047C1F3080290
:101EC0008280704701468888C0F308007047818986
:101ED00041F0010181817047028BD2B20283028BF3
:101EE00042EA012202837047028B02F47F4202839E
:101EF000028B0A430283704721B1828A42F020029A
:101F0000828204E0828A4FF6DF731A408282704731
:101F100021B1828A42F01002828204E0828A4FF666
:101F2000EF731A408282704721B1828A42F0080220
:101F3000828204E0828A4FF6F7731A4082827047E9
:101F400021B1828942F40042828103E08289C2F396
:101F50000E028281704721B1828A42F4006282823D
:101F600004E0828A4FF2FF731A4082827047828AAD
:101F70004FF6FB731A408282828A0A43828270473C
:101F800021B1828A42F00202828204E0828A4FF604
:101F9000FD731A408282704702460020B1F5007F2F
:101FA00000D100BF13880B400BB1012000E00020DE
:101FB000704701F40072B2F5007F00D100BFCA4340
:101FC0000280704770B502460024002300250020DF
:101FD00040F66A16B14200D100BFC1F3421501F0CC
:101FE0001F03012606FA03F3012D02D1968933401F
:101FF00006E0022D02D1168A334001E0968A334072
:102000000C12012606FA04F41688344013B10CB100
:10201000012000E0002070BD10B50022002340F632
:102020006A14A14200D100BF0A1201249440A3B255
:10203000DC43048010BD0000003801400044004033
:1020400000480040004C00400050004010B50446DD
:10205000FE48844208D10121C014FFF7A9FD0021E8
:10206000E014FFF7A5FDC4E0B4F1804F08D10121D1
:102070000846FFF7AAFD00210120FFF7A6FDB8E002
:10208000F348844208D101210220FFF79EFD002180
:102090000220FFF79AFDACE0EE48844208D101210E
:1020A0000420FFF792FD00210420FFF78EFDA0E041
:1020B000E948844208D101210820FFF786FD00216C
:1020C0000820FFF782FD94E0E448844208D1012112
:1020D0001020FFF77AFD00211020FFF776FD88E041
:1020E000DF48844208D101212020FFF76EFD002146
:1020F0002020FFF76AFD7CE0DA48844208D1012104
:102100004014FFF755FD00216014FFF751FD70E00A
:10211000D548844209D10121C804FFF749FD0021B7
:102120004FF40020FFF744FD63E0D048844209D11A
:1021300001210805FFF73CFD00214FF48010FFF757
:1021400037FD56E0CA48844209D101214805FFF70E
:102150002FFD00214FF40010FFF72AFD49E0C5488C
:10216000844208D101214020FFF72FFD00214020AB
:10217000FFF72BFD3DE0C048844208D101218020BB
:10218000FFF723FD00218020FFF71FFD31E0BB4852
:10219000844208D101218015FFF717FD0021A01509
:1021A000FFF713FD25E0B648844209D10121080458
:1021B000FFF7FEFC00214FF48030FFF7F9FC18E038
:1021C000B048844209D101214804FFF7F1FC002105
:1021D0004FF40030FFF7ECFC0BE0AB48844208D131
:1021E00001218804FFF7E4FC00214FF48020FFF771
:1021F000DFFC10BD00220288944B98420ED0994B10
:1022000098420BD0B0F1804F08D0914B984205D046
:10221000904B984202D0904B984204D14FF68F7366
:102220001A404B881A438D4B984207D08C4B9842EA
:1022300004D04FF6FF431A40CB881A4302808B88A4
:1022400083850B880385814B98420BD0854B984240
:1022500008D08B4B984205D08A4B984202D08A4BCB
:10226000984201D10B7A038601238382704770B5AF
:10227000002400220023058C4FF6FE7635400584AD
:10228000028C8388048B4FF68F752C40B51E2C4032
:102290000D882C43751E2A400D892A434D882A43F8
:1022A0006A4DA8420BD06F4DA84208D0744DA84289
:1022B00005D0744DA84202D0734DA84213D14FF6F9
:1022C000F7752A404D892A434FF6FB752A408D88C1
:1022D0002A434FF6FF652B404FF6FF552B408D8963
:1022E0002B43CD892B4383800483CD88858602844C
:1022F00070BD70B5002400220023058C4FF6EF76E8
:1023000035400584028C8388048B48F6FF752C4089
:102310004FF6FF452C400D884FF6FF7606EA05255F
:102320002C434FF6DF752A400D8906EA05152A432E
:102330004D8806EA05152A43444DA84202D0494D6E
:10234000A8421DD14FF67F752A404D894FF6FF7682
:1023500006EA05152A434FF6BF752A408D8806EA1E
:1023600005152A434FF6FF352B404FF2FF752B40E2
:102370008D8906EA85052B43CD8906EA85052B4321
:1023800083800483CD880587028470BD70B50024E6
:1023900000220023058C4FF6FF6635400584028C31
:1023A0008388848B4FF68F752C404FF6FC752C403C
:1023B0000D882C434FF6FF552A400D894FF6FF76C6
:1023C00006EA05252A434D8806EA05252A431F4DBE
:1023D000A84202D0234DA8421DD14FF2FF752A40DA
:1023E0004D894FF6FF7606EA05252A434FF6FF355D
:1023F0002A408D8806EA05252A434EF6FF752B40B4
:102400004DF6FF752B408D8906EA05152B43CD89C6
:1024100006EA05152B4383808483CD888587028453
:1024200070BD70B5002200230024058C4EF6FF76A7
:1024300035400584038C8488828B48F6FF752A40DA
:102440004FF6FF452A400D8820E00000002C014097
:102450000004004000080040000C00400010004054
:102460000014004000340140004C01400050014085
:102470000054014000180040001C004000200040B3
:102480000040014000440140004801404FF6FF7603
:1024900006EA05252A434DF6FF752B400D8906EA0D
:1024A00005352B434D8806EA05352B43FA4DA842E6
:1024B00002D0FA4DA84208D14BF6FF752C408D8909
:1024C0004FF6FF7606EA85152C4384808283CD88FB
:1024D000A0F84050038470BD828B4FF2FF331A4046
:1024E0008283828B4FF6FF7303EA01231A438283B0
:1024F0007047F0B50C461546002200210026078CD7
:102500004EF6FF7C07EA0C070784828B018C4FF69E
:10251000FF7707EA043640F6FF473A404FF6FF7769
:1025200007EA05273A434FF6FF7707EA03373A43AE
:10253000D94FB8420ED0D94FB8420BD0B0F1804F2E
:1025400008D0D74FB84205D0D64FB84202D0D64FA8
:10255000B84206D14DF6FF77394046F480573943EB
:1025600005E047F6FF57394044F4805739438283EA
:102570000184F0BD828B4FF6F3731A408283828B05
:102580000A4382837047F0B50C46154600220021AD
:102590000026078C4FF6FF6C07EA0C070784828B36
:1025A000018C4FF6FF7707EA04264FF60C773A4086
:1025B0004FF6FF7707EA03172F433A43B64FB84267
:1025C0000ED0B64FB8420BD0B0F1804F08D0B44F08
:1025D000B84205D0B34FB84202D0B34FB84206D18B
:1025E0004FF6FF57394046F48077394305E04FF204
:1025F000FF57394044F48077394382830184F0BD2A
:10260000028B4FF2FF331A400283028B4FF6FF73A7
:1026100003EA01231A4302837047F0B50C461546BE
:10262000002200210026078C4FF6EF7C07EA0C07FA
:102630000784028B018C4FF6FF7707EA041640F6F9
:10264000FF473A404FF6FF7707EA03373A434FF622
:10265000FF7707EA05273A438F4FB8420ED08F4FD6
:10266000B8420BD0B0F1804F08D08D4FB84205D0A2
:102670008C4FB84202D08C4FB84206D14FF6DF776C
:10268000394046F01007394305E04FF65F7739408F
:1026900044F01007394302830184F0BD028B4FF6EA
:1026A000F3731A400283028B0A4302837047F0B52A
:1026B0000C46154600220021068C4FF6FE773E4060
:1026C0000684028B018C4FF60C7632407E1C06EAA3
:1026D00003162E433243704EB0420ED06F4EB042BE
:1026E0000BD0B0F1804F08D06D4EB04205D06D4E8A
:1026F000B04202D06C4EB04206D14FF6FD7631406A
:1027000044F00106314305E04FF6F576314044F0E0
:102710000106314302830184F0BD70B505460C46C5
:102720005D4885420ED05D4885420BD0B5F1804FA3
:1027300008D05B48854205D05A48854202D05A48A5
:10274000854200D100E000BF208850B92389A288CB
:1027500061882846FFF7ABFFE1882846FFF79EFF18
:1027600025E0208804280AD12389A2886188284688
:10277000FFF753FFE1882846FFF742FF17E0208864
:1027800008280AD12389A28861882846FFF7FBFE22
:10279000E1882846FFF7EEFE09E02389A2886188D8
:1027A0002846FFF7A6FEE1882846FFF795FE70BD94
:1027B0002DE9F04105460C4600260127608808B93E
:1027C000022600E00026A088012801D1022700E0AF
:1027D00001272088A0B92389A28861882846FFF7AD
:1027E00066FFE1882846FFF759FF23893A463146BC
:1027F0002846FFF712FFE1882846FFF701FF13E0A4
:102800002389A28861882846FFF707FFE1882846C8
:10281000FFF7F6FE23893A4631462846FFF747FF81
:10282000E1882846FFF73AFFBDE8F0810A884B8827
:102830001A438B881A43CB881A430B891A434B8956
:102840001A438B891A43A0F8442070474FF6FF7152
:10285000818000210180C180418001727047002188
:10286000018041808180C180018141818181C1815C
:102870007047002101804180012181800021C180B9
:10288000018170470021018041808180C1800181E8
:102890004181818170470000002C014000340140DB
:1028A0000004004000080040000C004021B10288F4
:1028B00042F00102028004E002884FF6FE731A40E3
:1028C0000280704731B1B0F8442042F40042A0F8D1
:1028D000442005E0B0F84420C2F30E02A0F84420E2
:1028E00070471AB183890B43838102E083898B434C
:1028F000838170478182704741EA0203A0F8483023
:1029000070471AB183890B43838102E083898B432B
:102910008381704701894FF6F87211400181704739
:102920000A46002101894FF68F7319401143018136
:10293000704730B504460D4629462046FFF7F0FFA4
:10294000208940F00700208130BD2DE9F041044688
:102950000D4616461F46602D06D13B4601223146E4
:102960002046FFF75AFE05E03B460122314620464D
:10297000FFF79DFE29462046FFF7D2FF208940F051
:1029800007002081BDE8F08130B50C4600210189A7
:10299000C9B24FF6FF7505EA0325154325432943C0
:1029A000018130BD2DE9F04105460E461746984697
:1029B000002443463A4631462846FFF7E5FF2C8976
:1029C0004FF6F870044044F007044FF68F7004404F
:1029D00044F070042C81BDE8F081F0B504460D464A
:1029E00016461F463B46324629462046FFF7CCFF97
:1029F000208940F480402081F0BD018582827047AB
:102A00000A46002101884FF68F7319401143018057
:102A10007047F0B50C4615461E46002100220023E3
:102A20000189028B038C4FF6F877394021434FF62A
:102A3000FC473A4040F201173A434FF6DD773B40FE
:102A40004FF6FF7707EA06172F433B4301810283C6
:102A50000384F0BD0A460021018B4FF68F731940A5
:102A60001143018370470A460021018B48F6FF732A
:102A700019404FF6FF7303EA02231943018370479D
:102A80000A460021818B4FF68F73194011438183D1
:102A900070470A460021818B48F6FF7319404FF6B4
:102AA000FF7303EA022319438183704721B102882F
:102AB00042F08002028004E002884FF67F731A40E1
:102AC0000280704721B1828842F00402828004E0D3
:102AD00082884FF6FB731A408280704721B182884A
:102AE00042F00802828004E082884FF6F7731A40B1
:102AF0008280704721B1828842F00102828004E026
:102B000082884FF6FE731A40828070470A46002181
:102B1000018B4FF6F77319401143018370470A4642
:102B20000021018B4FF2FF7319404FF6FF7303EA48
:102B300002231943018370470A460021818B4FF617
:102B4000F77319401143818370470A460021818B36
:102B50004FF2FF7319404FF6FF7303EA0223194344
:102B6000818370470A460021018B4FF6FB731940A1
:102B70001143018370470A460021018B4FF6FF3352
:102B800019404FF6FF7303EA02231943018370478C
:102B90000A460021818B4FF6FB7319401143818354
:102BA00070470A460021818B4FF6FF3319404FF6DC
:102BB000FF7303EA02231943818370470A46002109
:102BC000018B4FF67F7319401143018370470A460A
:102BD0000021018BC1F30E014FF6FF7303EA0223BC
:102BE0001943018370470A460021818B4FF67F739A
:102BF00019401143818370470A460021818BC1F33C
:102C00000E014FF6FF7303EA0223194381837047D5
:102C10000A460021018C4FF6FD73194011430184CF
:102C200070470A460021018C4FF6F7731940114393
:102C3000018470470A460021018C4FF6DF7319406A
:102C40004FF6FF7303EA02131943018470470A46E3
:102C50000021018C4FF67F7319404FF6FF7303EA92
:102C600002131943018470470A460021018C4FF674
:102C7000FF5319404FF6FF7303EA022319430184FF
:102C800070470A460021018C4FF2FF7319404FF63E
:102C9000FF7303EA02231943018470470A460021A7
:102CA000018C4DF6FF7319404FF6FF7303EA0233B0
:102CB00019430184704730B5002301248C40A3B22E
:102CC000048C9C430484048C02FA01F5ADB22C43BD
:102CD000048430BD30B5002304248C40A3B2048C9E
:102CE0009C430484048C02FA01F5ADB22C430484A5
:102CF00030BD70B503460020002418461830012569
:102D00008D40ACB21D8CA5431D8409B1082909D1A1
:102D100000EB6100056825F0700505600568154346
:102D200005600EE00D1FC5F34E052844056825F427
:102D3000E045056005684FF6FF7606EA0226354352
:102D4000056070BD21B1028842F00202028004E0F9
:102D500002884FF6FD731A400280704721B1028845
:102D600042F00402028004E002884FF6FB731A402E
:102D70000280704721B1828842F08002828004E0A4
:102D800082884FF67F731A408280704702884FF620
:102D9000F7731A40028002880A43028070478288D3
:102DA0004FF68F731A40828082880A438280704770
:102DB00002894FF6F8731A40028102890A430281A0
:102DC000704702894FF67F731A40028102890A43D5
:102DD0000281704781847047818570478186704782
:102DE0000187704781877047A0F8401070470288BC
:102DF0004FF6FF431A40028002880A430280704760
:102E00000146888E70470146088F70470146888FBB
:102E100070470146B1F8400070470146888C704702
:102E20000146088D704702460020138A0B400BB103
:102E3000012000E000207047CA430282704730B58D
:102E40000246002000230024158A05EA0103958923
:102E500005EA010413B10CB1012000E0002030BDEF
:102E6000CA4302827047000001460020FE4A1068F3
:102E700000F03800084310607047FB49096821F0F2
:102E80000801F94A11601146096801431160704751
:102E9000F549096821F01001F34A116011460968EB
:102EA000014311607047F148EF494860F0484860BD
:102EB0007047EE48EC494860ED4848607047EA4882
:102EC000006940F08000E84908617047E648006901
:102ED00040F08000E449086170470420E249C96875
:102EE00001F0010109B101200EE0DF49C96801F0DC
:102EF000040109B1022007E0DB49C96801F01001B3
:102F000009B1032000E00420704700B50246042305
:102F1000FFF7E3FF034603E0FFF7DFFF0346521E20
:102F2000012B01D1002AF7D102B90523184600BDB3
:102F300030B5044604254FF43020FFF7E6FF054680
:102F4000042D17D1C848006940F00200C649086145
:102F500008464461006940F0400008614FF43020A9
:102F6000FFF7D3FF0546C048006941F6FD710840F0
:102F7000BD490861284630BD10B504244FF4302007
:102F8000FFF7C3FF0446042C16D1B748006940F090
:102F90000400B54908610846006940F04000086136
:102FA0004FF43020FFF7B1FF0446AF48006941F607
:102FB000FB710840AC490861204610BD00B50246CF
:102FC0000423FFF78AFF034603E0FFF786FF03466B
:102FD000521E012B01D1002AF7D102B90523184650
:102FE00000BD10B504244FF43020FFF7E7FF04467E
:102FF000042C16D19C48006940F004009A490861ED
:103000000846006940F0400008614FF43020FFF7A7
:10301000D5FF04469448006941F6FB710840924987
:103020000861204610BD00208F49C96901F00201E6
:1030300009B1012000E00020704730B5A525042427
:10304000FFF7F1FF00B100254FF43020FFF75DFFDF
:103050000446042C3AD185488349886084488860B6
:103060000846006940F0200008610846006940F009
:10307000400008614FF43020FFF747FF0446042C5E
:103080001BD17948006941F6DF7108407649086133
:103090000846006940F01000086176480580E002AB
:1030A000FFF733FF0446052C10D06F48006941F646
:1030B000EF7108406C49086108E0052C06D06A48A9
:1030C000006941F6EF71084067490861204630BD4C
:1030D00078B506460C46042500200090E802FFF76C
:1030E00014FF0546042D24D15F48006940F001001B
:1030F0005D4908613480E802FFF707FF0546042DAB
:1031000010D1B01C0090200C00990880E802FFF755
:10311000FCFE05465448006941F6FE7108405249DC
:10312000086106E05048006941F6FE7108404E49CA
:103130000861284678BD70B504460D460426F002A5
:10314000FFF7E3FE0646042E11D14748006940F020
:103150000100454908612580F002FFF7D6FE0646CA
:103160004148006941F6FE7108403F490861304618
:1031700070BD70B505460E460424E002FFF7C5FE9B
:103180000446042C17D1394837498860384888608C
:103190000846006940F0100008612E80E002FFF749
:1031A000B4FE0446052C06D02F48006941F6EF71A5
:1031B00008402D490861204670BD2DE9F0430446C2
:1031C0004FF6FF763746B046B1460425E443E6B2F3
:1031D000C4F30727C4F307484FEA1469E802FFF76E
:1031E00094FE0546042D49D120481F498860204897
:1031F00088600846006940F010000861FF2E06D084
:103200001C4808300680E802FFF77FFE0546042DC3
:1032100008D1FF2F06D017480A300780E802FFF7D1
:1032200074FE0546042D0AD1B8F1FF0F07D01148EE
:103230000C30A0F80080E802FFF767FE0546042D79
:103240000AD1B9F1FF0F07D00A480E30A0F800905C
:10325000E802FFF75AFE0546052D0FD00248006927
:1032600041F6EF71084007E0002002402301674566
:10327000AB89EFCD00F8FF1F664908612846BDE81D
:10328000F08330B5054604244FF43020FFF73DFEAF
:103290000446042C41D160485E4988605F488860DC
:1032A0000846006940F0200008610846006940F0C7
:1032B000400008614FF43020FFF727FE0446042C3D
:1032C00022D15448006941F6DF7108405149086134
:1032D0000846006940F0100008611DB10020504907
:1032E000088002E0A5204E4908804FF43020FFF707
:1032F0000CFE0446052C10D04648006941F6EF71DB
:1033000008404449086108E0052C06D0414800699E
:1033100041F6DF7108403F490861204630BDF0B5F5
:1033200005460E46174604243B483A4988603B4808
:103330008860E002FFF7E9FD0446042C19D1354806
:10334000006940F010003349086147F0F80030434D
:1033500028433349891C0880E002FFF7D6FD044664
:10336000052C06D02B48006941F6EF710840294929
:1033700008612046F0BD2748C0698008704725488D
:10338000006A704700202349096801F0200109B153
:10339000012000E00020704729B11E4A1269024353
:1033A0001C4B1A6104E01B4A12698243194B1A61D3
:1033B000704701460020012908D1164AD26902F05F
:1033C00001020AB1012008E0002006E0114AD2689B
:1033D0000A400AB1012000E0002070470D49C86092
:1033E000704704200B49C96801F0010109B10120AF
:1033F0000EE00849C96801F0040109B1022007E0A4
:103400000449C96801F0100109B1032000E004205B
:10341000704700000020024023016745AB89EFCDD3
:1034200000F8FF1F704700000FB4044910B503AA4D
:10343000029800F035FB10BC5DF814FB540000202E
:103440002DE9F0410646002410687529314616A57D
:1034500010D0AFF30080002802DA404213A507E045
:1034600031688A0701D512A502E0490704D511A5E4
:10347000012401E0AFF3008000210A2206F12407B5
:1034800009E0B0FBF2FCB0FBF2F302FB1C003030B1
:1034900078541846491C0028F3D123462A46304662
:1034A000BDE8F04100F095B8000000002D000000DC
:1034B0002B000000200000002DE9F0474FF0000A2B
:1034C00089460446C0F820A02046E16888470028C5
:1034D00076D0252806D0D4E901219047206A401CE7
:1034E0002062F1E7E168204600258847C4F81CA067
:1034F00006460027C4F818A02A2E09D0304601F04D
:1035000036F838B304EB8708303EC8F8186019E085
:1035100059F8041B204604EB87029161E168884753
:10352000012F064618D1E069002820DA25F0200591
:103530001DE0D8F8180000EB800006EB40003038A2
:10354000C8F818002046E1688847064601F00FF8E1
:103550000028EED1012F0AD02E2E08D12046E16896
:1035600088477F1C0646022F45F02005C4DBA06972
:10357000002803DA404245F00105A061E80701D0C8
:1035800025F01005B6B1A6F14100192802D8203661
:1035900045F400654A463146204625604D46FCF715
:1035A00001FE58B1012806D0ED1D25F0070000F1FD
:1035B000080989E704E005F1040985E730468AE750
:1035C000206ABDE8F087FDF766BC7047704770471A
:1035D00070472DE9F0470D4699469246044600F1A2
:1035E00024080168880604D5E06921F010012160F3
:1035F00000E00120A84201DD471B00E00027A1698F
:103600007A1902EB0900081AA0612078C00602D4DA
:103610002046AFF30080002608E0D4E901211AF823
:1036200006009047206A401C761C20624E45F4DB61
:103630002078C0060AD52046AFF3008006E0D4E922
:10364000012130209047206A401C2062381EA7F1DB
:103650000107F4DC07E0D4E9012118F805009047E0
:10366000206A401C2062281EA5F10105F3DC2046DB
:10367000AFF300802078000602D50220BDE8F08775
:103680000120FBE770472DE9FF4F0C461E464FF027
:10369000FF378BB0D2E90001DDF860800A908A46DE
:1036A000C1F30A5505B93D46002108464FF0000018
:1036B000BAF1000F00F4400005DA00EB80004FF48F
:1036C000400101EA50004FEA9059B9F1010F00DDC5
:1036D000B9460A9850EA4A000ED044F61050A5F2B6
:1036E000FF3545432F14B8F1000F1ED07542291E37
:1036F0001EDDC9F100021CE0B8F1010F4FF000001F
:1037000001D0302103E0F24305E02154401CB042D7
:10371000FBDB30460022002121540B99C1F80880C0
:10372000C1E900200FB0BDE8F08FBD1B6D1CDEE7C6
:103730004A4600DA694206A800F066FA06AB93E84A
:10374000070003AB83E8070050460A9900F040FBEE
:103750008DE80700A0F500501F3800900398002D59
:1037600009DD42F21F014A46084403A90390684656
:1037700000F09FFD08E0A0F500504A461F3803A95D
:103780000390684600F0A9FD8DE807000004000CD6
:1037900003D04FF0FF30410800E01046B8F1000FB1
:1037A00003D00022009215461EE0751E05D400F0DD
:1037B0008DF9303262556D1EF9D5B34601220843AA
:1037C00002D000227F1C04E02078302801D10022A2
:1037D0007F1E002A099786D01DE0112D07DA00F020
:1037E00075F9303262556D1C50EA0102F5D108437B
:1037F00002D00098C8B10EE00021681E05E0235CED
:10380000625C63542254401E491C8142F7DBAB4684
:10381000A81B401E0990002004F80B000B98099A81
:10382000C0F80880C0E9002B7CE711264FF00008A3
:1038300059E72DE9F04F88460446D21D22F00701D2
:1038400091B0D1E90001CDE90A0100F07CFE024609
:103850000B98C00F01D02D2007E02068810701D50B
:103860002B2002E0202101EAC000032A099001D0A8
:10387000072A05DB03464146204600F085F90BE1A7
:103880002078800601D5E06900E00620B8F1650FD8
:10389000814606D0B8F1660F18D0B8F1670F70D125
:1038A00031E00020B9F1110F009001DB112301E09C
:1038B00009F101030AAA01A90CA8FFF7E4FEDDE95A
:1038C0000C70002609F10105834647E001204B46B4
:1038D00000904FF000470AAA01A90CA8FFF7D3FEF9
:1038E000DDE90DB00C995D46002610B909F1010023
:1038F0000D18B9EB050003D4C0F1FF3609F101053D
:10390000A5EB09002BE0B9F1010F01DA4FF0010935
:103910000020B9F1110F0090484601DD112300E0AD
:1039200003460AAA01A90CA8FFF7ADFEDDE90C7059
:103930004D4600268346207800070AD4AB4500DABE
:103940005D4601A8012D04DD411911F8011C302943
:1039500007D04F4502DA17F1040F04DA012082463E
:103960000FE06D1EEEE7002F02DCED1B3E4403E08E
:10397000781CA84200DD7D1CB81B00F1010A4FF045
:1039800000472078000703D4AA4501DB4FF0FF3A37
:103990000021B7F1004F0DF143088DF8431024D0FA
:1039A00002202B23002F01DA7F422D230A21021E41
:1039B000A0F1010000DC5FB197FBF1FC97FBF1F295
:1039C00001FB1C7C17460CF1300C08F801CDEEE72A
:1039D000A8F1010003702188090501D5452100E007
:1039E0006521A0F1010800F8011C09980FA9A1EBBD
:1039F0000807FF1D00B10120411901EBEA70A16920
:103A00003844081A401EA0612078C00602D420461F
:103A1000AFF30080099828B1D4E901219047206ACA
:103A2000401C20622078C00622D52046AFF30080DB
:103A30001EE0002E04DBB34502DD01A8805D00E03E
:103A40003020D4E901219047206A401C2062761C76
:103A5000AAF101005FEA000A0AD100F033F8C06859
:103A60000168405CD4E901219047206A401C206233
:103A7000281EA5F10105DCDC07E0D4E9012118F8D6
:103A8000010B9047206A401C2062381EA7F10107F5
:103A9000F3DC2046AFF30080032011B043E60000C2
:103AA000074B70B50D467B4400F05BF80446284692
:103AB00000F018F910B14FF0FF3070BD204670BD16
:103AC000EDD3FFFF004870472002002030B5B0F171
:103AD0000A024FEA900E71F100034EEA817EB0EBCC
:103AE0000E0061EB91014FEA101E4EEA017E10EBD1
:103AF0000E0041EB11114FEA102E4EEA016E10EB51
:103B00000E0041EB11214FEA104E4EEA014E10EB30
:103B10000E0041EB1141401841F100014FEAD00085
:103B200040EA41704FEAD10110EB80054FEA810471
:103B300044EA907444EB01046D1944EB0404521BF5
:103B4000A3414FF0000348BF0A3200D530BD401CEE
:103B500041F1000130BD000001694A1C0261087892
:103B6000704700B58FB0CDE90131002105910549BD
:103B70007944CDE9031011466846FFF79DFC0FB06C
:103B800000BD0000E5FFFFFF2DE9F0411F460446A0
:103B900003260168072A01F4006004DB08B116A5BA
:103BA00005E016A503E008B115A500E015A521F074
:103BB00010002060A069C01EA0610FB1401EA0616E
:103BC0002046AFF300804FB1D4E901213846904739
:103BD000206A401C2062C01C206206E0206AFAE7CE
:103BE000D4E9012115F8010B9047761EF8D2204642
:103BF000AFF30080BDE8F0814E414E006E616E0073
:103C0000494E4600696E66002DE9F047814616462A
:103C10008AB0334878440DC88DE80D0030487844A8
:103C2000801C03AC0DC884E80D0041F69B300844AD
:103C3000372190FBF1F290FBF1F5A5F1800501FB36
:103C400012041B3C02D56442012000E00020DFF892
:103C500090A080460027FA44AAF1BE0A0DE0E007D2
:103C600009D03246684607EB47010AEB810100F0B4
:103C700034FB8DE8070064107F1C002CEFD1184F37
:103C80007F44AC3F18E0E80714D007EB04100DF1B7
:103C9000180A90E80E008AE80E00C068F04201D1D0
:103CA00098190890324606A903A800F016FB03AB4A
:103CB00083E807006D10641C002DE4D1324669468C
:103CC000B8F1000F03A802D000F0F3FA01E000F011
:103CD00004FBC9E90001C9F808200AB0BDE8F08773
:103CE000080D0000007B00F080007047004870471E
:103CF000000200207546FFF7F9FFAE460500694651
:103D0000534620F00700854618B020B5FDF772F93C
:103D1000BDE820404FF000064FF000074FF00008CC
:103D20004FF0000B21F00701AC46ACE8C009ACE84D
:103D3000C009ACE8C009ACE8C0098D46704710B5B1
:103D40000446AFF300802046BDE81040FCF747BAB8
:103D50004FF0013C50F8042B51F8043B9A4221D11A
:103D6000A2EB0C03934313EACC1317D150F8042BA6
:103D700051F8043B9A4215D1A2EB0C03934313EA8A
:103D8000CC130BD150F8042B51F8043B9A4209D1C3
:103D9000A2EB0C03934313EACC13DBD04FF00000EB
:103DA000704700BFD01A01BAB1FA81F101F01801D1
:103DB00022FA01F0CB40C1F12001DBB2C0B2C01A3F
:103DC0002CFA01F3D11A914311EAC311E6D17047DD
:103DD0005FEA400C08BF91F0000F4FEA8C234FEAD6
:103DE000C12243EA51514FEA1C5018BF00F5F04080
:103DF0004FEA300018BF41F000415FEA6C5C00F010
:103E00002980BCF1FF3F08BF40F080407047130C91
:103E100006BF12044FF0100C4FF0000C130E04BF3D
:103E200012020CF1080C130F04BF12010CF1040C68
:103E3000930F04BF92000CF1020CD30F04BF520089
:103E40000CF1010C11464FF00002A0F11F00A0EB95
:103E50000C00704711F0004F08BF704731F000416F
:103E60003FF4D5AF0B0C06BF09044FF0100C4FF018
:103E7000000C0B0E04BF09020CF1080C0B0F04BF61
:103E800009010CF1040C8B0F04BF89000CF1020C2A
:103E9000CB0F04BF49000CF1010CCCF12003A0EBC7
:103EA0000C0022FA03F302FA0CF241EA030100F1DA
:103EB0000100704720F07F4C80EA030023F07F4729
:103EC000ACEB070303F57C5300F0004003F1FF0364
:103ED0002DE980494FEA154B09B44FEA144325EA0E
:103EE0000B4E24EA03480FF2042606EB1327490879
:103EF0003E785FEA320203FB0667C7F5000707FB5F
:103F000006F64FEA54374FEAD64606F1020607FB9B
:103F1000066CCCF1005C4FEA1C472CEA074C07FB0F
:103F200006F40CFB06F504EB15464FEA961634BF73
:103F300000204FF000404FEAD13706FB07FC4FEA64
:103F40001C4C0CFB0BF7D21B03FB0CF761EB0701BE
:103F50000CFB0EF7B0EB074072EB17420CFB08F7B7
:103F600034BFA2EB0742B2EB074261EB17414FEAC5
:103F70000C444FEA910706FB07FC4FEA1C4C0CFB74
:103F80000BF7B0EBC74072EB573203FB0CF734BFB3
:103F9000A2EBC742B2EBC74261EB57310CFB0EF705
:103FA000B0EBC70072EB57720CFB08F734BFA2EB03
:103FB000C702B2EBC70261EB5771039F4FEA816101
:103FC00041EA921104EBCC044FEAD1374FEA826206
:103FD00006FB07FC42EA90124FEA80604FEA1C4C55
:103FE0000CFB0BF7D21B03FB0CF761EB07010CFB7F
:103FF0000EF7B0EB074072EB17420CFB08F734BF2B
:10400000A2EB0742B2EB074261EB17414FEA8C5536
:104010004FEA910704EB9C2406FB07FC4FEA1C4C7B
:104020000CFB0BF7B0EBC74072EB573203FB0CF7FE
:1040300034BFA2EBC742B2EBC74261EB57310CFB76
:104040000EF7B0EBC70072EB57720CFB08F734BFEA
:10405000A2EBC702B2EBC70261EB577115EB4C251F
:104060004FEA816141EA92114FEA82624FEAD13709
:1040700042EA901206FB07FC44F100044FEA80601C
:104080004FEA1C4C0CFB0BF7D21B03FB0CF761EB4C
:1040900007010CFB0EF7B0EB074072EB17420CFB6D
:1040A00008F734BFA2EB0742B2EB074261EB1741BE
:1040B00015EB1C154FEA813141EA92414FEA8232F9
:1040C00042EA90424FEA80304FEA0C7644F1000415
:1040D00048EA03434EEA0B484FF0000EB2EB080CDF
:1040E00071EB030724BF624639464EEB0E0E4FF0CC
:1040F000000B0018524149414BEB0B0BB2EB080C83
:1041000071EB03077BF1000B24BF624639464EEB8F
:104110000E0E4FF0000B0018524149414BEB0B0BB8
:10412000B2EB080C71EB03077BF1000B24BF624676
:1041300039464EEB0E0E51EA020718BF46F0010653
:1041400016EB0E7655F1000254F1000103D5BDE8DF
:104150008901BDE80088BDE88901BDE80048B619BD
:10416000524141EB0101A3F10103704780807F7E42
:104170007D7C7B7A797877767675747372717170DD
:104180006F6E6E6D6C6C6B6A6A696868676666658F
:104190006464636362616160605F5F5E5E5D5D5C1D
:1041A0005C5B5B5A5A59595858575756565555558E
:1041B0005454535352525251515050504F4F4F4EEE
:1041C0004E4D4D4D4C4C4C4B4B4B4A4A4A4949493C
:1041D000484848474747474646464545454444447E
:1041E000444343434342424242414141002B26D48F
:1041F000770021D01CB54FEA370703B44FF0100009
:104200004FF010014FF000000FBCBDE810400BF163
:10421000010BBBF1010F08BF5FEA170722BF12F1C4
:10422000010211F101014FF0004143F1000300F0E0
:10423000004043EA00007047F9D35708DAE746EA3E
:10424000064613F1400F4FEA16461FDD13F1200F0B
:10425000DFBF16430A46002120335B42C8D0C3F1BA
:10426000200746EA064602FA07F74FEA164646EAEC
:104270000706C3F1200722FA03F201FA07F721FA31
:1042800003F14FF0000342EA0702B1E746EA0206F3
:1042900046EA06464FEA164646EA0106BCBF46EA2B
:1042A0000646360C4FF000034FF000024FF00001BD
:1042B0009EE72DE9C048934630B491E8380007C81E
:1042C00031EA400C48BF34EA430C03D5FFF7F2FD56
:1042D000FFF78CFFF0BCBDE800882DE9C04893468D
:1042E00030B491E8380007C810F0804F08BF13F0D1
:1042F000804F03D100F005F8FFF778FFF0BCBDE870
:10430000008820F07F4780EA030023F07F4C07EB12
:104310000C03A3F57C5300F00040A3F1FE0392F0E0
:10432000000F00F0B38095F0000F00F077802DE9CA
:1043300001494FEA11404FEA144621EA004800FBC8
:1043400006FC24EA064708FB06F607FB08F800FB14
:1043500007F718EB06484CEB164C4FEA124B18EBDC
:1043600007484FEA15464CEB174022EA0B4E0BFB71
:1043700006FC25EA06470EFB06F607FB0EFE0BFBC6
:1043800007F71EEB064E4CEB164C4FF000061EEBEB
:10439000074E4CEB174B18EB0B0840F1000018EBE5
:1043A0000E0B58EB000840F100008F1A4FF000018F
:1043B0003CBFC943661B14BFB5EB040C00213CBFD6
:1043C000C943F61B4FEA17444EEA8E0E27EA04450E
:1043D0004FEA1C4704FB07622CEA074C05FB07F772
:1043E0000CFB05F604FB0CFC16EB074642EB1742F0
:1043F00016EB0C4642EB1C421BEB060658EB020286
:10440000414146EA9E0601D5BDE80189B6195241EF
:1044100041EB0101A3F10103BDE801894FEA144515
:104420004FEA114724EA054621EA074C05FB07F449
:1044300006FB07F70CFB06F105FB0CFC11EB074133
:1044400044EB17444FEA124711EB0C4144EB1C4478
:1044500022EA074C05FB07F206FB07F70CFB06F602
:1044600005FB0CFC16EB074642EB174216EB0C461D
:1044700042EB1C456A1854F1000148BF7047B61959
:10448000524141EB0101A3F10103704795F0000F88
:1044900037D04FEA11424FEA144721EA024624EA94
:1044A000074C02FB07F106FB07F70CFB06F402FBC7
:1044B0000CFC14EB074441EB17414FEA154714EB92
:1044C0000C4441EB1C4125EA074C02FB07F506FBB7
:1044D00007F70CFB06F602FB0CFC16EB074645EB58
:1044E000174516EB0C4645EB1C42121951F1000121
:1044F00048BF7047B619524141EB0101A3F10103D6
:1045000070474FEA14454FEA114724EA054621EA6D
:10451000074C05FB07F106FB07F70CFB06F24FF013
:10452000000605FB0CFC12EB074241EB174112EBB6
:104530000C4251EB1C4148BF7047921841EB0101FE
:10454000A3F101037047490050EAC12018BF0420BD
:104550004A0D18BF40F0010040F2FF72B2EB515F0C
:1045600008BF40F00200012808BF0520704730381E
:104570000A2801D2012070470020704710B5002999
:104580000AD00878002807D005487844FFF7E0FBF8
:10459000002801D0002010BD0248784410BD000062
:1045A000CE030000C60300000808A0F500114FEA82
:1045B0003101704743004FEAD30C4FEA3C0C4340B3
:1045C0001FBF40070CF1605113F0FE4F70471CF005
:1045D000006F03D100200CF0004170470CF0004345
:1045E00043EA507010B540EACC0000F0E4F800BF98
:1045F000000000924FEA0001FFF7D6BF4FF00041E4
:104600004FF00000A1F50021704700004FF47F0C2F
:104610001CEAD0121EBF1CEAD11392EA0C0F93EAD7
:104620000C0F00F0858090EA010F48BF42F48072C1
:1046300040F4000C41F400002CF07F4120F07F405A
:1046400000B58142A2EB03020FF2081CACEB504E06
:10465000C0F100009EF800E04FEA4E0E00FB0EFC99
:1046600038BF49004FEA2C1C02F5FA020CFB0EF38E
:104670004FEACE1E4FEA112C4FEAC1210EEB635ECA
:1046800042EB22420EFB0CFC4FEA1C5300FB0311D1
:104690004FEA112C4FEA01310EFB0CFC4FEADC4CC7
:1046A00000FB0C11C14228BF09184CEB03335DF825
:1046B00004EB10EB410143EBC250B2F57C0F38BF65
:1046C000704729D512F0F00F1CBF00F1C04000F078
:1046D00000407047008182838485868788898B8C1F
:1046E0008D8E8F919293959697999A9C9D9FA0A25B
:1046F000A3A5A7A8AAACAEB0B2B3B5B7B9BCBEC0AB
:10470000C2C5C7C9CCCED1D4D7D9DCDFE2E6E9EC4B
:10471000F0F3F7FAFE0000004FEA400C0CF1807C49
:10472000BCF17E4F28BF7047B0F1C04000F089B89F
:1047300090EA010F0CEAD11348BF42F4807262453F
:1047400038BF634507D213F47F0F16D080EA01000B
:1047500000F00040704710B500F02DF8097EFC3ED7
:1047600000F005B880EA010000F00040704780EAE0
:10477000010000F0004000F064B812F47F0F04BFA5
:104780000248704780EA010000F05BB80000C07F7B
:10479000B0FA80F310FA03F2C3F19D030AD0D905F1
:1047A00001EB1220530638BF704700F1010008BF2B
:1047B00020F0010070470EF1020E2EF0030E5EF89D
:1047C000044B244204D44FEA4102B2F17F4F11D886
:1047D0004FEA4003B3F17F4F0CD80ED14FEAD07CA3
:1047E000B2F17F4F0CEB4C0C0CF1020C08BF4CEB00
:1047F000D17C04E04FF0080C01E04FEAD17C0CEBD7
:104800004C0324FA03F404F00704B4F1040C06D2B8
:104810000EEB840CBDE810404CF0010C6047DFE863
:104820000CF0070802024FF00040A0F5800010BD18
:104830000846420018BFD2F1807288BF00F00040E5
:1048400010BDFF2141EAD050C0057047FEF7F1BF0F
:104850001A09A6093C0AD20A680B900B260CBC0C5C
:10486000EE0C840D1A0EB00E460F00007306CA0639
:1048700039079D070C0825089508F80811098109D2
:10488000F109540AC40A0000EA105410C80F3C0F82
:10489000BA0E920E1A0EAC0D840D160DB20C580CF9
:1048A000F40B000002400000000000A00000000027
:1048B00005400000000000C8000000000C4000009F
:1048C0000000409C00000000194000000020BCBE19
:1048D0000000000034400000BFC91B8E000000042F
:1048E000B5400000504BCFD06607E2CF010000007A
:1048F0006C4100003E8251AADFEEA73401000000A7
:10490000D9420000DCB5A0E23A301F97FFFFFFFF5D
:10491000B4450000FD25A0C8E9A3C14FFFFFFFFF7C
:10492000FF3F00000000008000000000FF3F00008B
:104930000000008000000000744900080000002012
:10494000700000006C010008E449000870000020BD
:10495000F0070000880100081C0000004300000070
:10496000F8FFFFFF0C0000000E0000000F00000029
:104970002E00000000000000000000000000000009
:104980000000000000A24A04000000000000000037
:1049900001020304060708090000000000000000EF
:1049A00058020000000000000000000000000000AD
:1049B000000200000002000000020000640000008D
:1049C00001000000000000000000000000000000E6
:1049D000000001020304010203040607080902049F
:0449E00006080000C5
:0400000508000131BD
:00000001FF
