:020000040800F2
:100000003805002045010008950100089701000807
:10001000990100089B0100089D01000800000000F4
:100020000000000000000000000000009F01000828
:10003000A101000800000000A3010008A5010008BC
:100040005F0100085F0100085F0100085F01000810
:100050005F0100085F0100085F0100085F01000800
:100060005F0100085F0100085F0100085F010008F0
:100070005F0100085F010008A7010008A90100084E
:10008000AB010008AD0100085F0100085F01000836
:100090005F0100085F0100085F0100085F010008C0
:1000A0005F0100085F0100085F0100085F010008B0
:1000B000C90100085D0200085F0100085F01000837
:1000C0005F0100085F0100085F0100085F01000890
:1000D0005F010008B50100085F010008BF010008CA
:1000E0005F0100085F0100085F0100085F01000870
:1000F0005F0100085F0100085F0100085F01000860
:100100005F0100085F0100085F0100085F0100084F
:100110005F0100085F0100085F0100085F0100083F
:100120005F0100085F010008B1010008B301000889
:10013000DFF80CD002F0C0FF004800478B01000838
:10014000380500200648804706480047FEE7FEE7DE
:10015000FEE7FEE7FEE7FEE7FEE7FEE7FEE7FEE777
:10016000F12900083101000810B500F035FB00F05E
:10017000D5FA00F07DFB00F086F800F058FA012176
:10018000BDE81040880701F0B4BFFFF7EDFF00F0B5
:1001900038FCFCE77047FEE7FEE7FEE7FEE7704746
:1001A0007047704770477047704770477047704797
:1001B0007047704740F22551294802F093BB40F246
:1001C0002551284802F08EBB38B50020009002214E
:1001D0004C07204602F0DAF980B1204602F0BFF960
:1001E0000090BDF80000643081B2204602F0A6F90C
:1001F0002046BDE83840022102F0D4B9042120464F
:1002000002F0C4F990B1204602F0ABF90090BDF8BD
:10021000000042F21071084481B2204602F090F9C9
:100220002046BDE83840042102F0BCB90821204630
:1002300002F0ACF9002810D0204602F094F90090AA
:10024000BDF80000283081B2204602F07BF920463C
:10025000BDE83840082102F0A5B938BD704700005C
:10026000003801400048004010B50446A1808021BC
:10027000204602F02CFB0028F9D0BDE810404021B8
:10028000E34802F02BBB30B587B04FF4E06000F0DC
:1002900037FC25208DF8040000248DF8054001204E
:1002A0008DF806008DF8070001A800F02EFC4FF431
:1002B0000070ADF8080003208DF80A0018208DF8B2
:1002C0000B00D44D02A9284601F0FBF82915ADF822
:1002D000081004218DF80B1002A9284601F0F1F84E
:1002E0004FF4E1300390ADF81040ADF81240ADF896
:1002F0001440ADF818400C20ADF81600C44C03A90A
:10030000204602F09BF9012240F22551204602F0DE
:100310001CFA0121204602F00CFA4021204602F08E
:10032000DDFA07B030BD30B585B00424ADF800402B
:1003300003208DF8020018208DF80300B54D6946A2
:10034000284601F0BEF80821ADF800108DF80340F2
:100350006946284601F0B5F84FF416500190002088
:10036000ADF80800ADF80A00ADF80C00ADF81000CB
:100370000C20ADF80E00A84C01A9204602F05EF951
:10038000002240F22551204602F0DFF901212046EB
:1003900002F0CFF94021204602F0A0FA05B030BDAE
:1003A00030B587B04FF4E06000F0AAFB27208DF84D
:1003B000040000248DF8054001208DF806008DF81A
:1003C000070001A800F0A1FB4FF48060ADF8080021
:1003D00003208DF80A0018208DF80B008F4D02A91C
:1003E000284601F06EF8E914ADF8081004218DF8E4
:1003F0000B1002A9284601F064F84FF4E130039095
:10040000ADF81040ADF81240ADF81440ADF818400A
:100410000C20ADF81600824C03A9204602F00EF91C
:10042000012240F22551204602F08FF90121204699
:1004300002F07FF94021204602F050FA71E730B512
:1004400087B04FF4E06000F05BFB34208DF80400CF
:1004500000248DF8054002208DF8060001208DF85B
:10046000070001A800F051FB4FF48060ADF80800D0
:1004700003208DF80A0018208DF80B00694D02A9A1
:10048000284601F01EF8E914ADF8081004218DF893
:100490000B1002A9284601F014F84FF416500390EF
:1004A000ADF81040ADF81240ADF81440ADF818406A
:1004B0000C20ADF816005C4C03A9204602F0BEF8F3
:1004C000012240F22551204602F03FF90121204649
:1004D00002F02FF94021204602F000FA21E770B522
:1004E00004464B4DE1B2284602F084F940212846EB
:1004F00002F0EDF90128F9D1204670BD2DE9F04157
:1005000007460D461646002405E0295D3846FFF7EC
:10051000ABFE641CA4B2B442F7D3BDE8F0812DE970
:10052000F04707460C46A4F57A7042F228310A26B5
:100530004FF0640888422BD24FF47A79B4FBF9F576
:1005400005F13000C1B23846FFF78EFE09FB1545B4
:10055000B5FBF8F404F13000C1B23846FFF784FE71
:1005600008FB1454B4FBF6F10D4630313846FFF762
:100570007BFE06FB154130313846FFF775FE0D2135
:100580003846FFF771FE3846BDE8F0470A216BE6B2
:10059000A4F16400B0F5617F1FD2B4FBF8F505F15A
:1005A0003000C1B23846FFF75FFE08FB1544B4FBCC
:1005B000F6F10D4630313846FFF756FE06FB154181
:1005C00030313846FFF750FE0D213846FFF74CFE1C
:1005D0003846BDE8F0470A2146E6BDE8F087F0B5A9
:1005E000059E002500240BE0A71804EB030CC75D53
:1005F00011F80CC0674501D16D1CADB2641CA4B2EA
:10060000B442F1D3B54201D30120F0BD0020F0BDCA
:10061000003801400008014000440040000C014047
:100620000048004000100140004C0040704730B5C9
:1006300087B0002402948DF80C408DF80D404FF4E3
:1006400060200490059401208DF818002F4D02A918
:10065000284600F0DDFA4FF4404001F0BAF80221DC
:10066000ADF804108DF8074001A9294800F029FFD2
:10067000012206231146284600F057FB0121284697
:1006800000F0EEFA284600F00EFB284600F010FBC2
:100690000028FAD1284600F013FB284600F015FB8D
:1006A0000028FAD10121284600F017FB07B030BD21
:1006B0002DE9F0470D460026144F0122062311466E
:1006C000384600F032FB0121384600F006FB0024DA
:1006D000DFF84090DFF8408012E00221384600F059
:1006E0000BFC0028F9D0384600F065FB014698F86D
:1006F000000029F81010401C88F80000641CE4B2C7
:10070000AC42EAD3B0B2BDE8F08700000028014057
:10071000000801403400002004000020F8B5102437
:10072000ADF800408DF8034003258DF80250274EA8
:100730006946304600F0C5FE0121ADF800102821C1
:100740008DF803106946304600F0BBFE40F2E11020
:10075000ADF800008DF803408DF802501C4F69463B
:10076000384600F0AEFE4FF47041ADF800108DF841
:1007700003408DF802506946384600F0A2FE26027A
:100780003146384600F00AFF40F24B10ADF8000049
:100790008DF803408DF802500E4C6946204600F05B
:1007A00090FE8022ADF8002048228DF80320694693
:1007B000204600F086FEADF8006004218DF803109D
:1007C0006946204600F07DFEF8BD000000080140AB
:1007D000000C01400010014010B500F055FF4FF42F
:1007E0008034204600F069FF00F095FF012823D1F6
:1007F000002000F0CAFF4FF4A06000F0D4FFA01169
:1008000000F0CAFF022000F09FFB102000F0ACFBBC
:100810004FF4A011204600F0A1FF012000F0A6FF38
:10082000392000F063FF0028FAD0022000F0A1FF79
:1008300000F0A6FF0828FBD10121032001F03AF8BF
:10084000012144F23D6001F040F8BDE81040012173
:10085000064801F045B864214843401EFDD1704769
:100860004FF4FA514843401EFDD1704703001E3833
:1008700070B588B04FF4E06000F042F91C208DF8AC
:10088000000000248DF8014003208DF802000125AE
:100890008DF80350684600F038F94FF6FF70ADF858
:1008A0001800ADF81440ADF81A40ADF81640AE0788
:1008B00005A9304601F04CF9012241F2DF513046E2
:1008C00001F0A8FCADF80440ADF80650ADF80C40BE
:1008D0006421ADF80A1001A9304601F072F942F224
:1008E0001071ADF80A1001A9304601F0A3F92820D3
:1008F000ADF80A0001A9304601F0DCF900213046CC
:1009000001F0FAFC0021304601F0FCFC00213046E9
:1009100001F002FD0121304601F035FE01220E21D9
:10092000304601F000FC08B070BD0000F0B56D4C21
:100930002078132864D300216B4D4E1CF0B20BE0DD
:1009400035F8112035F810309A4203D925F81130C6
:1009500025F81020401CC0B21428F1D3F1B214299C
:10096000EBD300210A46052035F810301A4492B224
:10097000401CC0B20F28F7D30A20B2FBF0F60022C9
:10098000052035F810309F1B7F1C022F03D81A4416
:1009900092B2491CC9B2401CC0B20F28F1D311B1A8
:1009A000B2FBF1F000E0688930444108A1F27360C5
:1009B00040F25142904221D800204C4E36F810208F
:1009C0008A4217D8431C1D4636F813308B4211D388
:1009D0009B1A8A1A64277A4392FBF3F3434A1C3A20
:1009E00032F8155032F81020AD1A6B4393FBF7F331
:1009F0001A446280401CC0B20C28DFD30020207053
:100A0000F0BD2DE9F041374D2878132806D2BDE816
:100A1000F041022201210846FFF74ABEFFF786FF98
:100A20006988314EA1F61A1040F22C6200273C363C
:100A300090422DD800202D4A1C3A32F810308B42BB
:100A400022D8431C32F813308B421DD3431C32F89A
:100A5000134032F81020A41A891A6422514391FBE2
:100A6000F4F222491C3131F8133031F81000191A10
:100A70004A43642192FBF1F1401A02F0B7F8697819
:100A800046F821006F8003E0401CC0B20C28D4D38C
:100A90006878174956F8200002F068F802F0C8F8A4
:100AA00002460B4613A002F0A9FB0020002402F02E
:100AB000A6F856F8241002F001F802F0A5F8641C1C
:100AC000E4B2322CF3D34FF4FA71B0FBF1F00B49DE
:100AD00008606878401CC0B26870312800D96F7017
:100AE000BDE8F0810400002034000020FA3A00083C
:100AF0000000C842543A252E32660A000000002049
:100B000029490843294908607047F0B50F23C27886
:100B1000012601784FF0E027002A1BD0234A1268F3
:100B200002F4E062C2F5E062120AC2F10404D340AA
:100B30004578A54082781A402A4312011C4BCA54BA
:100B4000007800F01F018E40400907EB8000C0F8DC
:100B50000061F0BD01F01F008640480907EB8000EE
:100B6000C0F88061F0BD134A114001430F48001FD7
:100B7000016070470D4A121D002903D0116801431E
:100B80001160704711688143116070474FF0E02198
:100B9000042804D0086920F004000861704708693F
:100BA00040F00400086170470000FA050CED00E019
:100BB00000E400E080FFFF1F10B5DD4988420AD144
:100BC00044150121204600F096FE2046BDE8104065
:100BD000002100F090BED74988420AD104150121B6
:100BE000204600F088FE2046BDE81040002100F0BD
:100BF00082BED14988420AD10121CC03204600F0AF
:100C00007AFE2046BDE81040002100F074BE10BD01
:100C100010B54268C94B1A400C790B6842EA0422AD
:100C2000134343608268C64B1A40D1E90243234311
:100C30004C7942EA440213438360C26A22F4700290
:100C4000097C491EC9B242EA0151C16210BD0021AE
:100C50000160017141718160C160012101747047BF
:100C6000002904D0816841F00101816070478168EA
:100C700021F0010181607047002904D0816841F4AE
:100C8000807181607047816821F480718160704754
:100C9000C9B2002A03D042680A43426070474268E2
:100CA0008A4342607047816841F008018160704763
:100CB0000146002089680907002900DA01207047F1
:100CC000816841F004018160704701460020896815
:100CD0004907002900DA01207047002904D0816803
:100CE00041F4A00181607047816821F4A001816016
:100CF00070470146002089684902002900DA012076
:100D00007047426822F46042491E42EA4131416024
:100D10007047002904D0416841F400614160704788
:100D2000416821F400614160704770B507260929C8
:100D30000AD9C568A1F10A0404EB4404A640B543EE
:100D4000A3401D43C56007E0056901EB4104A640CF
:100D5000B543A3401D4305611F23072A09D2446BF5
:100D6000521E02EB820293409C4391400C43446329
:100D700070BD0D2A09D2046BD21F02EB8202934090
:100D80009C4391400C43046370BDC46A0D3A02EB6E
:100D9000820293409C4391400C43C46270BD002981
:100DA00004D0816841F4801181607047816821F42A
:100DB000801181607047C06C80B270475C484C30D5
:100DC00000687047002904D0416841F480614160A7
:100DD0007047416821F4806141607047002904D068
:100DE000416841F4805141607047416821F480516D
:100DF00041607047826822F4E0420A438260704793
:100E0000002904D0816841F4004181607047816805
:100E100021F4004181607047002904D0816841F4C9
:100E2000021181607047816821F40211816070476E
:100E30000146002089688902002900DA01207047F4
:100E400070B5072609290AD9C568A1F10A0404EB7F
:100E50004404A640B543A3401D43C56007E00569AF
:100E600001EB4104A640B543A3401D430561836BDC
:100E7000C3F30154121B921C02EB82021F24944004
:100E8000A34391400B43836370BD826B22F44012F5
:100E9000491E42EA01518163704708B500900098ED
:100EA000084400900098026008BD08B500900098C2
:100EB0000844283000900098006880B208BD42685D
:100EC000204B1A400A434260704741628262704779
:100ED000426822F01F020A434260704714490831F9
:100EE000002804D0086840F40000086070470868D3
:100EF00020F40000086070470246002012680A4291
:100F000000D001207047C9430160704710B5024608
:100F100000200B0A5468C9B20C401168194202D073
:100F2000002C00D0012010BD090AC94301607047A0
:100F30000024014000280140003C0140FFFEF0FF7A
:100F4000FDF7F1FFFFFD3FFFFE4A116801F0380198
:100F5000014311607047FB490A6822F008020A60E9
:100F60000A6802430A607047F6490A6822F01002D4
:100F70000A600A6802430A607047F248F249416019
:100F8000F24941607047EF48EF494160EF494160E5
:100F90007047EC48016941F0800101617047E94800
:100FA000016941F08001016170470420E549CA6888
:100FB000D20701D001207047CA68520701D502202C
:100FC0007047C968C906FBD50320704700B50346C2
:100FD000FFF7EBFF02E0FFF7E8FF5B1E012801D1FE
:100FE000002BF8D1002B00D1052000BD70B50546BF
:100FF0004FF430263046FFF7E9FF042811D1D14CD9
:10100000206940F0020020616561206940F04000E5
:1010100020613046FFF7DAFF216941F6FD72114089
:10102000216170BD30B54FF430252846FFF7CEFF63
:10103000042810D1C34C206940F0040020612069CD
:1010400040F0400020612846FFF7C0FF216941F6CB
:10105000FB721140216130BD00B50346FFF7A5FFCB
:1010600002E0FFF7A2FF5B1E012801D1002BF8D19F
:10107000002B00D1052000BD30B54FF430252846A7
:10108000FFF7EAFF042810D1AE4C206940F00400BD
:101090002061206940F0400020612846FFF7DCFF16
:1010A000216941F6FB721140216130BD0020A54944
:1010B000C9698907002900DA0120704770B5A525A4
:1010C000FFF7F4FF00B100254FF430263046FFF75C
:1010D0007DFF042818D19B4C9B48A0609B48A060D2
:1010E000206940F020002061206940F0400020612C
:1010F0003046FFF76BFF41F6EF76042805D0052850
:1011000002D021693140216170BD206941F6DF7153
:1011100008402061206940F0100020618C48058063
:101120004FF40050FFF752FF0528EDD02169314000
:10113000216170BD2DE9F84105460E460020009062
:101140004FF400573846FFF741FF04280FD17D4C7C
:10115000206940F0010020612E80B8464046FFF72C
:1011600035FFBF1E042804D0216939402161BDE844
:10117000F881AD1C00950099300C08804046FFF7BF
:1011800025FF216939402161F1E7F0B506460D469A
:101190004FF400573846FFF719FF04280CD1694C6B
:1011A000206940F00100206135803846FFF70EFFCE
:1011B0002169BA1E11402161F0BDF0B505460E4609
:1011C0004FF400573846FFF701FF042813D15D4C58
:1011D0005D48A0605D48A060206940F0100020617B
:1011E0002E803846FFF7F2FE052804D0216941F62B
:1011F000EF7211402161F0BD2DE9F043C043C4B24C
:10120000C0F30725C0F30746070E4FF400594846C0
:10121000FFF7DCFE04283CD1DFF828814A49C8F8F2
:1012200008104A49C8F80810D8F8101041F0100109
:10123000C8F81010FF2C05D04548083004804846F7
:10124000FFF7C4FE042807D1FF2D05D040480A301F
:1012500005804846FFF7BAFE042807D1FF2E05D0C7
:101260003B480C3006804846FFF7B0FE042807D103
:10127000FF2F05D036480E3007804846FFF7A6FE00
:10128000052806D0D8F8101041F6EF721140C8F8C2
:101290001010BDE8F08370B505464FF43026304697
:1012A000FFF794FE042818D1264C2748A060274851
:1012B000A060206940F020002061206940F04000DB
:1012C00020613046FFF782FE41F6DF71042805D029
:1012D000052802D022690A40226170BD20690840B9
:1012E0002061206940F010002061194815B10021EB
:1012F000018001E0A52101803046FFF767FE052847
:10130000EBD0216941F6EF721140216170BD2DE9EA
:10131000F04106460D4617460A4C0B48A0600B48A4
:10132000A0604FF400584046FFF750FE04281DD13E
:10133000206940F0100020613D43354345F0F8003E
:10134000034907E00020024023016745AB89EFCD48
:1013500000F8FF1F891C08804046FFF737FE05286C
:1013600004D0216941F6EF7211402161BDE8F0819E
:101370001E48C069800870471C48006A70470020FA
:101380001A4909688906002900DA01207047174ABE
:10139000002903D01169014311617047116981432C
:1013A0001161704701460020104A012904D0D2681B
:1013B0000A4200D001207047D169C907FBD0012043
:1013C00070470A49C860704704200849CA68D207B4
:1013D00001D001207047CA68520701D5022070472A
:1013E000C968C906FBD503207047000000200240F1
:1013F00010B59B49884209D10121042000F07BFAF5
:101400000021BDE81040042000F075BA95498842DB
:1014100009D10121082000F06EFA0021BDE810403A
:10142000082000F068BA9049884209D101211020B3
:1014300000F061FA0021BDE81040102000F05BBA16
:101440008A49884209D10121202000F054FA002164
:10145000BDE81040202000F04EBA8549884209D1ED
:101460000121402000F047FA0021BDE81040402053
:1014700000F041BA7F49884209D10121802000F063
:101480003AFA0021BDE81040802000F034BA7A49D1
:1014900088420AD184150121204600F02CFA20460A
:1014A000BDE81040002100F026BA10BD10B50121A2
:1014B000084600F020FA0021BDE81040012000F0AD
:1014C0001ABA2DE9F0410022CC7804F00F03E406AB
:1014D000002C01DA8C7823430C780F274FF0010C95
:1014E000E4B105680CFA02F40E882640A64211D138
:1014F000960007FA06F825EA080503FA06F848EA0E
:101500000505CE78282E02D0482E02D002E0446194
:1015100000E00461521C082AE4D305600A88FF2A0F
:101520001ED94568002202F108060CFA06F40E885E
:101530002640A64210D1960007FA06F825EA0805CB
:1015400003FA06F848EA0505CE78282E00D1446152
:10155000CE78482E00D10461521C082AE3D345609E
:10156000BDE8F0814FF6FF710180022181700421F6
:10157000C17070470246002092680A4200D00120E4
:101580007047806880B2704702460020D2680A42E5
:1015900000D001207047C06880B270470161704779
:1015A00041617047002A01D0016170474161704775
:1015B000C160704741F480328261816182618169DA
:1015C0008069704710B52D4B1A684FF68074224021
:1015D00042EA00100843186010BD2949C8617047ED
:1015E000F0B5264C002801DAE36900E06368C0F337
:1015F0000346420D120185B2C0F301579540032FF7
:1016000007D0C2020CD50322B240934343F070626C
:1016100009E023F07062636823F07063636002E0A6
:10162000AB4343F0706201B12A43002801DAE26162
:10163000F0BD6260F0BD10B58A07120F0F23934012
:1016400021F003040D4921448C689C438C608B6815
:10165000904003438B6010BD0A490860704700004A
:1016600000080140000C014000100140001401403E
:1016700000180140001C0140002001400000014012
:1016800000002042DC002042B348016841F0010123
:1016900001604168B14A114041600168B04A11409F
:1016A0000160016821F480210160416821F4FE019C
:1016B00041604FF41F0181607047A7490A6822F416
:1016C00080320A600A6822F480220A60B0F5803F06
:1016D00007D0B0F5802F03D1086840F4A02008603F
:1016E0007047086840F48030086070470346002067
:1016F0005909994A01290AD002290AD0516A03F0EE
:101700001F02012393400B4200D001207047116853
:10171000F5E7116AF3E718B5002000904FF4A064D4
:101720003120FFF7E3FF0099491C00910099A14285
:1017300001D00028F4D03120FFF7D8FF08B10120F4
:1017400018BD002018BD844A116821F0F80141EA53
:10175000C000106070478349086070477E4B5A682C
:1017600022F47C1208431043586070477D49086694
:101770007047794A516821F0030101435160704775
:101780007548406800F00C007047734A516821F0BA
:10179000F0010143516070476F4A516821F4E061E4
:1017A0000143516070476C4A516821F4605141EA2D
:1017B000C00050607047684A002903D0517A014345
:1017C00051727047517A814351727047664908607F
:1017D0007047614A516821F44041014351607047AC
:1017E000624900220A7001F82029012805D0042846
:1017F00002D1052081F820007047012081F82000E7
:1018000070475B490860704753490A6A02430A629D
:101810007047574944390860704710B54E4A5168BF
:1018200001F00C01534B002927D0042927D00829A7
:1018300027D00360516801F0F00109094E4B5C5C50
:101840000168E1404160546804F4E064240A1C5DCE
:1018500021FA04F48460546804F46054E40A1B5DC3
:10186000D940C160526802F44042920B424B1B1FA8
:101870009A5CB1FBF2F1016110BD0360DAE703602D
:10188000D8E7516801F47011536803F480330224DF
:1018900004EB914133B153689B0307D5374B594350
:1018A0000160C7E7354B59430160C3E7314B5943EA
:1018B0000160BFE7284A002903D051690143516103
:1018C00070475169814351617047234A002903D011
:1018D00091690143916170479169814391617047BA
:1018E0001D4A002903D0D1690143D1617047D169F4
:1018F0008143D1617047184A002903D0D168014360
:10190000D1607047D1688143D1607047124A002985
:1019100003D011690143116170471169814311615D
:10192000704713494039086070470E49C8647047D2
:101930000949C87170470848416A41F080714162A5
:10194000704701460020044A92680A4200D00120F4
:101950007047014988727047001002400000FFF88C
:10196000FFFFF6FE00004242D80042422010024033
:101970008004424200127A000C00002000093D0061
:1019800010B5FE4988420AD1C41401212046FFF750
:10199000B2FF2046BDE810400021FFF7ACBFB0F118
:1019A000804F0CD0F649884213D101210220FFF765
:1019B000ADFF0021BDE810400220FFF7A7BF0121C5
:1019C0000846FFF7A3FF0021BDE810400120FFF704
:1019D0009DBFEC49884209D101210420FFF796FF01
:1019E0000021BDE810400420FFF790BFE64988427F
:1019F00009D101210820FFF789FF0021BDE810402F
:101A00000820FFF783BFE149884209D10121102056
:101A1000FFF77CFF0021BDE810401020FFF776BFE4
:101A2000DB49884209D101212020FFF76FFF002107
:101A3000BDE810402020FFF769BFD64988420AD18F
:101A4000441401212046FFF756FF2046BDE8104010
:101A50000021FFF750BFD04988420AD10121CC04B0
:101A60002046FFF748FF2046BDE810400021FFF761
:101A700042BFCA4988420AD101210C052046FFF71E
:101A80003AFF2046BDE810400021FFF734BFC449AB
:101A900088420AD101214C052046FFF72CFF204641
:101AA000BDE810400021FFF726BFBE49884209D19A
:101AB00001214020FFF72AFF0021BDE8104040200F
:101AC000FFF724BFB849884209D101218020FFF7E0
:101AD0001DFF0021BDE810408020FFF717BFB3496C
:101AE00088420AD1841501212046FFF70FFF2046C6
:101AF000BDE810400021FFF709BFAD4988420AD177
:101B000001210C042046FFF7F6FE2046BDE81040F8
:101B10000021FFF7F0BEA74988420AD101214C04F9
:101B20002046FFF7E8FE2046BDE810400021FFF701
:101B3000E2BEA14988420AD101218C042046FFF768
:101B4000DAFE2046BDE810400021FFF7D4BE10BDEC
:101B500030B50288894C8F4DA0420DD0A8420BD0E1
:101B6000B0F1804F08D0864B984205D0854B984203
:101B700002D0854B984203D122F070034A881A4361
:101B8000824B984206D0824B984203D022F4407395
:101B9000CA881A4302808A8882850A880285A04200
:101BA0000AD0A84208D0824A904205D0814A904289
:101BB00002D0814A904201D1097A018601218182B5
:101BC00030BD30B5028C22F001020284028C838881
:101BD000048B24F0700424F003050C882C4322F0BD
:101BE00002020D8915434A882A43644DA8420BD04E
:101BF000684DA84208D06E4DA84205D06D4DA84250
:101C000002D06D4DA8420FD122F008054A892A431F
:101C100022F004058A882A4323F4807323F4007396
:101C20008D891D43CB892B4383800483C98881869A
:101C3000028430BD70B5028C22F010020284028C46
:101C40008388048B24F4E04424F440760D884FF616
:101C5000FF7404EA0525354322F020020E8904EAC8
:101C6000061616434A8804EA02123243434EB04233
:101C700002D0484EB04217D122F080024E8904EAC9
:101C80000616164326F040068A8804EA02123243FA
:101C900023F4806323F400638E8904EA86061E43DE
:101CA000CB8904EA8303334383800583C988018792
:101CB000028470BD70B5028C22F480720284028CA2
:101CC0008388848B24F0700424F003040D8825435A
:101CD00022F400720E894FF6FF7404EA06261643BA
:101CE0004A8804EA02223243244EB04202D0294EEE
:101CF000B04217D122F400664A8904EA0222324334
:101D000022F480668A8804EA0222324323F4805354
:101D100023F400538E8904EA06161E43CB8904EA95
:101D20000313334383808583C9888187028470BD10
:101D300070B5028C22F480520284058C8288838BD9
:101D400023F4E04323F440760C884FF6FF7303EA54
:101D50000424344325F400550E8903EA06362E4345
:101D60004D8803EA05353543044EB04202D0094E92
:101D7000B04226D122F480468A891FE0002C01401F
:101D80000004004000080040000C0040001000402B
:101D90000014004000340140004C0140005001405C
:101DA0000054014000180040001C0040002000408A
:101DB00000400140004401400048014003EA821213
:101DC000324382808483C988A0F84010058470BDA6
:101DD000828B22F440628283828B4FF6FF7303EA88
:101DE00001210A4382837047F0B5048C24F48054A7
:101DF0000484868B048C4FF6FF7505EA013726F4C0
:101E0000734605EA0222324305EA03331343F74AD5
:101E100090420ED0F64A90420BD0B0F1804F08D0DD
:101E2000F44A904205D0F44A904202D0F34A9042DC
:101E300005D124F40051394341F4805104E024F4E5
:101E400002420A4342F4805183830184F0BD828BB5
:101E500022F00C028283828B0A4382837047F0B5A2
:101E6000048C24F480740484858B048C4FF6FF77F3
:101E700007EA012625F0F30507EA031313432B4372
:101E8000DA4A90420ED0DA4A90420BD0B0F1804F3D
:101E900008D0D84A904205D0D74A904202D0D74ABB
:101EA000904205D124F40071314341F4807104E083
:101EB00024F420620A4342F4807183830184F0BDDC
:101EC000028B22F440620283028B4FF6FF7303EA17
:101ED00001210A4302837047F0B5048C24F01004FA
:101EE0000484068B048C4FF6FF7505EA011726F46F
:101EF000734605EA0333334305EA02221A43BB4B18
:101F000098420ED0BA4B98420BD0B0F1804F08D017
:101F1000B84B984205D0B84B984202D0B74B984284
:101F200005D124F02001394341F0100104E024F0F0
:101F3000A0030B4343F0100102830184F0BD028B28
:101F400022F00C020283028B0A430283704770B5B1
:101F5000048C24F001040484058B048C25F0F30523
:101F60004FF6FF7606EA031313432B439F4A904232
:101F70000ED09F4A90420BD0B0F1804F08D09D4ABE
:101F8000904205D09C4A904202D09C4A904205D192
:101F900024F002020A4342F0010104E024F00A02A4
:101FA0000A4342F001010383018470BD70B5054608
:101FB0000C468E48854209D08D48854206D0B5F141
:101FC000804F03D08B48854200D08B4820886188A1
:101FD000A288238958B1042811D0082817D0284690
:101FE000FFF702FFE1882846BDE87040F0E628468A
:101FF000FFF7ADFFE1882846BDE870409FE728461F
:10200000FFF76AFFE1882846BDE8704058E7284698
:10201000FFF725FFE1882846BDE8704017E72DE966
:10202000F04107460C46002501266188002900D1B1
:102030000225A288012A00D102262088238988B19E
:102040003846FFF749FFE1883846FFF739FF238913
:10205000324629463846FFF77AFFE1883846BDE820
:10206000F0416CE73846FFF772FFE1883846FFF72A
:1020700066FF2389324629463846FFF72DFFE1885F
:102080003846BDE8F0411BE710B50A884B88CC887C
:102090001A438B8823431A430B891A434B89898936
:1020A0001A430A43A0F8442010BD4FF6FF71818007
:1020B00000210180C18041800172704700210180B0
:1020C00041808180C180018141818181C1817047CE
:1020D00000210180418001228280C18001817047FE
:1020E0000021018041808180C18001814181818105
:1020F0007047002904D0018841F001010180704738
:10210000018821F0010101807047002905D030F8D5
:10211000441F41F400410180704730F8441FC1F36F
:102120000E0101807047002A03D082890A43828110
:10213000704782898A438281704781827047114348
:10214000A0F848107047002A03D082890A43828190
:10215000704782898A4382817047018921F0070193
:1021600001817047028922F070020A4302817047A0
:1021700000B503461846FFF7F5FF188940F0070041
:10218000188100BD70B50D4604461146602D0CD077
:1021900001222046FFF7DBFE29462046FFF7E2FF3B
:1021A000208940F00700208170BD01222046FFF702
:1021B00093FEF1E730B50489E4B24FF6FF7505EA06
:1021C000032313430B432343038130BD10B504465F
:1021D0002046FFF7EFFF208920F0070040F00700BE
:1021E00020F0700040F07000208110BD002C0140F4
:1021F000003401400004004000080040000C004092
:1022000010B504462046FFF7D5FF208940F48040F2
:102210002081EAE7018582827047028822F07002FD
:102220000A430280704770B50589048B068C25F03F
:1022300007050D434FF6FC410C4040F201110C43E1
:1022400026F022064FF6FF7101EA031111433143D4
:1022500005810483018470BD028B22F070020A4361
:1022600002837047028B22F4E0424FF6FF7303EAC9
:102270000121114301837047828B22F070020A43CF
:1022800082837047828B22F4E0424FF6FF7303EAA9
:102290000121114381837047002904D0018841F056
:1022A000800101807047018821F080010180704722
:1022B000002904D0818841F0040181807047818821
:1022C00021F0040181807047002904D0818841F009
:1022D000080181807047818821F008018180704762
:1022E000002904D0818841F00101818070478188F4
:1022F00021F0010181807047028B22F008020A431D
:1023000002837047028B22F400624FF6FF7303EAE8
:102310000121114301837047828B22F008020A4396
:1023200082837047828B22F400624FF6FF7303EAC8
:102330000121114381837047028B22F004020A437A
:1023400002837047028B22F480624FF6FF7303EA28
:102350000121114301837047828B22F004020A435A
:1023600082837047828B22F480624FF6FF7303EA08
:102370000121114381837047028B22F080020A43BE
:1023800002837047028BC2F30E024FF6FF7303EA1B
:102390000121114301837047828B22F080020A439E
:1023A00082837047828BC2F30E024FF6FF7303EAFB
:1023B0000121114381837047028C22F002020A43FB
:1023C00002847047028C22F008020A43028470479C
:1023D000028C22F020024FF6FF7303EA0111114331
:1023E00001847047028C22F080024FF6FF7303EAEB
:1023F0000111114301847047028C22F400724FF6E0
:10240000FF7303EA0121114301847047028C22F417
:1024100000624FF6FF7303EA012111430184704704
:10242000028C22F400524FF6FF7303EA013111438C
:102430000184704710B501238B40048C9C430484B5
:10244000038C8A4013430384CFE610B504238B40EA
:10245000048C9C430484038C8A4013430384C4E6A5
:1024600030B500F1180301248C40058CA543058488
:10247000002911D008290FD0091FC1F34E001844BC
:10248000016821F4E041016001684FF6FF7303EA3F
:1024900002221143016030BD03EB5100016821F0BD
:1024A0007001016001681143016030BD002904D052
:1024B000018841F0020101807047018821F002018A
:1024C00001807047002904D0018841F00401018097
:1024D0007047018821F0040101807047002904D071
:1024E000818841F0800181807047818821F08001DE
:1024F00081807047028822F00802028002880A4325
:1025000002807047828822F07002828082880A43AB
:1025100082807047028922F00702028102890A4301
:1025200002817047028922F08002028102890A43F7
:10253000028170478184704781857047818670472A
:102540000187704781877047A0F840107047028864
:1025500022F44072028002880A4302807047808E13
:102560007047008F7047808F7047B0F84000704709
:10257000808C7047008D704702460020128A0A4204
:1025800000D001207047C9430182704702460020F5
:10259000138A0B4092890A40002B02D0002A00D0F7
:1025A00001207047C94301827047000010B5E1491E
:1025B00088420AD101218C032046FFF79CF920466E
:1025C000BDE810400021FFF796B9DB4988420AD1E7
:1025D00001214C042046FFF799F92046BDE8104040
:1025E0000021FFF793B9D54988420AD101218C0413
:1025F0002046FFF78BF92046BDE810400021FFF789
:1026000085B9CF4988420AD10121CC042046FFF781
:102610007DF92046BDE810400021FFF777B9C94990
:1026200088420AD101210C052046FFF76FF92046A8
:10263000BDE810400021FFF769B910BD30B585B085
:1026400004460D46208A4CF6FF710840E988014394
:102650002182A0894EF6F3110840A9882A891143E6
:102660006A8902431143A181A08A4FF6FF410840C5
:10267000A9890143A1826846FFF7CFF8AD4884429B
:1026800001D1039800E00298A189090408D500EB64
:10269000C00101EB001029684900B0FBF1F007E030
:1026A00000EBC00101EB001029688900B0FBF1F0DC
:1026B0006422B0FBF2F109010B096FF018056B43BE
:1026C00000EB8300A3891D044FF0320307D503EB11
:1026D000C000B0FBF2F000F00700084306E003EB97
:1026E0000010B0FBF2F000F00F000843208105B0AD
:1026F00030BD4FF41651016000218180C1800181FD
:102700000C2242818181704710B5038A4FF2FF028B
:1027100013400A884C8822438C88C9880C43224382
:102720001A43028210BD0021018041808180C18056
:102730007047002904D0818941F40051818170479C
:10274000818921F400518181704710B540F66A13E8
:10275000C1F3421301F01F040121A140012B07D056
:10276000022B07D014303AB102680A43026010BD50
:102770000C30F8E71030F6E702688A43026010BDBB
:10278000002A03D0828A0A4382827047828A8A435F
:1027900082827047028A22F00F020282028A0A4372
:1027A00002827047828922F40062828182890A4310
:1027B00082817047002904D0818941F00201818122
:1027C0007047818921F0020181817047028A22F0DD
:1027D00020020282028A0A4302827047002904D042
:1027E000018A41F4804101827047018A21F48041CD
:1027F00001827047C1F30801818070478088C0F36F
:1028000008007047818941F0010181817047028B86
:10281000D2B20283028B42EA012101837047028B0C
:1028200002F47F420283028B0A430283704700292D
:1028300004D0818A41F0200181827047818A21F091
:10284000200181827047002904D0818A41F0100163
:1028500081827047818A21F01001818270470029AE
:1028600004D0818A41F0080181827047818A21F079
:10287000080181827047002904D0818941F4004118
:10288000818170478189C1F30E01818170470029E0
:1028900004D0818A41F4006181827047818A21F4E9
:1028A000006181827047828A22F004028282828AD9
:1028B0000A4382827047002904D0818A41F00201D4
:1028C00081827047818A21F002018182704702462D
:1028D000002012880A4200D0012070478A05C943AF
:1028E0000180704770B5002440F66A12C1F34213AC
:1028F00001F01F05012606FA05F2012B0CD0022B70
:102900000DD0838A1340090A8E40008830400BB1F5
:1029100000B10124204670BD83891340F3E7038A88
:102920001340F0E740F66A120A0A01219140C943B8
:1029300001807047003801400044004000480040DA
:10294000004C0040005000400CB500220192009263
:102950005248016841F4803101604FF4A06301687E
:1029600001F4003100910199491C0191009911B9BC
:1029700001999942F3D10168890302D5012100919F
:1029800000E000920099012930D145490A6842F0DF
:1029900010020A600A6822F003020A600A6842F024
:1029A00002020A604168416041684160416841F447
:1029B00080614160416821F47C114160416841F4CB
:1029C000E8114160016841F080710160016889018E
:1029D000FCD5416821F003014160416841F00201EA
:1029E00041604168C1F381010229FAD10CBDABE716
:1029F00010B52A48016841F0010101604168294A87
:102A0000114041600168284A11400160016821F4C9
:102A100080210160416821F4FE0141604FF41F01F3
:102A20008160FFF7E4FF21494FF00060086010BDAE
:102A300010B51A4A506800F00C011D4B1D480029C2
:102A40000ED004290ED008290ED003605168194A0F
:102A5000C1F30311121D515C0268CA40026010BD2F
:102A60000360F3E70360F1E7516801F47011536804
:102A700003F48033022404EB914133B153689B0388
:102A800007D50D4B59430160E0E70B4B59430160FB
:102A9000DCE7074B59430160D8E700000010024013
:102AA000002002400000FFF8FFFFF6FE08ED00E006
:102AB00000127A001C00002000093D00F0B480EAFA
:102AC0000102D40F4200B2EB410F02D20246084687
:102AD00011464A0042D0C30DDDB2C1F3C752AD1A50
:102AE000202D35DAC1F3160141F4000204B152423F
:102AF000C5F1200602FA06F12A411044B3EBD05F7B
:102B000023D0C4B1012DA0EBC35009DCF0BC4FF0C1
:102B1000004202EAC35200F50000DBB200F0EBB85D
:102B2000400000F1807000EBC350A0F1807040EADB
:102B3000D170490009E0490841EAC071A0EBC350D7
:102B400000F50000400800EBC350F0BC00F0CAB82C
:102B50006142012202EB4101001BF6E7F0BC704725
:102B600081F00041AAE780F00040A7E730B480EA96
:102B7000010202F0004530F0004221F0004015D083
:102B8000A0B1C0F3C753C2F3C754C2F31601C0F3D8
:102B90001600E41A41F4000140F400027D34914231
:102BA00001D3641C00E04900002C02DA30BC002094
:102BB00070474FF400000023914201D3891A034368
:102BC00040084FEA4101F7D151B1914202D14FF093
:102BD000004105E002D24FF0010101E06FF0010178
:102BE00003EBC450284430BC00F07CB8C10F80EA2D
:102BF000E0700844CA079623002100F07CB89623B1
:102C00000022114600F077B820F00040C10DC0F35B
:102C1000160040F400007F2901DA00207047962951
:102C200003DCC1F19601C84070479639884070476F
:102C300000F0004230F000400AD0C10D01F5607193
:102C4000C0F3160042EA0151C20840071143704721
:102C500000200146704730B50B4601460020202277
:102C6000012409E021FA02F59D4205D303FA02F599
:102C7000491B04FA02F52844151EA2F10102F1DCF9
:102C800030BD2DE9F05F0546002092469B46884600
:102C90000646814640241BE02846414647462246D8
:102CA00000F02BFA53465A46C01A914110D31146F0
:102CB0001846224600F012FA2D1A67EB01084F461B
:102CC00022460120002100F009FA17EB00094E41CD
:102CD000201EA4F10104DFDC484631462A46434663
:102CE000BDE8F09F0029A8BF7047401C490008BFFD
:102CF00020F00100704710B4B0FA80FC00FA0CF02C
:102D000050EA010404BF10BC704749B1CCF1200463
:102D100021FA04F411FA0CF118BF012121430843F0
:102D2000A3EB0C01CB1D0106000A002BBEBF002047
:102D300010BC704700EBC35010440029A4BF10BC66
:102D40007047401C490008BF20F0010010BC7047CC
:102D50002DE9FE4F804681EA0300C00F0C4600902B
:102D600021F0004123F00045B8EB0200A94105D253
:102D70004046214690461C460B46024623F0004042
:102D8000104304D14046214603B0BDE8F08F270D23
:102D9000C7F30A00C3F30A510290401A0190402879
:102DA00066DAC3F3130040F4801B0098924620B10A
:102DB0000023D2EB030A63EB0B0B01985946C0F1D9
:102DC0004002504600F08AF906460D4650465946E4
:102DD000019A00F0A2F910EB08006141002487EA93
:102DE000115284EAE7731A433BD0009A3AB3019A2E
:102DF000012A4FEA075210DC001B61EB02014FF081
:102E0000004202EA0752CDE90042001C41F5801160
:102E100032462B4600F0A0F9B6E7001B61EB020139
:102E2000001C41F5801300185B412018A2F5001723
:102E300047EB030140EAD570B6196D4111E06D080A
:102E40004FEA360645EAC0754FEA0752001B61EBB0
:102E50000201001C41F5801149084FEA30000019B9
:102E6000514132462B4603B0BDE8F04F00F067B940
:102E70000098012240000023D0EB020263EBE073D4
:102E8000009821464FEAE074B8EB000061EB0401C2
:102E9000E9E783F000435BE781F0004158E72DE963
:102EA000FE4F81EA030404F0004421F00041009445
:102EB0004FF0000B23F0004350EA010402D052EA25
:102EC000030404D10020014603B0BDE8F08FC3F332
:102ED0000A54C1F30A552C44A4F2F3340194A0FB24
:102EE0000254C1F3130141F48011C3F3130343F4FB
:102EF000801301FB024400FB034E840A970A44EA54
:102F0000815447EA8357A4FB076802958D0A05FBA5
:102F100007854FEA932C04FB0C542705029D4FEACA
:102F2000065847EA1637B5EB08056EEB070C870E17
:102F3000920E47EA811742EA8312A7FB0201B6EB21
:102F40000B0164EB00042B0D43EA0C335E1844EBD9
:102F50001C50DA465146E7FB0201C5F313044FEA61
:102F60000B3343EA14534FEA0432019C43EA06034D
:102F7000A4F10C040294009CCDE900B400F0ECF83C
:102F8000A2E72DE9F04D81EA030404F0004B21F0A3
:102F9000004514464FF0000A23F0004150EA0502B4
:102FA00020D054EA01021DD0C5F30A570246C5F3EA
:102FB0001303C1F31300C1F30A5640F4801543F420
:102FC0008013A7EB0608101BD64608F2FD3873EBFA
:102FD000050002D308F1010801E092185B41B8F145
:102FE000000F03DA00200146BDE8F08D00204FF409
:102FF0008011064684460EE0171B73EB050705D3C8
:10300000121B63EB050306434CEA010C49084FEA27
:10301000300092185B4150EA0107EDD152EA0300FB
:1030200012D082EA040083EA0501084303D100229A
:103030004FF0004308E0101BAB4102D201220023F5
:1030400002E06FF0010253101AEB06004CEB08513E
:1030500010EB0A0041EB0B01BDE8F04D00F06FB83A
:10306000C1F30A52C1F3130140F2FF3341F480115E
:103070009A4202DA00200146704740F233439A42F6
:10308000A2F2334202DC524200F037B800F026B818
:1030900030B5002904DB4FF00044404264EB0101ED
:1030A000002B04DB4FF00044524264EB03039942CF
:1030B00008BF904230BD0000064C074D06E0E068B6
:1030C00040F0010394E8070098471034AC42F6D36F
:1030D000FDF732F8343B0008543B0008202A04DB9B
:1030E000203A00FA02F1002070479140C2F120031B
:1030F00020FA03F3194390407047202A04DB203A5A
:1031000021FA02F00021704721FA02F3D040C2F107
:1031100020029140084319467047202A06DBCB174E
:10312000203A41FA02F043EAE07306E041FA02F382
:10313000D040C2F12002914008431946704710B5B3
:10314000002B08DA401C41F1000192185B411A4340
:1031500001D120F0010010BD2DE9F04D92469B46B3
:1031600011B1B1FA81F202E0B0FA80F22032904659
:10317000FFF7B4FF04460F4640EA0A0041EA0B019C
:1031800053465A46084303D120463946BDE8F08DE0
:10319000114653EA010015D0C8F140025046FFF72E
:1031A000ACFF05460E46504659464246FFF796FF8D
:1031B000084301D0012000E00020054346EAE07604
:1031C0002C4337430A984FEA4453A0EB08004FEAD8
:1031D000D4240A304FF0000244EA47544FEAD7257E
:1031E00002D500200146D1E7010510196941DDE94A
:1031F000084500196941BDE8F04DA0E70FB4054B43
:1032000010B503A9044A029800F0C6F810BC5DF896
:1032100014FB0000DF0400083000002002E008C8B2
:10322000121F08C1002AFAD170477047002001E040
:1032300001C1121F002AFBD1704700002DE9FF5F7A
:10324000DDE90220010DDDF838B0024310D10F98FE
:1032500001244CA2012808D0002100980F9BC0E94E
:103260000021C0E90243BDE8FF9F6FEA0B01F4E7CC
:10327000A1F2FF3144F6105041430D140F9801287C
:103280000ED0A5EB0B00401C4FF000043E4EDFF8C3
:10329000FC90B0F1000AA04605DACAF1000717E079
:1032A000CBF10000F0E7074612E0F80707D022460E
:1032B000334640464946FFF7F2FD8046894622469E
:1032C000334610461946FFF7EAFD04460E467F10C6
:1032D000002FEAD1DDE90201BAF1000F42464B4668
:1032E00002DAFFF7DCFD01E0FFF74BFE04460E4675
:1032F0000022274BFFF7CCFE03D84FF0FF300146EA
:1033000007E00022234B20463146FFF721FDFFF75F
:10331000A7FE102409E0002C0ADB0A220023FFF795
:10332000B0FC019B30321A55641E50EA0102F2D102
:10333000641C019AC4F1110314440F9A012A09D0A4
:103340000122084301D15B450FDD4FF0000205F17A
:1033500001050DE0084303D1A3EB0B056D1E09E049
:1033600000204FF0110B0F9088E701DA00226D1E4C
:10337000002A83D000980F99C0E90231C0E90045C6
:1033800071E7000030000000000024400000F03F22
:103390000000F0430000E03F2DE9FF4F95B09B4651
:1033A00089460646002512E2252878D10024761C9D
:1033B000F94A2746012105943378203B01FA03F0AE
:1033C000104202D00443761CF6E730782A2811D048
:1033D0006FF02F033078A0F13002092A16D8059A31
:1033E00044F0020402EB820203EB42021044761C1A
:1033F0000590EFE759F8042B0592002A03DA5042B2
:1034000044F40054059044F00204761C30782E28D1
:1034100016D116F8010F44F004042A280DD06FF0DD
:103420002F023078A0F13003092B09D807EB87036E
:1034300002EB4303C718761CF3E759F8047B761CAC
:1034400030786C280FD006DC4C2817D068280DD0B7
:103450006A2814D104E0742810D07A280FD10DE026
:1034600044F400140AE044F4801401E044F44014ED
:103470007278824202D1761C04F58014761C307872
:1034800066280BD013DC582877D009DC002875D0CB
:103490004528F6D04628F4D047281AD19FE118E0F5
:1034A000632835D0642879D0652812D197E1702837
:1034B00073D008DC6728F1D069286FD06E280DD052
:1034C0006F2806D1B5E073282CD0752875D07828E0
:1034D00074D05A46179990476D1C76E1C4F3025098
:1034E000022809D003280DD0D9F8001004280DD0E7
:1034F0000D6009F1040968E1D9F80010EA17C1E983
:103500000052F6E7D9F800100D80F2E70D70F0E7F1
:1035100019F8041B8DF8001000208DF80100EA4610
:10352000012003E059F804AB4FF0FF3061074FF082
:10353000000102D40DE008F101018846B9420FDA1A
:103540008045F8DB1AF808100029F4D108E008F1EA
:10355000010188468142FADB1AF808100029F6D1E9
:1035600005985B46A0EB080721463846179A00F0FD
:103570009EFA284400EB080507E04DE02BE10DE042
:103580001AF8010B5A4617999047B8F10108F7D27B
:103590005B4621463846179A14E142E00A2200921F
:1035A000C4F302524FF0000A022A08D059F804CBA3
:1035B000032A4FEAEC710AD00DE029E02AE009F174
:1035C000070121F00702F2E802C1914609E00FFA73
:1035D0008CFC4FEAEC71042A03D14FFA8CFC4FEAC1
:1035E000EC71002907DA0A460021DCF1000C61EBDE
:1035F00002012D2202E0220504D52B228DF80420A1
:10360000012203E0E20701D02022F7E7904653E0D1
:103610000A2102E010220DE010214FF0000A009173
:103620000BE010224FF0000A44F004040827009237
:1036300003E008224FF0000A0092C4F30252022A6B
:1036400005D059F804CB0021032A08D009E009F17C
:10365000070121F00702F2E802C1914605E01FFAD6
:103660008CFC042A01D10CF0FF0C4FF0000822075B
:1036700022D5702827D0009B83F0100353EA0A0359
:1036800009D15CEA010206D030228DF804208DF8C1
:10369000050002229046009B83F0080353EA0A03C8
:1036A0000AD15CEA010201D1620705D530228DF80A
:1036B00004204FF001087F1E582809D037A003903E
:1036C0000EA8029013E040228DF804200122E1E7C9
:1036D00037A0F4E753466046009AFFF7D2FA8446D3
:1036E0000398825C0298A0F10100029002705CEAEB
:1036F0000100EFD1029806A9A1EB000000F1200A19
:10370000600702D524F4803400E00127574502DD2C
:10371000A7EB0A0000E0002000EB0A0100900598EA
:103720004144A0EB01000590E00306D45B4621462E
:10373000179A059800F0BBF90544002706E001A898
:103740005A46C05D179990476D1C7F1C4745F6DBB4
:10375000E0030CD55B462146179A059800F0A7F9BF
:10376000054404E030205A46179990476D1C009993
:10377000481E00900029F5DC08E0029802995A469C
:103780000078491C0291179990476D1CBAF100010D
:10379000AAF1010AF1DC6BE1092801003031323372
:1037A000343536373839616263646566000000007D
:1037B0003031323334353637383941424344454667
:1037C0000000000000F060F9054406F101063078C1
:1037D00000287FF4E9AD19B02846BDE8F08F6207F4
:1037E00000D4062709F1070222F0070CFCE80223A7
:1037F000E14603F000485FEA080C02D00FF27C2C8F
:103800000DE05FEA045C02D50FF2742C07E05FEA7A
:10381000C47C02D00FF26C2C01E0AFF2700C4FF0C0
:10382000FF3823F00043CDF850C065280CD006DCEB
:10383000452809D046281DD047283ED13EE06628BD
:1038400018D0672839D139E00021112F01DB112070
:1038500000E0781CCDE9000106A90EA8FFF7EEFCF8
:10386000DDE90F010E9A03910021009207F1010A90
:1038700004914EE04FF000400097CDE9011006A9F9
:103880000EA8FFF7DBFCDDE90F0203920E9B1199F6
:103890000022DDF80CA00093049219B907F1010190
:1038A00000EB010AB7EB0A0004D4C0F1FF3007F1C6
:1038B000010A0490AAEB0700019046E0012F00DA0C
:1038C00001270021112F01DD112000E03846CDE94C
:1038D000000106A90EA8FFF7B1FCDDE90F010E9A61
:1038E0000391002104910092BA4621070CD4039958
:1038F000514500DA8A46BAF1010F05DD009AAAF1B6
:103900000101515C302908D0B84202DA10F1040FED
:1039100006DA0121CDE9011017E0AAF10101E9E77A
:10392000002805DC049901440491AAEB000102E09F
:10393000411C514500DD8A460499A0EB010000F1CD
:10394000010001904FF000400290200704D401983C
:10395000504501DBCDF8048000208DF84F0002981F
:103960000DF14F07B0F1004F25D02B200E9002989B
:103970004FF0020800280CDA404202902D200E90F1
:1039800007E00A210298FFF766F93031029007F844
:10399000011DB8F10001A8F10108F2DC029800282D
:1039A000EFD1791E0E980870307800F0200040F0BA
:1039B000450007F8020D12A8A0EB070000F1070868
:1039C0001498007800B1012000EB0A01019801EB86
:1039D000E07105984144A0EB0100A0F101000590C1
:1039E000E00306D45B462146179A059800F05FF87D
:1039F00005441498007820B15A461799904705F16C
:103A00000105E00323D55B462146179A059800F08F
:103A10004EF805441BE00498002807DBDDE90301AC
:103A2000884203DD0098405C179901E01799302027
:103A30005A46904704986D1C401C04900198401E03
:103A4000019004D12E205A46179990476D1CBAF167
:103A50000001AAF1010ADEDC05E017F8010B5A4665
:103A6000179990476D1CB8F10001A8F10108F4DC2A
:103A70005B462146179A0598A4E600002D00000039
:103A80002B000000200000002DE9F0410446002535
:103A90001E461746880405D406E039462020B04764
:103AA00005F10105641EF8D52846BDE8F0812DE931
:103AB000F041044600251E469046C80301D5302734
:103AC00000E02027880405D506E041463846B04787
:103AD00005F10105641EF8D52846BDE8F0811A09F4
:103AE000A6093C0AD20A680B900B260CBC0CEE0C03
:103AF000840D1A0EB00E460F00007306CA06390771
:103B00009D070C0825089508F80811098109F10995
:103B1000540AC40A0000EA105410C80F3C0FBA0E31
:103B2000920E1A0EAC0D840D160DB20C580CF40B3F
:103B300000000000543B000800000020340000009A
:103B40001C320008883B00083400002004050000F7
:103B50002C320008000000000000000002040608EB
:103B60000000000001020304010203040607080923
:103B700000A24A040000000000000000010203044B
:083B800006070809000000001F
:0400000508000131BD
:00000001FF
