:020000040800F2
:10000000E006002001010008090100080B010008BA
:100010000D0100080F010008110100080000000098
:1000200000000000000000000000000013010008B4
:1000300015010008000000001701000871240008E5
:100040001B0100081B0100081B0100081B01000820
:100050001B0100081B0100081B0100081B01000810
:100060001B0100081B0100081B0100081B01000800
:100070001B0100081B0100081B0100081B010008F0
:100080001B0100081B0100081B0100081B010008E0
:100090001B0100081B0100081B0100081B010008D0
:1000A0001B0100081B0100081B0100081B010008C0
:1000B0001B0100080D2500081B0100081B0100089A
:1000C0001B0100081B0100081B0100081B010008A0
:1000D0001B0100081B0100081B0100081B01000890
:1000E0001B0100081B0100081B010008DFF80CD0F1
:1000F00000F06CFB0048004769300008E006002073
:100100000648804706480047FEE7FEE7FEE7FEE7B1
:10011000FEE7FEE7FEE7FEE7FEE7FEE7C524000890
:10012000ED000008202A04DB203A21FA02F0002129
:10013000704721FA02F3D040C2F1200291400843F7
:1001400019467047F0B480EA0102D40F4200B2EBC6
:10015000410F02D20246084611464A0042D0C30D62
:10016000DDB2C1F3C752AD1A202D35DAC1F3160145
:1001700041F4000204B15242C5F1200602FA06F130
:100180002A411044B3EBD05F23D0C4B1012DA0EBC2
:10019000C35009DCF0BC4FF0004202EAC35200F544
:1001A0000000DBB200F044B9400000F1807000EBC9
:1001B000C350A0F1807040EAD170490009E04908BD
:1001C00041EAC071A0EBC35000F50000400800EB0D
:1001D000C350F0BC00F023B96142012202EB41019F
:1001E000001BF6E7F0BC704781F00041AAE780F001
:1001F0000040A7E72DE9FE4F81EA030404F0004424
:1002000021F0004100944FF0000B23F0004350EA2E
:10021000010402D052EA030404D10020014603B0D5
:10022000BDE8F08FC3F30A54C1F30A552C44A4F27D
:10023000F3340194A0FB0254C1F3130141F4801183
:10024000C3F3130343F4801301FB024400FB034E8A
:10025000840A970A44EA815447EA8357A4FB076853
:1002600002958D0A05FB07854FEA932C04FB0C547D
:100270002705029D4FEA065847EA1637B5EB0805F1
:100280006EEB070C870E920E47EA811742EA831243
:10029000A7FB0201B6EB0B0164EB00042B0D43EA54
:1002A0000C335E1844EB1C50DA465146E7FB020162
:1002B000C5F313044FEA0B3343EA14534FEA0432F5
:1002C000019C43EA0603A4F10C040294009CCDE9CE
:1002D00000B400F0E7F8A2E796230022114600F0F0
:1002E000A7B80EB5C10F80EAE0700844CA07002124
:1002F00040F233438DE80E000A460B4600F0D2F878
:1003000003B000BD20F00040C10DC0F3160040F462
:1003100000007F2901DA00207047962903DCC1F133
:100320009601C840704796398840704770B5C1F350
:100330000A5201F000450024C1F3130140F2FF33DB
:1003400041F480119A4201DA002070BD40F233433B
:100350009A42A2F2334203DC5242FFF7E3FE00E08E
:1003600090402C43F1D0404270BD00F0004230F08C
:1003700000400AD0C10D01F56071C0F3160042EAD9
:100380000151C208400711437047002001467047E1
:1003900030B50B46014600202022012409E021FA55
:1003A00002F59D4205D303FA02F5491B04FA02F552
:1003B0002844151EA2F10102F1DC30BD2DE9F05FE9
:1003C0000546002092469B468846064681464024C4
:1003D0001BE02846414647462246FFF7A3FE534608
:1003E0005A46C01A914110D311461846224600F0D1
:1003F000FFF92D1A67EB01084F4622460120002124
:1004000000F0F6F917EB00094E41201EA4F101049B
:10041000DFDC484631462A464346BDE8F09F0029C6
:10042000A8BF7047401C490008BF20F0010070477A
:1004300010B4B0FA80FC00FA0CF050EA010404BFDA
:1004400010BC704749B1CCF1200421FA04F411FA30
:100450000CF118BF012121430843A3EB0C01CB1D74
:100460000106000A002BBEBF002010BC704700EB45
:10047000C35010440029A4BF10BC7047401C490061
:1004800008BF20F0010010BC704710B5002B08DA3F
:10049000401C41F1000192185B411A4301D120F048
:1004A000010010BD2DE9F04D92469B4611B1B1FA05
:1004B00081F202E0B0FA80F22032904600F098F922
:1004C00004460F4640EA0A0041EA0B0153465A46E9
:1004D000084303D120463946BDE8F08D114653EA62
:1004E000010015D0C8F140025046FFF71BFE05463B
:1004F0000E4650465946424600F07AF9084301D06C
:10050000012000E00020054346EAE0762C43374313
:100510000A984FEA4453A0EB08004FEAD4240A306B
:100520004FF0000244EA47544FEAD72502D5002095
:100530000146D1E7010510196941DDE908450019B7
:100540006941BDE8F04DA0E72DE9FE4F804681EA04
:100550000300C00F0C46009021F0004123F000453D
:10056000B8EB0200A94105D24046214690461C4600
:100570000B46024623F00040104304D1404621467A
:1005800003B0BDE8F08F270DC7F30A00C3F30A518B
:100590000290401A0190402866DAC3F3130040F439
:1005A000801B0098924620B10023D2EB030A63EB34
:1005B0000B0B01985946C0F14002504600F018F963
:1005C00006460D4650465946019A00F020F910EBB8
:1005D00008006141002487EA115284EAE7731A4354
:1005E0003BD0009A3AB3019A012A4FEA075210DC35
:1005F000001B61EB02014FF0004202EA0752CDE915
:100600000042001C41F5801132462B46FFF74AFF9D
:10061000B6E7001B61EB0201001C41F580130018D6
:100620005B412018A2F5001747EB030140EAD570A3
:10063000B6196D4111E06D084FEA360645EAC075FE
:100640004FEA0752001B61EB0201001C41F58011CB
:1006500049084FEA30000019514132462B4603B099
:10066000BDE8F04FFFF711BF0098012240000023C2
:10067000D0EB020263EBE073009821464FEAE0748E
:10068000B8EB000061EB0401E9E783F000435BE7AE
:1006900081F0004158E72DE9F04D81EA030404F0B0
:1006A000004B21F0004514464FF0000A23F00041B2
:1006B00050EA050220D054EA01021DD0C5F30A57C2
:1006C0000246C5F31303C1F31300C1F30A5640F405
:1006D000801543F48013A7EB0608101BD64608F2DA
:1006E000FD3873EB050002D308F1010801E0921810
:1006F0005B41B8F1000F03DA00200146BDE8F08D40
:1007000000204FF48011064684460EE0171B73EB61
:10071000050705D3121B63EB050306434CEA010CE6
:1007200049084FEA300092185B4150EA0107EDD1C9
:1007300052EA030012D082EA040083EA050108436A
:1007400003D100224FF0004308E0101BAB4102D25E
:100750000122002302E06FF0010253101AEB0600A1
:100760004CEB085110EB0A0041EB0B01BDE8F04DDA
:10077000FFF78BBEC1F30A52C1F3130140F2FF33FE
:1007800041F480119A4202DA00200146704740F29B
:1007900033439A42A2F2334202DC5242FFF7C2BC18
:1007A00000F026B830B5002904DB4FF00044404289
:1007B00064EB0101002B04DB4FF00044524264EB78
:1007C0000303994208BF904230BD0000064C074D1C
:1007D00006E0E06840F0010394E807009847103411
:1007E000AC42F6D3FFF786FCB4320008D4320008DE
:1007F000202A04DB203A00FA02F1002070479140E1
:10080000C2F1200320FA03F3194390407047202AD5
:1008100006DBCB17203A41FA02F043EAE07306E028
:1008200041FA02F3D040C2F1200291400843194638
:100830007047000070B5044600688168C943C90765
:100840001BD1816821F00101816000F093FB054616
:100850000EE000BF00F08EFB401B022808D90420E8
:1008600084F82900E06A40F00100E062012070BDD8
:1008700020688068C043C007ECD0002070BD000035
:10088000F8B500260446009600688168C943C90788
:1008900026D0816841F00101816012481249006848
:1008A000B0FBF1F000E0401E00900028FBD100F00A
:1008B00061FB05460FE000BF00F05CFB401B022817
:1008C00009D9042028346070606840F0010060603D
:1008D00026700120F8BD20688068C043C007EBD1B6
:1008E0000020F8BD3C00002040420F002DE9F041FF
:1008F00006464FF000080E4800F0FAF900240D4FAC
:100900000D4D0FE00A4800F03BF90028FAD00848E6
:1009100000F039F90146286A47F82010401C641C91
:10092000E4B22862B442EDD34046BDE8F081000055
:10093000880000209C01002000000020F0B5344E0B
:10094000306A132863D300210122324801E04A1C97
:100950000AE050F8213050F82240A34203D940F871
:10096000214040F82230521C142AF2D3491C142989
:10097000EDD300210B46052250F82240521C23449F
:100980000F2AF9D30A22B3FBF2F500225FF0050328
:1009900050F823707C1B00D56442022C01DA3A44E3
:1009A000491C5B1C0F2BF3D311B1B2FBF1F000E03B
:1009B000406940F2514228444108A1F273609042DC
:1009C00023D8154AB46A0020A2F138054FF0640C10
:1009D00052F820308B4214D802EB80077F688F4298
:1009E0000FD3FC1ACB1A64277B43B3FBF4F305EB5C
:1009F000800455F820706468E41B6343B3FBFCF388
:100A0000DC19401C0C28E3D3B46200203062F0BD36
:100A1000000000209C010020E4310008F8B500250A
:100A2000009590F82820AE46012A1ED0012280F8B9
:100A300028204A681F244FF47873072A17D20668C3
:100A4000776B93FAA3FC521EBCFA8CFC02FB0CFCE5
:100A500004FA0CF4A74393FAA3F3B3FA83F30C68F4
:100A60005A439440274377632DE00220F8BD06687F
:100A70000D2A14D2376B93FAA3FCD21FBCFA8CFC5C
:100A800002FB0CFC04FA0CF4A74393FAA3F3B3FAA9
:100A900083F30C685A4394402743376313E0F76AA3
:100AA00093FAA3FC0D3ABCFA8CFC02FB0CFC04FA92
:100AB0000CF4A74393FAA3F3B3FA83F30C685A43F5
:100AC00094402743F7620A683823072406680A2AF5
:100AD00014D3F76893FAA3FC0A3ABCFA8CFC02FB25
:100AE0000CFC04FA0CF4A74393FAA3F3B3FA83F3D0
:100AF0008C685A4394402743F76012E0376993FAB1
:100B0000A3FCBCFA8CFC02FB0CFC04FA0CF4A7431B
:100B100093FAA3F3B3FA83F38C685A4394402743C0
:100B200037610A68102A01D0112A1FD1114B0268BF
:100B30009A4217D193681B0218D4936843F40003B8
:100B400093600968102911D10B490C4A0968B1FB5F
:100B5000F2F101EB8101490000E0491E00910029FA
:100B6000FBD103E0042180F82910012580F828E05A
:100B70002846F8BD002401403C00002040420F0000
:100B800090F8290070470068C06C70472DE9F0416B
:100B900004004FF0000504D094F82900002618B195
:100BA00007E00120BDE8F08184F82860204600F0CD
:100BB00071F82046FFF73EFE04270246012861D067
:100BC000022084F82900E369616890FAA0F01943D3
:100BD000E368B0FA80F003FA00F00143A0684FF434
:100BE000807C604508D0012806D00020D4F814E0AD
:100BF000BEF1010F02D00FE06046F7E763B9A369C9
:100C00004FF4604E9EFAAEFE5B1EBEFA8EFE03FAF5
:100C10000EF3034343F400602368D3F804E02EF49A
:100C2000694E4EEA000EC3F804E020688368DFF8DE
:100C30005CE003EA0E030B438360A068604508D1C3
:100C400025694FF4700090FAA0F06D1EB0FA80F0A4
:100C500085402068C36A23F470032B43C362206875
:100C600080680B4B1840884204D1E662012084F86A
:100C7000290009E084F82970E06A40F00100E06290
:100C8000012201E084F8297010468BE7FDF7E1FFAF
:100C9000FE0F1FFF10B5124C0368124903221248C1
:100CA00086B0A34209D18B6943F400738B618969D3
:100CB00001F40071049101210BE00C4CA3420DD111
:100CC0008B6943F480638B61896901F480610491CD
:100CD0000221CDE90012694600F05AF806B010BDB5
:100CE000002401400010024000080140002801409B
:100CF00010B5044690F82800012820D0012084F87F
:100D000028002046FFF7BCFD0146002001292BD01A
:100D100094F82920222A14D05FF0120284F82920A6
:100D200084F82800E0622068026822F00202026073
:100D300020688268C2F34242072A04D00BE00220F6
:100D400010BD3222EAE70A4A904209D1094A1268E4
:100D500012F4702F04D0826842F48012826005E0A1
:100D6000826842F4A002F9E784F82800084610BD22
:100D7000002801400424014031B500F0FBF804468E
:100D800000F0F8F80099001B8842F9D338BD000044
:100D90002DE9F84FDFF8ACA100220AF1040B14464C
:100DA00001274FF00F090BF1040E00BF0B6807FA83
:100DB00004F52B40AB4276D1DFF88CC14E68A6EB30
:100DC0000C0866452BD00DDC032E34D005DC36B381
:100DD000012E19D0022E2FD11BE0112E16D0122E6B
:100DE0002AD119E0B8F5881F19D006DCB8F5803F84
:100DF00015D0B8F5801F1FD111E0B8F5001F0ED037
:100E0000B8F5041F18D10AE0CA6815E0CA68121DB7
:100E100012E0CA6808320FE0CA680C320CE08A6837
:100E20002AB1012A4FF0080203D0456104E00422F0
:100E300002E0056100E00022FF2B01D8054601E039
:100E400000F104054FEA840601D9A6F12006D5F881
:100E500000C009FA06F82CEA080C02FA06F64CEA79
:100E6000060CC5F800C04D68ED0065D5374DAE697C
:100E700046F00106AE61AD6924F0030605F00105F8
:100E80000095334D06EB050CDCF80850A607360F2D
:100E900009FA06F825EA0805DFF8B880404503D1CD
:100EA0004FF0000817E047E0DFF8AC80404502D182
:100EB0004FF001080FE0DFF8A480404502D14FF069
:100EC000020808E0DFF89880404502D14FF003089F
:100ED00001E04FF0040808FA06F848EA0508CCF8E3
:100EE00008804D68DAF80060ED03002D554601DA00
:100EF0001E4300E09E432E604D68DBF80060AD03AA
:100F0000002D5D4601DA1E4300E09E432E604D68D1
:100F1000DEF80060ED02002D754601DA1E4300E0A8
:100F20009E432E604D68AD02002D0E4D2E6801DAF5
:100F30001E4300E09E432E60641C102CFFF436AF6D
:100F4000BDE8F88F000401400000111000100240BD
:100F50000000014000080140000C01400010014069
:100F6000001401400C0401400AB1016170470904FA
:100F7000FBE70000014800687047000050000020B7
:100F800002480168491C01607047000050000020C1
:100F9000074810B5016841F010010160032000F01E
:100FA00075F8002000F006F800F016F8002010BDDB
:100FB0000020024010B5044600F050FA4FF47A7158
:100FC000B0FBF1F000F028FE00222146501E00F098
:100FD0003DF8002010BD0000154808B5816941F0BA
:100FE00001018161806900F001000090032000F0A0
:100FF0004DF8002211466FF00B0000F027F8002298
:1010000011466FF00A0000F021F8002211466FF03F
:10101000090000F01BF800221146101F00F016F81E
:101020000022BDE808401146501E00F00FB8000035
:101030000010024000F01F020121914040094FF0D2
:10104000E02202EB8000C0F800117047F0B40E4BB4
:101050001B680C46C3F30223C3F10705042D00D916
:101060000425191D072901D2002300E0DB1E0126FB
:1010700006FA05F1491E214099409E40761E164011
:101080003143F0BC01F07EB90CED00E0064900F000
:10109000070208684FF6FF03184040EA0220034A9F
:1010A00010430860704700000CED00E00000FA05F6
:1010B0002DE9F84304460078434DC0076FD0E86936
:1010C00040F08050E861E869404E00F080500090A8
:1010D000306840F480703060FFF74CFF074604E052
:1010E000FFF748FFC01B64282FD83068C005F7D52C
:1010F000286AA18800F4407001F440710126814201
:1011000012D0286A3204324992FAA2F3B3FA83F376
:1011100020F4407041F8236092FAA2F2B2FA82F20F
:10112000002341F8223028626068B0F5807F30D11A
:10113000FFF720FFB046074641F28839022607E054
:10114000FFF718FFC11B494502D90320BDE8F8830A
:1011500096FAA6F0B0FA80F040F04000B8EB501FCD
:1011600001D128680BE096FAA6F0B0FA80F040F0C2
:101170004000B6EB501F01D1286A00E0686A96FA79
:10118000A6F2B2FA82F202F01F0208FA02F1084255
:10119000D6D0286A616820F440700843286220781D
:1011A000800705D56868A16820F44040084368605E
:1011B0002078C00605D56868E16820F480000843FF
:1011C00068600020C2E7000000100240007000408C
:1011D000000442422DE9F047DFF8789205460E46BA
:1011E000D9F80000022300F007070120410442065D
:1011F000994C41F28838B74271D2D9F800C02CF02E
:10120000070C4CEA060CC9F800C0D9F8007007F0CA
:101210000707B7426FD12E78B60705D56668AF6865
:1012200026F0F0063E4366602E78F60756D06E68CC
:10123000012E0BD0022E1ED093FAA3F1B1FA81F148
:1012400041F02001490924D0216823E091FAA1F25C
:10125000B2FA82F242F02002520901D0226800E084
:10126000626A91FAA1F1B1FA81F101F01F0188409F
:10127000024240D017E092FAA2F1B1FA81F141F0B6
:101280002001490901D0216800E0616A92FAA2F2C6
:1012900002E0616A93FAA3F2B2FA82F202F01F024C
:1012A0009040014227D0606820F003003043606026
:1012B000FFF760FE06466868012809D00228474605
:1012C00013D01EE0FFF756FE801BB84201D992E012
:1012D00047466068C0F381000128F3D1A1E015E022
:1012E000FFF748FE801BB84273D86068C0F38100E6
:1012F0000228F5D195E092E0FFF73CFE801BB84252
:1013000079D8606810F00C0FF6D18AE02F78BF070B
:1013100007D56768D5F808C027F0F00747EA0C073B
:1013200067602F78FF076DD06F68012F0BD0022FF9
:101330001ED093FAA3F1B1FA81F141F020014909DD
:1013400024D0216823E091FAA1F2B2FA82F242F0AD
:101350002002520901D0226800E0626A91FAA1F1EC
:10136000B1FA81F101F01F018840024257D017E025
:1013700092FAA2F1B1FA81F141F02001490901D0BC
:10138000216800E0616A92FAA2F202E0616A93FACF
:10139000A3F2B2FA82F202F01F02904001423ED064
:1013A000606820F0030038436060FFF7E3FD074604
:1013B0006868012807D0022811D01FE0FFF7DAFD86
:1013C000C11B414517D86068C0F381000128F5D1E1
:1013D00018E010E0FFF7CEFDC11B41450BD8606857
:1013E000C0F381000228F5D10CE000BFFFF7C2FD79
:1013F000C11B414502D90320BDE8F087606810F0A9
:101400000C0FF3D1D9F8001021F007013143C9F8CE
:101410000010D9F8000000F00700B04201D0012010
:10142000EAE72878400705D56068E96820F4E060BD
:10143000084360602878000706D56068296920F4B1
:10144000605040EAC10060600020FFF7B3FD00205B
:10145000D2E70000002002400010024010B500F06A
:1014600043F808494968F02292FAA2F201F0F0012B
:10147000B2FA82F2D140044A515CC8400349086084
:1014800010BD000000100240A43200083C00002003
:1014900010B5FFF7E3FF074949684FF4E06292FA9D
:1014A000A2F201F4E061B2FA82F2D140024A515C48
:1014B000C84010BD00100240A432000810B5FFF76C
:1014C000CDFF074949684FF4605292FAA2F201F445
:1014D0006051B2FA82F2D140024A515CC84010BD5C
:1014E00000100240A432000810B585B01AA301AC68
:1014F000D3E901011A68DB6800920BC41AA01B4BE8
:10150000006804905A681A4802F00C0104291ED0A1
:1015100008291CD14FF4701494FAA4F402F4701149
:10152000B4FA84F421FA04F1D2031DF8011010D5A5
:101530005A684FF4003393FAA3F302F40032B3FA7B
:1015400083F3DA4004AB9A5CB0FBF2F0484305B099
:1015500010BD08484843FAE70203040506070809D6
:101560000A0B0C0D0E0F10100102000000100240BB
:1015700000127A0000093D002DE9F84F0546007879
:10158000FE4EC0074FF0010427D070686704C0F317
:101590008100012807D07068C0F3810002281DD1A6
:1015A0007068C0031AD597FAA7F0B0FA80F040F03F
:1015B0002000400901D0306800E0706A97FAA7F176
:1015C000B1FA81F101F01F0104FA01F1084204D0DF
:1015D0006868012801D0052878D183E0306820F4BC
:1015E00080303060306820F480203060FFF7C2FC2B
:1015F000814641F2883805E0FFF7BCFCA0EB090109
:1016000041457CD897FAA7F0B0FA80F040F020006E
:10161000400901D0306800E0706A97FAA7F1B1FA8A
:1016200081F101F01F0104FA01F10842E4D13068B0
:1016300020F480303060686801280BD0052811D074
:10164000306820F480203060686858B3FFF792FC5F
:10165000814611E0306820F480203060306840F42A
:101660008030F0E70520B070EEE700BFFFF782FCA6
:10167000A0EB09014145C4D897FAA7F0B0FA80F071
:1016800040F02000400901D0306800E0706A97FA0D
:10169000A7F1B1FA81F101F01F0104FA01F108424A
:1016A000E4D01FE0FFF766FC814605E0FFF762FC2F
:1016B000A0EB09014145A4D897FAA7F0B0FA80F051
:1016C00040F02000400902D0306801E0B1E0706ACB
:1016D00097FAA7F1B1FA81F101F01F0104FA01F1C3
:1016E0000842E3D12878DFF898B280074FF000096C
:1016F0004FF0020732D5706810F00C0F00E0AEE139
:101700004FF0F80A07D07068C0F38100022826D194
:101710007068C00323D497FAA7F0B0FA80F040F0C5
:101720002000400901D0306800E0706A97FAA7F104
:10173000B1FA81F101F01F0104FA01F1084202D06F
:101740002869012875D130689AFAAAF120F0F802C8
:101750006869B1FA81F188400243326059E0286932
:1017600088B394FAA4F1B1FA81F14BF82140FFF764
:1017700001FC804606E000BFFFF7FCFBA0EB080081
:10178000642898D897FAA7F0B0FA80F040F02000CB
:10179000400901D0306800E0706A97FAA7F1B1FA09
:1017A00081F101F01F0104FA01F10842E4D0306830
:1017B0006A6920F0F8019AFAAAF0B0FA80F0824043
:1017C0001143316025E0FFE794FAA4F2B2FA82F205
:1017D0004BF82290FFF7CEFB804605E0FFF7CAFBEF
:1017E000A0EB08006428CCD897FAA7F0B0FA80F0F4
:1017F00040F02000400901D0306800E0706A97FA9C
:10180000A7F1B1FA81F101F01F0104FA01F10842D8
:10181000E4D1287800076AD55A48A969A9B394FA8F
:10182000A4F1B1FA81F140F82140FFF7A3FB804613
:1018300006E0CEE1FFF79EFBA0EB08006428A0D8ED
:1018400097FAA7F0B0FA80F040F06000B4EB501FB8
:1018500001D130680BE097FAA7F0B0FA80F040F0C1
:101860006000B7EB501F01D1306A00E0706A97FA50
:10187000A7F1B1FA81F101F01F0104FA01F210425F
:10188000D8D00120FFF778FA31E0FFE794FAA4F20C
:10189000B2FA82F240F82290FFF76CFB804605E036
:1018A000FFF768FBA0EB080064289CD897FAA7F024
:1018B000B0FA80F040F06000B4EB501F01D1306806
:1018C0000BE097FAA7F0B0FA80F040F06000B7EBB9
:1018D000501F01D1306A00E0706A97FAA7F1B1FA9F
:1018E00081F101F01F0104FA01F21042D8D12878E9
:1018F00040077DD5F06940F08050F061F069DFF875
:1019000088A000F080500090DAF8001041F4807157
:10191000CAF80010FFF72EFB804605E0FFF72AFB10
:10192000A0EB080064288AD8DAF80000C005F5D5D5
:10193000DFF850A094FAA4F2AAF1800AB2FA82F277
:101940004AF82290042292FAA2F2B2FA82F24AF8FB
:101950002290FFF70FFB009008E000BFFFF70AFBA3
:101960000099411A41F28830814278D897FAA7F05D
:10197000B0FA80F040F0400008E0000000100240A3
:10198000000042428004424200700040B4EB501F0D
:1019900001D130680BE097FAA7F0B0FA80F040F080
:1019A0004000B7EB501F01D1306A00E0706A97FA2F
:1019B000A7F1B1FA81F101F01F0104FA01F1A0468B
:1019C0000842CBD1E868D0B101284946504624D01E
:1019D00094FAA4F2B2FA82F240F82210042191FAA9
:1019E000A1F100BFB1FA81F14AF82140E86800E0B6
:1019F00077E001281BD0FFF7BDFA824650E094FA49
:101A0000A4F2B2FA82F24AF82290042292FAA2F2E6
:101A1000B2FA82F24AF82290E8E7042292FAA2F29D
:101A2000B2FA82F240F8221094FAA4F1DAE7FFF752
:101A3000A1FA824608E000BFFFF79CFAA0EB0A017A
:101A400041F2883081420AD897FAA7F0B0FA80F0C4
:101A500040F04000B8EB501F02D130680CE09BE032
:101A600097FAA7F0B0FA80F040F04000B7EB501FB3
:101A700001D1306A00E0706A97FAA7F1B1FA81F1FA
:101A800001F01F0208FA02F10842D5D029E000BF98
:101A9000FFF770FAA0EB0A0141F2883081427BD84F
:101AA00097FAA7F0B0FA80F040F04000B8EB501F72
:101AB00001D130680BE097FAA7F0B0FA80F040F05F
:101AC0004000B7EB501F01D1306A00E0706A97FA0E
:101AD000A7F1B1FA81F101F01F0208FA02F1084200
:101AE000D6D1E86980B37168C1F38101022970D051
:101AF0004FF080714F00022809D091FAA1F1B1FA9C
:101B000081F14BF82190FFF735FA05466AE0484627
:101B1000894691FAA1F1B1FA81F14BF82100FFF762
:101B200029FA804606E000BFFFF724FAA0EB080080
:101B3000642854D897FAA7F0B0FA80F040F020005B
:101B4000400902D0306801E061E0706A97FAA7F1BD
:101B5000B1FA81F101F01F0104FA01F10842E3D169
:101B6000286AB0F5803F05D17068A96820F400307C
:101B700008437060D5E908010843716821F47411C5
:101B80000843706099FAA9F1B1FA81F14BF821404C
:101B9000FFF7F0F9054606E021E000BFFFF7EAF99C
:101BA000401B64281BD897FAA7F0B0FA80F040F0E9
:101BB0002000400901D0306800E0706A97FAA7F170
:101BC000B1FA81F101F01F0104FA01F10842E5D0F8
:101BD0001DE01EE0FFF7CEF9401B642802D9032068
:101BE000BDE8F88F97FAA7F0B0FA80F040F0200037
:101BF000400901D0306800E0706A97FAA7F1B1FAA5
:101C000081F101F01F0104FA01F10842E2D1002044
:101C1000E6E70120E4E7704710B5401EB0F1807F91
:101C200001D3012010BD4FF0E02460610F21601747
:101C300000F0A8FB0020A06107202061002010BD5B
:101C400010B5FFF7E8FF10BD7047704730B590F84A
:101C50003820012A20D0012280F83820022380F881
:101C6000393003685C6824F070045C6003685C6869
:101C70000D682C435C6003689C6824F080049C60C1
:101C800003689C6849680C439C6080F839200021F7
:101C900080F83810084630BD022030BD10B5040071
:101CA00003D094F8390010B107E0012010BD0020E6
:101CB00084F83800204600F00DF8022084F839003E
:101CC000211D206800F028FC012084F83900002044
:101CD00010BD000008B500680B49884212D10B48BE
:101CE000C16941F00201C161C069002200F0020037
:101CF000009011461D20FFF7A9F9BDE808401D20FE
:101D0000FFF798B908BD0000000400400010024031
:101D10000168CA6842F00102CA600068016841F0C7
:101D2000010101600020704770B5044690F838004A
:101D3000012817D0012584F83850022084F8390092
:101D40002068826822F0770222F47F42826008686D
:101D5000502837D00DDC202858D005DC88B3102857
:101D600041D150E0022070BD302852D040283AD1F5
:101D70003EE060282ED070280BD0B0F5805F03D0F5
:101D8000B0F5005F2FD110E02068816821F00701D5
:101D900015E04A68083120680AC900F0EFFB2168A5
:101DA000886840F0770088601DE04A680831206844
:101DB0000AC900F0E3FB2068816841F4804181603A
:101DC00011E01DE0CA684968206800F0E9FB502175
:101DD000206806E0CA684968206800F0F2FB6021CC
:101DE000206800F0D5FB383465700020207070BD8D
:101DF000CA684968206800F0D3FB40212068F0E7FA
:101E000000212068EDE710212068EAE72021206802
:101E1000E7E730212068E4E7704770B504460068C2
:101E200001694FF00005C943890715D4C168C9434A
:101E3000890711D4E91E016101202076206880699C
:101E40008007204602D0FFF7E7FF04E000F098F893
:101E5000204600F096F8257620680169C9434907B5
:101E600017D4C168C943490713D46FF00401016155
:101E7000022020762068806910F4407F204602D03E
:101E8000FFF7CAFF04E000F07BF8204600F079F885
:101E9000257620680169C943090716D4C168C9437A
:101EA000090712D46FF00801016104202076206830
:101EB000C0698007204602D0FFF7AEFF04E000F0C3
:101EC0005FF8204600F05DF8257620680169C94377
:101ED000C90617D4C168C943C90613D46FF01001ED
:101EE0000161082020762068C06910F4407F2046F8
:101EF00002D0FFF791FF04E000F042F8204600F026
:101F000040F8257620680169C943C90708D1C1682E
:101F1000C943C90704D1891E0161204600F032F887
:101F200020680169C943090609D4C168C943090683
:101F300005D46FF0800101612046FFF785FE20681F
:101F40000169C943490609D4C168C943490605D492
:101F50006FF040010161204600F0DEF82068016961
:101F6000C94389060BD4C168C943890607D46FF0F9
:101F7000200101612046BDE87040FFF766BE70BDDC
:101F8000704770472DE9F0415C4900680968884254
:101F900053D15A486038FEF7F6FD594C800860630B
:101FA000A068801CA060E168401AA06353486038B4
:101FB000FEF79EFEA169606B052288420BDA63681A
:101FC000A56B93FBF2F303EB4303AB4203DA6369C4
:101FD000984200DA6061884203DD2369984200DD9F
:101FE0002061A36BDFF81C8101250026FA2B3DDD63
:101FF00088423BDD2078C8BB606890FBF2F000EBC4
:102000004000984232DA2570012240214046FEF716
:10201000ABFFD4E90201421A6260E0603749E07820
:10202000BC3130B1E670002041F82020401C092866
:10203000FADDA07818B1A670E570BDE8F081002344
:102040004FEA030001EB80077F6841F82070401CD5
:102050003B440828F6DDD0184A620A21B0FBF1F0B3
:102060004EF66021B1FBF0F020636570A169606BF2
:10207000884213DA2078012810D1002240214046FE
:10208000FEF772FF2670D4E90410091AE16101EB32
:10209000D17100EB6100A06120616061A06B40F62E
:1020A000C411884208DD4FF40070A06120616061B6
:1020B000A068E060A570E670206BA0F15F010F29B9
:1020C00004D8FEF70EF900220F4B07E0A0F16F01D4
:1020D000092909D8FEF705F90C4A0D4BFEF78AF8D5
:1020E000FEF724F92063A8E7A0F151010E29A4D23C
:1020F000FEF7F7F84FF03332064BEFE7B800002059
:1021000000000020000C01400000E83FD7A3703D14
:102110000AD7E33F3333EB3F704770B5040004D078
:1021200094F83900002510B106E0012070BD84F854
:102130003850204600F020F8022084F8390020684A
:10214000C16821F40051C160204600F04DFA2068BA
:10215000016921F4904101612068416921F02A015F
:1021600041612068C16841F40051C160E56301200C
:1021700084F83900002070BD70B503681F481E4EFA
:10218000002402210322051586B0B34216D18369CB
:1021900043F4804383618069194E00F480400490C9
:1021A0000802CDE90001039269463046FEF7F0FDD2
:1021B000CDE9005469463046029418E0114EB3420E
:1021C00017D1C36943F48023C361C069CDE90051CD
:1021D00000F48020CDE903200B4D69462846FEF728
:1021E000D7FDE814CDE90004694628460294FEF7BD
:1021F000CFFD06B070BD0000003801400010024065
:102200000008014000480040000C01402DE9F04763
:10221000044690F8390099460D46012801D022283D
:1022200058D12DB322B394F83800012852D001269A
:1022300084F838600027E76394F8390022281AD020
:102240005FF0120084F83900A284E2844FF48058D1
:10225000E08C4B46401EE084A0684FF000024045F1
:102260004FF08001204613D100F02EFA08BB04E0A5
:102270000120BDE8F0873220E4E728882168C0F318
:1022800008004860206908B16D1C08E0AD1C06E03C
:1022900000F01AFA68B9216815F8010B4860E08C63
:1022A0000028D5D14B4600224021204600F00CFAF0
:1022B00008B10320DDE794F83900322806D084F80D
:1022C000396000BF84F838700020D2E7222084F8FB
:1022D0003900F7E70220CCE770B5254886B0816960
:1022E00041F010018161816901F01001049181695F
:1022F00041F020018161816901F02001049181692F
:1023000041F004018161816901F004010491816956
:1023100041F0080181618069002400F00800049008
:102320004FF4005000901348CDE90104694612486B
:10233000FEF72EFD04200225CDE9000503200F4EF7
:10234000039069463046FEF723FD0820CDE90004DE
:10235000694630460294FEF71BFD402000900120A4
:102360000190694603950648FEF712FD06B070BD60
:10237000001002400000121000100140000801404F
:10238000000C01400907090E002803DA00F00F00D5
:10239000024A00E0024A81547047000014ED00E058
:1023A00000E400E02DE9F0412E4C206A132805D20C
:1023B000BDE8F04102210120FEF798BAFEF7BEFA0F
:1023C000A26A40F22C61A2F61A100026264D88421D
:1023D0002DD82649002000BF51F82030934223D841
:1023E00001EB80035B6893421ED301EB800351F83D
:1023F00020105B685B1A511A64225143B1FBF3F25F
:102400001A49703101EB800351F820005B68191AFA
:102410004A436421B2FBF1F1401AFDF75DFFE16A26
:1024200045F82100A66202E0401C0C28D4D300200D
:102430004FEA0007FDF750FF55F82710FDF782FE21
:10244000FDF760FF7F1C322FF4D34FF4FA71B0FB1D
:10245000F1F06062E06A401CE062312800D9E66277
:10246000BDE8F0810000002014020020AC3100081B
:1024700010B5FEF785FDBDE81040FFF7E1BB30B5B4
:1024800093B00224012004900094102005900025B0
:102490004FF43010CDE9085007946846FFF76CF808
:1024A0000AA90D2031C160020D900E9002210AA8E8
:1024B000FEF790FE0FA811950F94FEF7F9FD13B0EB
:1024C00030BD00000D48016841F001010160416824
:1024D0000B4A1140416001680A4A114001600168DD
:1024E00021F480210160416821F4FE0141604FF434
:1024F0001F0181600449C00308607047001002405A
:102500000000FFF8FFFFF6FE08ED00E00148FFF7CE
:1025100084BC0000B8000020F0B50268144B154CD4
:10252000154D4FF08047984205D0B84203D0A042E5
:1025300001D0A84203D122F070064A683243984283
:1025400005D0B84203D0A04201D0A84203D122F462
:102550004074CA68224302608A68C2620A68826262
:10256000984201D10969016301214161F0BD000078
:10257000002C0140000400400008004010B58468B1
:1025800042EA032224F47F440A432243826010BDBE
:10259000826822F070020A4342F0070181607047AE
:1025A00010B5036A046A24F001040462846924F00B
:1025B000F00444EA021423F00A020A43846102622E
:1025C00010BD10B5036A23F0100303628369046A27
:1025D00023F4704343EA023224F0A00343EA0111DA
:1025E0008261016210BD00002DE9F04104460068DF
:1025F0000169E26821F44051114301612169A06839
:102600000843616908432168CA6841F20C639A4330
:102610000243CA6020684169A26921F440711143F4
:1026200041612849206864254FF03208884218D15A
:10263000FEF744FF00EBC00101EB00106168890068
:10264000B0FBF1F0B0FBF5F6FEF738FF00EBC00190
:1026500001EB001061688900B0FBF1F7FEF72EFF77
:1026600017E0FEF715FF00EBC00101EB00106168F9
:102670008900B0FBF1F0B0FBF5F6FEF709FF00EBC7
:10268000C00101EB001061688900B0FBF1F7FEF7B3
:10269000FFFE00EBC00101EB001061688900B0FB98
:1026A000F1F0B0FBF5F06FF01801484307EB800143
:1026B00008EB0110B0FBF5F0216866F31F1088608D
:1026C000BDE8F081003801402DE9F0471D469046F5
:1026D0000E460446FEF74EFC07465FEA08004FF040
:1026E00000094FF0010808D030E0681C05D095B112
:1026F000FEF740FCC01BA8420DD82068006836EAEF
:102700000000F2D127E0681C20D025B1FEF732FC92
:10271000C01BA8421AD92068C16821F08001C1609D
:102720002068C16821F02001C1602068C16821F4DF
:102730008071C1602068416921F00101416184F824
:10274000398084F838900320BDE8F087206800685D
:1027500036EA0000D7D00020F6E700000FB4054BA2
:1027600010B503A9044A029800F0C6F810BC5DF841
:1027700014FB0000413000085400002002E008C8AB
:10278000121F08C1002AFAD170477047002001E0EB
:1027900001C1121F002AFBD1704700002DE9FF5F25
:1027A000DDE90220010DDDF838B0024310D10F98A9
:1027B00001244CA2012808D0002100980F9BC0E9F9
:1027C0000021C0E90243BDE8FF9F6FEA0B01F4E777
:1027D000A1F2FF3144F6105041430D140F98012827
:1027E0000ED0A5EB0B00401C4FF000043E4EDFF86E
:1027F000FC90B0F1000AA04605DACAF1000717E024
:10280000CBF10000F0E7074612E0F80707D02246B8
:10281000334640464946FDF7EDFC80468946224650
:10282000334610461946FDF7E5FC04460E467F1078
:10283000002FEAD1DDE90201BAF1000F42464B4612
:1028400002DAFDF7D7FC01E0FDF725FF04460E464E
:102850000022274BFDF7A6FF03D84FF0FF300146BB
:1028600007E00022234B20463146FDF76DFEFDF7C1
:1028700081FF102409E0002C0ADB0A220023FDF767
:102880009DFD019B30321A55641E50EA0102F2D1BF
:10289000641C019AC4F1110314440F9A012A09D04F
:1028A0000122084301D15B450FDD4FF0000205F125
:1028B00001050DE0084303D1A3EB0B056D1E09E0F4
:1028C00000204FF0110B0F9088E701DA00226D1EF7
:1028D000002A83D000980F99C0E90231C0E9004571
:1028E00071E7000030000000000024400000F03FCD
:1028F0000000F0430000E03F2DE9FF4F95B09B46FC
:1029000089460646002512E2252878D10024761C47
:10291000F94A2746012105943378203B01FA03F058
:10292000104202D00443761CF6E730782A2811D0F2
:102930006FF02F033078A0F13002092A16D8059ADB
:1029400044F0020402EB820203EB42021044761CC4
:102950000590EFE759F8042B0592002A03DA50425C
:1029600044F40054059044F00204761C30782E287C
:1029700016D116F8010F44F004042A280DD06FF088
:102980002F023078A0F13003092B09D807EB870319
:1029900002EB4303C718761CF3E759F8047B761C57
:1029A00030786C280FD006DC4C2817D068280DD062
:1029B0006A2814D104E0742810D07A280FD10DE0D1
:1029C00044F400140AE044F4801401E044F4401498
:1029D0007278824202D1761C04F58014761C30781D
:1029E00066280BD013DC582877D009DC002875D076
:1029F0004528F6D04628F4D047281AD19FE118E0A0
:102A0000632835D0642879D0652812D197E17028E1
:102A100073D008DC6728F1D069286FD06E280DD0FC
:102A20006F2806D1B5E073282CD0752875D078288A
:102A300074D05A46179990476D1C76E1C4F3025042
:102A4000022809D003280DD0D9F8001004280DD091
:102A50000D6009F1040968E1D9F80010EA17C1E92D
:102A60000052F6E7D9F800100D80F2E70D70F0E79C
:102A700019F8041B8DF8001000208DF80100EA46BB
:102A8000012003E059F804AB4FF0FF3061074FF02D
:102A9000000102D40DE008F101018846B9420FDAC5
:102AA0008045F8DB1AF808100029F4D108E008F195
:102AB000010188468142FADB1AF808100029F6D194
:102AC00005985B46A0EB080721463846179A00F0A8
:102AD0009EFA284400EB080507E04DE02BE10DE0ED
:102AE0001AF8010B5A4617999047B8F10108F7D226
:102AF0005B4621463846179A14E142E00A220092CA
:102B0000C4F302524FF0000A022A08D059F804CB4D
:102B1000032A4FEAEC710AD00DE029E02AE009F11E
:102B2000070121F00702F2E802C1914609E00FFA1D
:102B30008CFC4FEAEC71042A03D14FFA8CFC4FEA6B
:102B4000EC71002907DA0A460021DCF1000C61EB88
:102B500002012D2202E0220504D52B228DF804204B
:102B6000012203E0E20701D02022F7E7904653E07C
:102B70000A2102E010220DE010214FF0000A00911E
:102B80000BE010224FF0000A44F0040408270092E2
:102B900003E008224FF0000A0092C4F30252022A16
:102BA00005D059F804CB0021032A08D009E009F127
:102BB000070121F00702F2E802C1914605E01FFA81
:102BC0008CFC042A01D10CF0FF0C4FF00008220706
:102BD00022D5702827D0009B83F0100353EA0A0304
:102BE00009D15CEA010206D030228DF804208DF86C
:102BF000050002229046009B83F0080353EA0A0373
:102C00000AD15CEA010201D1620705D530228DF8B4
:102C100004204FF001087F1E582809D037A00390E8
:102C20000EA8029013E040228DF804200122E1E773
:102C300037A0F4E753466046009AFDF7BFFB844691
:102C40000398825C0298A0F10100029002705CEA95
:102C50000100EFD1029806A9A1EB000000F1200AC3
:102C6000600702D524F4803400E00127574502DDD7
:102C7000A7EB0A0000E0002000EB0A010090059895
:102C80004144A0EB01000590E00306D45B462146D9
:102C9000179A059800F0BBF90544002706E001A843
:102CA0005A46C05D179990476D1C7F1C4745F6DB5F
:102CB000E0030CD55B462146179A059800F0A7F96A
:102CC000054404E030205A46179990476D1C00993E
:102CD000481E00900029F5DC08E0029802995A4647
:102CE0000078491C0291179990476D1CBAF10001B8
:102CF000AAF1010AF1DC6BE109280100303132331D
:102D00003435363738396162636465660000000027
:102D10003031323334353637383941424344454611
:102D20000000000000F060F9054406F1010630786B
:102D300000287FF4E9AD19B02846BDE8F08F62079E
:102D400000D4062709F1070222F0070CFCE8022351
:102D5000E14603F000485FEA080C02D00FF27C2C39
:102D60000DE05FEA045C02D50FF2742C07E05FEA25
:102D7000C47C02D00FF26C2C01E0AFF2700C4FF06B
:102D8000FF3823F00043CDF850C065280CD006DC96
:102D9000452809D046281DD047283ED13EE0662868
:102DA00018D0672839D139E00021112F01DB11201B
:102DB00000E0781CCDE9000106A90EA8FFF7EEFCA3
:102DC000DDE90F010E9A03910021009207F1010A3B
:102DD00004914EE04FF000400097CDE9011006A9A4
:102DE0000EA8FFF7DBFCDDE90F0203920E9B1199A1
:102DF0000022DDF80CA00093049219B907F101013B
:102E000000EB010AB7EB0A0004D4C0F1FF3007F170
:102E1000010A0490AAEB0700019046E0012F00DAB6
:102E200001270021112F01DD112000E03846CDE9F6
:102E3000000106A90EA8FFF7B1FCDDE90F010E9A0B
:102E40000391002104910092BA4621070CD4039902
:102E5000514500DA8A46BAF1010F05DD009AAAF160
:102E60000101515C302908D0B84202DA10F1040F98
:102E700006DA0121CDE9011017E0AAF10101E9E725
:102E8000002805DC049901440491AAEB000102E04A
:102E9000411C514500DD8A460499A0EB010000F178
:102EA000010001904FF000400290200704D40198E7
:102EB000504501DBCDF8048000208DF84F000298CA
:102EC0000DF14F07B0F1004F25D02B200E90029846
:102ED0004FF0020800280CDA404202902D200E909C
:102EE00007E00A210298FDF753FA3031029007F803
:102EF000011DB8F10001A8F10108F2DC02980028D8
:102F0000EFD1791E0E980870307800F0200040F064
:102F1000450007F8020D12A8A0EB070000F1070812
:102F20001498007800B1012000EB0A01019801EB30
:102F3000E07105984144A0EB0100A0F1010005906B
:102F4000E00306D45B462146179A059800F05FF827
:102F500005441498007820B15A461799904705F116
:102F60000105E00323D55B462146179A059800F03A
:102F70004EF805441BE00498002807DBDDE9030157
:102F8000884203DD0098405C179901E017993020D2
:102F90005A46904704986D1C401C04900198401EAE
:102FA000019004D12E205A46179990476D1CBAF112
:102FB0000001AAF1010ADEDC05E017F8010B5A4610
:102FC000179990476D1CB8F10001A8F10108F4DCD5
:102FD0005B462146179A0598A4E600002D000000E4
:102FE0002B000000200000002DE9F04104460025E0
:102FF0001E461746880405D406E039462020B0470F
:1030000005F10105641EF8D52846BDE8F0812DE9DB
:10301000F041044600251E469046C80301D53027DE
:1030200000E02027880405D506E041463846B04731
:1030300005F10105641EF8D52846BDE8F0810000C1
:1030400013B54FF6FF742346012269460548FFF782
:10305000DDF804482346012269464030FFF7D6F8E0
:1030600000981CBDF400002086B0FDF791FFFFF72B
:1030700006FAFFF731F9FFF702FA434800244FF44C
:1030800060268460C4600125C661C0E904543D49DE
:10309000C0E90014FDF77AFD02200094CDE901504B
:1030A00069463948FDF7BAFC374838496030016055
:1030B0000721C0E9011440F2CF71C0E90314FEF703
:1030C000EDFD28030090304869466030FEF72CFE85
:1030D0002D48049404A960300594FEF7B7FD2A48F2
:1030E0002B499C300C2701604FF4E131C0E90114F9
:1030F000C460C0E904478461C461FFF70EF8224848
:10310000244930308460C460C661C0E90454C0E919
:103110000014FDF73BFD00951B48CDE901546946BD
:103120003030FDF77BFC18481B49DC3001604FF460
:103130001651C0E90114C460C0E904478461C46148
:10314000FEF7EBFF10486030FEF7E2FD134D41F251
:103150008837A5F1280600BFFFF724F95FF00004C7
:1031600055F82400FDF701F90B46024656F82410E5
:103170000BA0FFF7F3FA3846FDF7FEFD641C0A2C9E
:10318000EEDBE9E700240140580000200004004085
:103190000038014000280140004800407C3200080F
:1031A00025642C25322E31660A0000001A09000021
:1031B000A60900003C0A0000D20A0000680B0000CB
:1031C000900B0000260C0000BC0C0000EE0C000070
:1031D000840D00001A0E0000B00E0000460F000023
:1031E0000000000073060000CA0600003907000056
:1031F0009D0700000C08000025080000950800004D
:10320000F80800001109000081090000F109000020
:10321000540A0000C40A000000000000EA10000088
:1032200054100000C80F00003C0F0000BA0E000050
:10323000920E00001A0E0000AC0D0000840D00007C
:10324000160D0000B20C0000580C0000F40B00003A
:10325000000000004D0000004B0000004C0000008A
:103260004D0000004E0000004D0000004D00000029
:103270004C0000004D0000004C000000CDCC10427E
:1032800033331142000012429A99114233331142F2
:103290000000124266660E42CDCC0E4266660E42B9
:1032A00066660E42000000000102030401020304EE
:1032B00006070809D432000800000020580000006A
:1032C0007C2700082C3300085800002088060000E6
:1032D0008C270008000001005802000000000000D8
:1032E00000000000000200000002000000020000D8
:1032F000640000000000000000000000000000006A
:1033000000000000000000000000000000000000BD
:1033100000A24A04000000000000000001020304B3
:0C33200006070809000000000000000083
:04000005080000ED02
:00000001FF
