:020000040800F2
:100000006005002001010008090100080B0100083B
:100010000D0100080F010008110100080000000098
:1000200000000000000000000000000013010008B4
:100030001501000800000000170100083D1B000822
:100040001B0100081B0100081B0100081B01000820
:100050001B0100081B0100081B0100081B01000810
:100060001B0100081B0100081B0100081B01000800
:100070001B0100081B0100081B0100081B010008F0
:100080001B0100081B0100081B0100081B010008E0
:100090001B0100081B0100081B0100081B010008D0
:1000A0001B0100081B0100081B0100081B010008C0
:1000B0001B010008CD1B00081B0100081B010008E4
:1000C0001B0100081B0100081B0100081B010008A0
:1000D0001B0100081B0100081B0100081B01000890
:1000E0001B0100081B0100081B010008DFF80CD0F1
:1000F00000F02EF800480047C91F000860050020E6
:100100000648804706480047FEE7FEE7FEE7FEE7B1
:10011000FEE7FEE7FEE7FEE7FEE7FEE7851B0008D9
:10012000ED00000830B50B460146002020220124D6
:1001300009E021FA02F59D4205D303FA02F5491BB5
:1001400004FA02F52844151EA2F10102F1DC30BDCB
:10015000064C074D06E0E06840F0010394E8070014
:1001600098471034AC42F6D3FFF7C4FFEC200008E8
:100170000C21000870B5044600688168C943C907AE
:100180001BD1816821F00101816000F0DFFA054692
:100190000EE000BF00F0DAFA401B022808D9042064
:1001A00084F82900E06A40F00100E062012070BD9F
:1001B00020688068C043C007ECD0002070BD0000FC
:1001C000F8B500260446009600688168C943C9074F
:1001D00028D0816841F0010181601348134900680B
:1001E000B0FBF1F000E0401E00900028FBD100F0D1
:1001F000ADFA054611E000BF00F0A8FA401B022846
:100200000BD9042084F8290054F82C0F40F0010089
:1002100044F8040901202670F8BD20688068C043B6
:10022000C007E9D10020F8BD2C00002040420F009B
:10023000F8B50025009590F82820AE46012A1ED07A
:10024000012280F828204A681F244FF47873072A77
:1002500017D20668776B93FAA3FCBCFA8CFC521E8B
:1002600002FB0CFC04FA0CF4A74393FAA3F3B3FAD1
:1002700083F30C685A439440274377632DE00220B0
:10028000F8BD06680D2A14D2376B93FAA3FCBCFAAA
:100290008CFCD21F02FB0CFC04FA0CF4A74393FA6B
:1002A000A3F3B3FA83F30C685A43944027433763AC
:1002B00013E0F76A93FAA3FCBCFA8CFC0D3A02FB3C
:1002C0000CFC04FA0CF4A74393FAA3F3B3FA83F3F8
:1002D0000C685A4394402743F7620A68382307247E
:1002E00006680A2A14D3F76893FAA3FCBCFA8CFCBC
:1002F0000A3A02FB0CFC04FA0CF4A74393FAA3F3AA
:10030000B3FA83F38C685A4394402743F76012E0B2
:10031000376993FAA3FCBCFA8CFC02FB0CFC04FAD0
:100320000CF4A74393FAA3F3B3FA83F38C685A430C
:100330009440274337610A68102A01D0112A1FD13F
:10034000114B02689A4217D193681B0218D4936824
:1003500043F4000393600968102911D10B490C4A3A
:100360000968B1FBF2F101EB8101490000E0491E8F
:1003700000910029FBD103E0042180F82910012518
:1003800080F828E02846F8BD002401402C00002019
:1003900040420F000068C06C704700002DE9F0413A
:1003A00004004FF0000504D094F82900002618B18D
:1003B00007E00120BDE8F08184F82860204600F0C5
:1003C00071F82046FFF7D6FE04270246012861D0C7
:1003D000022084F82900E369616890FAA0F01943CB
:1003E000E368B0FA80F003FA00F00143A0684FF42C
:1003F000807C604508D0012806D00020D4F814E0A5
:10040000BEF1010F02D00FE06046F7E763B94FF489
:10041000604EA3699EFAAEFEBEFA8EFE5B1E03FA24
:100420000EF3034343F400602368D3F804E02EF492
:10043000694E4EEA000EC3F804E020688368DFF8D6
:100440005CE003EA0E030B438360A068604508D1BB
:100450004FF47000256990FAA0F0B0FA80F06D1E9C
:1004600085402068C36A23F470032B43C36220686D
:1004700080680B4B1840884204D1E662012084F862
:10048000290009E084F82970E06A40F00100E06288
:10049000012201E084F8297010468BE7FDF7E1FFA7
:1004A000FE0F1FFF00B500680B4985B0884210D1D0
:1004B0000A48816941F4007181618069694600F4EC
:1004C000007004900120009003200190044800F087
:1004D00059F805B000BD00000024014000100240A2
:1004E0000008014010B5044690F82800012820D0EB
:1004F000012084F828002046FFF762FE0146002014
:1005000001292BD094F82920222A14D05FF012025E
:1005100084F8292084F82800E0622068026822F02C
:100520000202026020688268C2F34242072A04D0B5
:100530000BE0022010BD3222EAE70A4A904209D1BC
:10054000094A126812F4702F04D0826842F48012B3
:10055000826005E0826842F4A002F9E784F828008E
:10056000084610BD002801400424014031B500F0C8
:10057000EDF8044600F0EAF80099001B8842F9D330
:1005800038BD00002DE9F84FDFF890A100220AF1F4
:10059000040B144601274FF00F090BF1040E00BFA6
:1005A0000B6807FA04F52B40AB4274D1DFF870C139
:1005B0004E68A6EB0C0866452BD00DDC032E34D01C
:1005C00005DC36B3012E19D0022E2FD11BE0112EDF
:1005D00016D0122E2AD119E0B8F5881F19D006DCE2
:1005E000B8F5803F15D0B8F5801F1FD111E0B8F5E0
:1005F000001F0ED0B8F5041F18D10AE0CA6815E034
:10060000CA68121D12E0CA6808320FE0CA680C32CC
:100610000CE08A682AB1012A4FF0080203D0456134
:1006200004E0042202E0056100E00022FF2B01D873
:10063000064601E000F104064FEA840501D9A5F160
:100640002005D6F800C009FA05F82CEA080C02FAD1
:1006500005F54CEA050CC6F800C04D68ED0057D50D
:10066000304DAE6946F00106AE61AD6924F0030677
:1006700005F0010500952C4D06EB050CDCF8085043
:10068000A6074FEA167809FA08F6B543274EB04296
:1006900002D1002610E03BE0254EB04201D10126F8
:1006A0000AE0244EB04201D1022605E0224EB042BB
:1006B00001D1032600E0042606FA08F62E43CCF802
:1006C00008604D68DAF80060ED03554601D51E4319
:1006D00000E09E432E604D68DBF80060AD035D4690
:1006E00001D51E4300E09E432E604D68DEF8006099
:1006F000ED02754601D51E4300E09E432E604D6815
:10070000AD020E4D2E6801D51E4300E09E432E60C3
:10071000641C102CFFF444AFBDE8F88F00040140C6
:1007200000001110001002400000014000080140CC
:10073000000C014000100140001401400C04014075
:100740000AB1016170470904FBE700000148006835
:10075000704700004000002002480168491C016009
:100760007047000040000020074810B5016841F0C4
:1007700010010160032000F07DF8002000F006F871
:1007800000F016F8002010BD0020024010B504460D
:1007900000F05CFA4FF47A71B0FBF1F000F046FE25
:1007A00000222146501E00F045F8002010BD000038
:1007B000184808B5816941F001018161806900F044
:1007C00001000090032000F055F8002211466FF060
:1007D0000B0000F02FF8002211466FF00A0000F025
:1007E00029F8002211466FF0090000F023F80022DA
:1007F0001146101F00F01EF800221146501E00F096
:1008000019F80548416821F0E06141F0007141604C
:1008100008BD0000001002400000014000F01F026F
:10082000012191404009800000F1E020C0F8001152
:1008300070470000F0B40E4B1B680C46C3F3022354
:10084000C3F10705042D00D90425191D072901D27C
:10085000002300E0DB1E012606FA05F1491E2140B7
:1008600099409E40761E16403143F0BC01F056B9C7
:100870000CED00E0064900F0070208684FF6FF03A0
:10088000184040EA0220034A104308607047000005
:100890000CED00E00000FA052DE9F843044600786D
:1008A000454DC00773D0E86940F08050E861E869C1
:1008B000424E00F080500090306840F4807030600C
:1008C000FFF744FF074604E0FFF740FFC01B642822
:1008D00033D83068C005F7D5286AA18800F4407085
:1008E00001F440710126814216D0286A320420F4B6
:1008F000407192FAA2F0B0FA80F0830030480344CD
:10090000C3F8006492FAA2F2B2FA82F200EB82001B
:100910000023C0F8003429626068B0F5807F30D1D0
:10092000FFF714FFB046074641F28839022607E078
:10093000FFF70CFFC11B494502D90320BDE8F8832E
:1009400096FAA6F0B0FA80F040F04000B8EB501FE5
:1009500001D128680BE096FAA6F0B0FA80F040F0DA
:100960004000B6EB501F01D1286A00E0686A96FA91
:10097000A6F2B2FA82F202F01F0208FA02F108426D
:10098000D6D0286A616820F4407008432862207835
:10099000800705D56868A16820F440400843686076
:1009A0002078C00605D56868E16820F48000084317
:1009B00068600020C2E700000010024000700040A4
:1009C000000042422DE9F047DFF8789205460E46D6
:1009D000D9F80000022300F0070701204104420675
:1009E000994C41F28838B74271D2D9F800C02CF046
:1009F000070C4CEA060CC9F800C0D9F8007007F0E3
:100A00000707B7426FD12E78B60705D56668AF687D
:100A100026F0F0063E4366602E78F60756D06E68E4
:100A2000012E0BD0022E1ED093FAA3F1B1FA81F160
:100A300041F02001490924D0216823E091FAA1F274
:100A4000B2FA82F242F02002520901D0226800E09C
:100A5000626A91FAA1F1B1FA81F101F01F018840B7
:100A6000024240D017E092FAA2F1B1FA81F141F0CE
:100A70002001490901D0216800E0616A92FAA2F2DE
:100A800002E0616A93FAA3F2B2FA82F202F01F0264
:100A90009040014227D0606820F00300304360603E
:100AA000FFF754FE06466868012809D00228474629
:100AB00013D01EE0FFF74AFE801BB84201D992E036
:100AC00047466068C0F381000128F3D1A1E015E03A
:100AD000FFF73CFE801BB84273D86068C0F381000A
:100AE0000228F5D195E092E0FFF730FE801BB84276
:100AF00079D8606810F00C0FF6D18AE02F78BF0724
:100B000007D56768D5F808C027F0F00747EA0C0753
:100B100067602F78FF076DD06F68012F0BD0022F11
:100B20001ED093FAA3F1B1FA81F141F020014909F5
:100B300024D0216823E091FAA1F2B2FA82F242F0C5
:100B40002002520901D0226800E0626A91FAA1F104
:100B5000B1FA81F101F01F018840024257D017E03D
:100B600092FAA2F1B1FA81F141F02001490901D0D4
:100B7000216800E0616A92FAA2F202E0616A93FAE7
:100B8000A3F2B2FA82F202F01F02904001423ED07C
:100B9000606820F0030038436060FFF7D7FD074628
:100BA0006868012807D0022811D01FE0FFF7CEFDAA
:100BB000C11B414517D86068C0F381000128F5D1F9
:100BC00018E010E0FFF7C2FDC11B41450BD860687B
:100BD000C0F381000228F5D10CE000BFFFF7B6FD9D
:100BE000C11B414502D90320BDE8F087606810F0C1
:100BF0000C0FF3D1D9F8001021F007013143C9F8E7
:100C00000010D9F8000000F00700B04201D0012028
:100C1000EAE72878400705D56068E96820F4E060D5
:100C2000084360602878000706D56068296920F4C9
:100C3000605040EAC10060600020FFF7A7FD00207F
:100C4000D2E70000002002400010024010B500F082
:100C500043F808494968F02292FAA2F201F0F00143
:100C6000B2FA82F2D140044A515CC840034908609C
:100C700010BD000000100240DC2000082C00002005
:100C800010B5FFF7E3FF074949684FF4E06292FAB5
:100C9000A2F201F4E061B2FA82F2D140024A515C60
:100CA000C84010BD00100240DC20000810B5FFF75E
:100CB000CDFF074949684FF4605292FAA2F201F45D
:100CC0006051B2FA82F2D140024A515CC84010BD74
:100CD00000100240DC20000810B519A385B00FCB2E
:100CE0008DE80F001AA01B4B006804905A681A4840
:100CF00002F00C0104291DD008291BD14FF47014F7
:100D000094FAA4F402F47011B4FA84F4E140D2032A
:100D10001DF8011010D55A684FF4003393FAA3F36D
:100D200002F40032B3FA83F3DA4004AB9A5CB0FB0E
:100D3000F2F0484305B010BD08484843FAE7000008
:100D400002030405060708090A0B0C0D0E0F10100C
:100D5000010200000010024000127A0000093D006C
:100D60002DE9F84F05460078DFF85C95C0074FF095
:100D7000010429D0D9F804004E46C0F3810067046D
:100D8000012807D07068C0F3810002281DD1706867
:100D9000C0031AD597FAA7F0B0FA80F040F020000F
:100DA000400901D0306800E0706A97FAA7F1B1FA03
:100DB00081F101F01F0104FA01F1084204D06868D2
:100DC000012801D0052879D184E0306820F48030F2
:100DD0003060306820F480203060FFF7B7FC824636
:100DE00041F2883806E000BFFFF7B0FCA0EB0A0133
:100DF00041457DD897FAA7F0B0FA80F040F0200086
:100E0000400901D0306800E0706A97FAA7F1B1FAA2
:100E100081F101F01F0104FA01F10842E4D13068C8
:100E200020F480303060686801280BD0052811D08C
:100E3000306820F480203060686858B3FFF786FC83
:100E4000824611E0306820F480203060306840F441
:100E50008030F0E70520B070EEE700BFFFF776FCCA
:100E6000A0EB0A014145C4D897FAA7F0B0FA80F088
:100E700040F02000400901D0306800E0706A97FA25
:100E8000A7F1B1FA81F101F01F0104FA01F1084262
:100E9000E4D01FE0FFF75AFC824605E0FFF756FC5E
:100EA000A0EB0A014145A4D897FAA7F0B0FA80F068
:100EB00040F02000400902D0306801E0BAE0706ADA
:100EC00097FAA7F1B1FA81F101F01F0104FA01F1DB
:100ED0000842E3D12878FD4F80074FF0000A4FF019
:100EE000020634D5D9F80410484611F00C0F00E082
:100EF000B0E108D04168C846C1F38101022927D179
:100F00004168C90324D496FAA6F1B1FA81F141F0FF
:100F10002001490901D0016800E0416A96FAA6F271
:100F2000B2FA82F202F01F0204FA02F2114202D077
:100F3000296901297ED10168F82321F0F80293FA8A
:100F4000A3F36969B3FA83F399400A4302604FE05F
:100F5000286938B394FAA4F0B0FA80F047F820403A
:100F6000FFF7F4FB834605E0FFF7F0FBA0EB0B0077
:100F7000642898D896FAA6F0B0FA80F040F02000E5
:100F80004009404601D0006800E0406A96FAA6F1A8
:100F9000B1FA81F101F01F0104FA01F10842E3D036
:100FA0004046C8E794FAA4F1B1FA81F147F821A0CC
:100FB000FFF7CCFB834605E0FFF7C8FBA0EB0B0077
:100FC0006428D6D896FAA6F0B0FA80F040F0200057
:100FD0004009404601D0006800E0406A96FAA6F158
:100FE000B1FA81F101F01F0104FA01F10842E3D1E5
:100FF0002878000773D5A869D8B394FAA4F0B0FA9A
:1010000080F007EB8000C0F88044FFF79FFB80462C
:1010100006E000BFFFF79AFBA0EB08006428A8D801
:1010200096FAA6F0B0FA80F040F06000B4EB501FE2
:1010300004D100E0D7E1D9F800000CE096FAA6F060
:10104000B0FA80F040F06000B6EB501F484601D186
:10105000006A00E0406A96FAA6F1B1FA81F101F067
:101060001F0204FA02F10842D4D00120FFF77EFAF1
:1010700035E0FFE794FAA4F1B1FA81F107EB8101C1
:10108000C1F880A4FFF762FB804605E0FFF75EFB36
:10109000A0EB0800642894D896FAA6F0B0FA80F085
:1010A00040F06000B4EB501F02D1D9F800000CE012
:1010B00096FAA6F0B0FA80F040F06000B6EB501F50
:1010C000484601D1006A00E0406A96FAA6F1B1FAFA
:1010D00081F101F01F0204FA02F10842D6D128780A
:1010E00040077DD5D9F81C1041F08051C9F81C107B
:1010F000D9F81C00DFF8D8B100F080500090DBF880
:10110000001041F48071CBF80010FFF71FFB804600
:1011100006E000BFFFF71AFBA0EB08006428BAD86E
:10112000DBF80000C005F5D594FAA4F1B1FA81F11D
:1011300007EB8101C1F800A44FF0040B9BFAABF15F
:10114000B1FA81F107EB8101C1F800A4FFF7FEFAC3
:10115000009007E0FFF7FAFA0099411A41F288304F
:10116000814277D896FAA6F0B0FA80F040F04000BD
:10117000B4EB501F02D1D9F800000CE096FAA6F0AB
:10118000B0FA80F040F04000B6EB501F484601D165
:10119000006A00E0406A96FAA6F1B1FA81F101F026
:1011A0001F0104FA01F1A0460842D3D1E868E0B17A
:1011B000012850462AD094FAA4F1B1FA81F107EB44
:1011C0008101C1F800049BFAABF000BFB0FA80F0D7
:1011D00007EB8000C0F80044E868012821D000E057
:1011E00083E0FFF7B3FA834656E094FAA4F1B1FA2C
:1011F00081F107EB8101C1F800A49BFAABF1B1FAD0
:1012000081F107EB8101C1F800A4E5E79BFAABF19E
:10121000B1FA81F107EB8101C1F8000494FAA4F05E
:10122000D4E7FFF793FA834608E000BFFFF78EFA92
:10123000A0EB0B0141F2883081420BD896FAA6F060
:10124000B0FA80F040F04000B8EB501F03D1D9F85D
:1012500000000DE09DE096FAA6F0B0FA80F040F0B4
:101260004000B6EB501F484601D1006A00E0406ADA
:1012700096FAA6F1B1FA81F101F01F0208FA02F123
:101280000842D3D031E000BFFFF760FAA0EB0B01BA
:1012900041F2883081427CD896FAA6F0B0FA80F00C
:1012A00040F04000B8EB501F02D1D9F8000012E026
:1012B00096FAA6F0B0FA80F040F04000B6EB501F6E
:1012C000484607D1006A06E0001002400000424292
:1012D00000700040406A96FAA6F1B1FA81F101F07F
:1012E0001F0208FA02F10842CED1E869B0B3D9F87A
:1012F00004104E46C1F38101022974D002284FF038
:1013000080714FF0007950460AD091FAA1F1B1FAFC
:1013100081F147F82100FFF719FA07464D466BE0C7
:101320008A4691FAA1F1B1FA81F1BB4647F8210052
:10133000FFF70CFA80464F4606E000BFFFF706FABB
:10134000A0EB0800642854D897FAA7F0B0FA80F010
:1013500040F02000400902D0306801E061E0706A8E
:1013600097FAA7F1B1FA81F101F01F0104FA01F136
:101370000842E3D1286AB0F5803F05D17068A968BA
:1013800020F4003008437060D5E908010843716813
:1013900000E02EE021F47411084370609AFAAAF07C
:1013A000B0FA80F04BF82040FFF7D0F9054604E092
:1013B000FFF7CCF9401B64281BD897FAA7F0B0FAC6
:1013C00080F040F02000400901D0306800E0706AF1
:1013D00097FAA7F1B1FA81F101F01F0104FA01F1C6
:1013E0000842E5D01DE01EE0FFF7B0F9C01B6428FD
:1013F00002D90320BDE8F88F95FAA5F0B0FA80F085
:1014000040F02000400901D0306800E0706A95FA91
:10141000A5F1B1FA81F101F01F0104FA01F10842CE
:10142000E2D10020E6E70120E4E7704710B5401E56
:10143000B0F1807F01D3012010BD4FF0E024606146
:101440000F21601700F06AFB0020A06107202061D7
:10145000002010BD10B5FFF7E8FF10BD70477047C2
:1014600030B590F83820012A20D0012280F83820A9
:10147000022380F8393003685C6824F070045C60F3
:1014800003685C680D682C435C6003689C6824F00A
:1014900080049C6003689C6849680C439C6080F8E9
:1014A0003920002180F83810084630BD022030BDB8
:1014B00010B5040003D094F8390010B107E0012002
:1014C00010BD002084F83800204600F00DF80220FE
:1014D00084F83900211D206800F07EFB012084F88B
:1014E0003900002010BD000008B500680B49884293
:1014F00012D10B48C16941F00201C161C0690022EB
:1015000000F00200009011461D20FFF793F9BDE89E
:1015100008401D20FFF782B908BD0000000400400C
:10152000001002400168CA6842F00102CA60006807
:10153000016841F0010101600020704770B5044668
:1015400090F83800012817D0012584F8385002207F
:1015500084F839002068826822F0770222F47F4202
:1015600082600868502837D00DDC202859D005DC6F
:1015700088B3102841D151E0022070BD302853D0EB
:1015800040283AD13FE060282ED070280BD0B0F52B
:10159000805F03D0B0F5005F2FD110E02068816834
:1015A00021F0070115E0CB68D1E90121206800F0A6
:1015B00045FB2168886840F0770088601DE0CB68B3
:1015C000D1E90121206800F039FB2068816841F4ED
:1015D0008041816011E01EE0CA684968206800F01F
:1015E0003FFB5021206806E0CA684968206800F087
:1015F00048FB6021206800F02BFB84F83950002064
:1016000084F8380070BDCA684968206800F028FB7B
:1016100040212068EFE700212068ECE710212068D6
:10162000E9E720212068E6E730212068E3E77047FA
:1016300070B50446006801694FF00005C943890789
:1016400015D4C168C943890711D4E91E016101207D
:101650002076206880698007204602D0FFF7E7FFE8
:1016600004E000F098F8204600F096F8257620680F
:101670000169C943490717D4C168C943490713D44D
:101680006FF004010161022020762068806910F467
:10169000407F204602D0FFF7CAFF04E000F07BF84D
:1016A000204600F079F8257620680169C9430907CA
:1016B00016D4C168C943090712D46FF0080101614B
:1016C000042020762068C0698007204602D0FFF7FA
:1016D000AEFF04E000F05FF8204600F05DF82576EC
:1016E00020680169C943C90617D4C168C943C9063E
:1016F00013D46FF010010161082020762068C069C2
:1017000010F4407F204602D0FFF791FF04E000F084
:1017100042F8204600F040F8257620680169C94368
:10172000C90708D1C168C943C90704D1891E01612D
:10173000204600F033F820680169C943090609D43E
:10174000C168C943090605D46FF0800101612046D4
:10175000FFF784FE20680169C943490609D4C168BE
:10176000C943490605D46FF040010161204600F0ED
:10177000B9F820680169C94389060BD4C168C94317
:10178000890607D46FF0200101612046BDE8704052
:10179000FFF765BE70BD7047704700002DE9F04748
:1017A0004D4900680968884255D14B483038FEF7EA
:1017B000F1FD4A4C80086062A068801CA060E1686E
:1017C000401AA06244483038FEF78CFEA269606A75
:1017D000052190420BDA6368A56A93FBF1F303EBF2
:1017E0004303AB4203DA6369984200DA60619042D6
:1017F00003DD2369984200DD2061A36ADFF8E090F1
:10180000012500264FF40078FA2B3DDD90423BDDA8
:101810002078C8BB606890FBF1F000EB4000984274
:1018200032DA2570012241464846FEF789FFD4E9A5
:101830000201421A6260E0602749E078BC3130B1B1
:10184000E670002041F82020401C0928FADDA0782D
:1018500018B1A670E570BDE8F08700234FEA0300D9
:1018600001EB80077F6841F82070401C3B4408284A
:10187000F6DDD0184A620A21B0FBF1F04EF6602185
:10188000B1FBF0F020626570A169606A884213DAEA
:101890002078012810D1002241464846FEF750FF2B
:1018A0002670D4E90410091AE16101EBD17100EB53
:1018B0006100A06120616061A06A40F6C4118842A5
:1018C000C9DDC4F81880C4F81080C4F81480A0687A
:1018D000E060A570E670BEE7780000200000002000
:1018E000000C0140704770B5040004D094F8390032
:1018F000002510B106E0012070BD84F83850204664
:1019000000F020F8022084F839002068C16821F432
:101910000051C160204600F0C7F92068016921F438
:10192000904101612068416921F02A0141612068EC
:10193000C16841F40051C160E563012084F83900B9
:10194000002070BD70B51C4E036800241B490220A6
:1019500003221B4D86B0B34211D18B6943F48043FF
:101960008B618969039201F4804104910102CDE900
:10197000001069462846FEF705FE281513E0114EB3
:10198000B34217D1CB6943F40033CB61C9690392E9
:1019900001F4003104910421CDE900106946284684
:1019A000FEF7F0FD0820CDE90004694628460294C0
:1019B000FEF7E8FD06B070BD00380140001002409F
:1019C00000080140004400402DE9F047044690F82B
:1019D000390099460D46012801D0222858D12DB34F
:1019E00022B394F83800012852D0012684F83860D8
:1019F0000027E76394F8390022281AD05FF012001C
:101A000084F83900A284E2844FF48058E08C4B467D
:101A1000401EE084A0684FF0000240454FF0800176
:101A2000204613D100F0B0F908BB04E00120BDE866
:101A3000F0873220E4E728882168C0F30800486076
:101A4000206908B16D1C08E0AD1C06E000F09CF9AF
:101A500068B9216815F8010B4860E08C0028D5D1E1
:101A60004B4600224021204600F08EF908B10320A9
:101A7000DDE794F83900322806D084F8396000BFD9
:101A800084F838700020D2E7222084F83900F7E784
:101A90000220CCE71D4800B5816985B041F01001F6
:101AA0008161816901F010010491816941F0200197
:101AB0008161816901F020010491816941F0040193
:101AC0008161816901F004010491816941F008019B
:101AD00081618069694600F0080004904FF400506D
:101AE00000900B480190002002900A48FEF74AFD42
:101AF0004FF400700090012001900220039069468D
:101B00000548FEF73FFD05B000BD00000010024093
:101B10000000121000100140000C01400907090EDE
:101B2000002806DA00F00F0000F1E02080F8141D14
:101B3000704700F1E02080F80014704710B5FEF700
:101B40000BFEBDE81040FFF785BC70B594B00225D0
:101B5000012610200095CDE9046000240794684612
:101B6000FFF7FEF8CDE90A640C940D9400210AA851
:101B70000E94FEF727FF0FA80F951194FEF78CFE29
:101B800014B070BD0D48016841F001010160416869
:101B90000B4A1140416001680A4A11400160016826
:101BA00021F480210160416821F4FE0141604FF47D
:101BB0001F0181600449C0030860704700100240A3
:101BC0000000FFF8FFFFF6FE08ED00E00148FFF718
:101BD0002FBD000078000020F0B50268144B154CB2
:101BE000154D4FF08047984205D0B84203D0A0422F
:101BF00001D0A84203D122F070064A6832439842CD
:101C000005D0B84203D0A04201D0A84203D122F4AB
:101C10004074CA68224302608A68C2620A688262AB
:101C2000984201D10969016301214161F0BD0000C1
:101C3000002C0140000400400008004010B58468FA
:101C400042EA032224F47F440A432243826010BD07
:101C5000826822F070020A4342F0070181607047F7
:101C600010B5036A046A24F001040462846924F054
:101C7000F00444EA021423F00A020A438461026277
:101C800010BD10B5036A23F0100303628369046A70
:101C900023F4704343EA023224F0A00343EA011123
:101CA0008261016210BD00002DE9F0410446006828
:101CB0000169E26821F44051114301612169A06882
:101CC0000843616908432168CA6841F20C639A437A
:101CD0000243CA6020684169A26921F4407111433E
:101CE00041612849206864254FF03208884218D1A4
:101CF000FEF7DCFF00EBC00101EB0010616889001A
:101D0000B0FBF1F0B0FBF5F6FEF7D0FF00EBC00141
:101D100001EB001061688900B0FBF1F7FEF7C6FF28
:101D200017E0FEF7ADFF00EBC00101EB00106168AA
:101D30008900B0FBF1F0B0FBF5F6FEF7A1FF00EB78
:101D4000C00101EB001061688900B0FBF1F7FEF7FC
:101D500097FF00EBC00101EB001061688900B0FB48
:101D6000F1F0B0FBF5F06FF01801484307EB80018C
:101D700008EB0110B0FBF5F0216866F31F108860D6
:101D8000BDE8F081003801402DE9F0471D4690463E
:101D90000E460446FEF7DAFC07465FEA08004FF0FD
:101DA00000094FF0010808D030E0681C05D095B15B
:101DB000FEF7CCFCC01BA8420DD82068006836EAAC
:101DC0000000F2D127E0681C20D025B1FEF7BEFC50
:101DD000C01BA8421AD92068C16821F08001C160E7
:101DE0002068C16821F02001C1602068C16821F429
:101DF0008071C1602068416921F00101416184F86E
:101E0000398084F838900320BDE8F08720680068A6
:101E100036EA0000D7D00020F6E700000FB4054BEB
:101E200010B503A9044A029800F018F810BC5DF838
:101E300014FB0000B11F00084400002002E008C8A5
:101E4000121F08C1002AFAD170477047002001E034
:101E500001C1121F002AFBD1704700002DE9FF4F7E
:101E600089B09B460446002506E025280BD05A463B
:101E70000B999047641C6D1C20780028F5D10DB09B
:101E80002846BDE8F08F0027B8460122474900E008
:101E9000074314F8013F203B02FA03F00842F7D150
:101EA00020782E2819D114F8010F47F004072A28AA
:101EB0000ED06FF02F022078A0F1300109290CD844
:101EC00008EB880102EB410100EB0108641CF2E71A
:101ED0000A98641C50F8048B0A9020780028CED011
:101EE000642808D0692806D075281ED05A460B9958
:101EF00090476D1C58E00A994FF00A0901C90A91F0
:101F0000002802DA40422D2102E0390504D52B21B8
:101F10008DF82010012103E0F90704D02021F7E714
:101F20008A4608AE0DE00021FAE70A994FF00A0947
:101F300001C90A91F7E74946FEF7F4F8303106F88F
:101F4000011D0028F7D1ADEB060000F1200978074C
:101F500001D44FF00108C84502DDA8EB090000E0FC
:101F600000208046002706E008A85A46C05D0B996D
:101F700090476D1C7F1C5745F6DB04E030205A4625
:101F80000B9990476D1CB8F10001A8F10108F5DC30
:101F900005E016F8010B5A460B9990476D1CB9F1F4
:101FA0000001A9F10109F4DC641C65E709280100BE
:101FB00013B54FF6FF73012269460248FFF704FD8F
:101FC00000981CBDB400002086B0FEF7CDFBFFF7E3
:101FD000BCFDFFF75FFDFFF7B8FD314800242F4936
:101FE0008460C46044610160012505614FF4602193
:101FF0004460C161FEF7D2F902200094CDE901509E
:1020000069462748FEF714F9254826493030016013
:102010000321C0E9011440F69F71C0E90314FFF7E2
:1020200047FA280300901E4869463030FFF786FAC9
:102030001B48049404A930300594FFF711FA18489E
:102040001949AC304FF4E1350160C0E901540C2668
:10205000C460C0E904468461C461FFF744FC1048D1
:1020600012496C300160C0E90154C460C0E9044603
:102070008461C461FFF737FC09483030FFF752FA3A
:102080000B4D6878012804D14220296A00F014F829
:102090006C701420FEF76AFAF3E700000024014098
:1020A0004800002000040040004400400038014087
:1020B00000000020FFF77CBF10B50C460449FFF775
:1020C000F9FF2146BDE8104002A0FFF7A7BE0000BF
:1020D0004400002025640D0A0000000000000000FC
:1020E0000102030401020304060708090C21000889
:1020F00000000020480000003C1E00085421000899
:1021000048000020180500004C1E000800000100D7
:102110005802000000000000000000000002000063
:102120000002000000020000640000000000000047
:10213000000000000000000000A24A0400000000AF
:102140000000000001020304060708090000000067
:04215000000000008B
:04000005080000ED02
:00000001FF
