:03000000020129D1
:0C012900787FE4F6D8FD75813302017088
:10036F00C0F9A4B0999282F880908CBFC6A186FF85
:01037F00BFBE
:03000300010800F1
:10035800D3EF9400EE9400400DE4FD0DBD1BFCEFBF
:070368001F70ED1E80EA2268
:0D038000153315331533153315331533229E
:1002B300E4FF751102208307AE110511EE70F612EB
:1002C3000380120380120380E4F51630830375164E
:1002D30001751102308307AE110511EE70F6E511B9
:1002E3006401600EE52425E0F524E51642240FBFE2
:0302F30008C0221E
:10024000C2837FB47E00120358D28312038012034C
:1002500080120380120380D28320835675110220FE
:100260008307AF110511EF70F6751102308307AFE8
:10027000110511EF70F61202B38524211202B38525
:1002800024221202B385240B1202B385240C12021D
:10029000B3852415D283E50B250C25212522F516DF
:1002A000B5150F852117852218850B09850C0A8540
:0302B00015132201
:10000E00E4F531F532758902758CFE758AFE75A898
:10001E0082D28CC2A1D2A1C2A130A3FDD2A0AF9038
:10002E00752F008F30C3E530940FE52F64809480D8
:10003E005008752F0075300A805DC3740F9530E53A
:10004E002F6480F87480985015C3E5309419E52F0D
:10005E00648094805008752F007530148039C374F5
:10006E00199530E52F6480F87480985015C3E530EB
:10007E009423E52F648094805008752F0075301EF0
:10008E008015C374239530E52F6480F874809850E2
:10009E0006752F00753028C2A020B3127FE87E03AC
:1000AE0012035820B3080532E53270020531AE3125
:1000BE00AF327C007D021201B5ED4C70271202406A
:1000CE00E51775F00A84F51CE51775F00A8485F0BE
:1000DE001BE50975F00A84F51AE50975F00A8485A1
:1000EE00F019801D751B10A2A6E43375F005A4F55A
:1000FE001C751910AE2FAF307C007D0A1201B58F22
:10010E001A1202F630B70630A70330A607C2B6C2DF
:0B011E00A4020021D2B6D2A4020021EE
:03000B00020007E9
:03000700B2A23270
:1002F600746F25191203377F01120341C281D2811F
:10030600746F251A1203377F02120341C281D2810C
:10031600746F251B1203377F04120341C281D281F9
:10032600746F251C1203377F08120341C281D281E4
:0103360022A4
:0A033700F582E43403F583E493FF3C
:100341007E08EF30E704D2828002C282EF25E0FF0F
:07035100C280D280DEEC2225
:1001350002000EE493A3F8E493A34003F68001F2D2
:1001450008DFF48029E493A3F85407240CC8C333CB
:10015500C4540F4420C8834004F456800146F6DF9A
:10016500E4800B0102040810204080900003E47E27
:10017500019360BCA3FF543F30E509541FFEE4938F
:10018500A360010ECF54C025E060A840B8E493A356
:10019500FAE493A3F8E493A3C8C582C8CAC583CA81
:1001A500F0A3C8C582C8CAC583CADFE9DEE780BE39
:0100060000F9
:1001B500C2D5EC30E709B2D5E4C39DFDE49CFCEE65
:1001C50030E715B2D5E4C39FFFE49EFE1201EBC3F1
:1001D500E49DFDE49CFC80031201EB30D507C3E4EC
:0601E5009FFFE49EFE22D4
:1001EB00BC000BBE0029EF8DF084FFADF022E4CCF8
:1001FB00F875F008EF2FFFEE33FEEC33FCEE9DECC1
:10020B00984005FCEE9DFE0FD5F0E9E4CEFD22ED06
:10021B00F8F5F0EE8420D21CFEADF075F008EF2F50
:10022B00FFED33FD4007985006D5F0F222C398FD41
:05023B000FD5F0EA22DE
:00000001FF
